{
	"data": {
		"bytecode": {
			"linkReferences": {},
			"object": "608060405261016d6003556103b6600a55611d4c6010556109c460115561dead601360006101000a81548173ffffffffffffffffffffffffffffffffffffffff021916908373ffffffffffffffffffffffffffffffffffffffff16021790555073e1f1dd010bbc2860f81c8f90ea4e38db949bb16f601460006101000a81548173ffffffffffffffffffffffffffffffffffffffff021916908373ffffffffffffffffffffffffffffffffffffffff1602179055506601c6bf52634000601555348015620000cc57600080fd5b50620000ed620000e16200013b60201b60201c565b6200014360201b60201c565b6001808190555033600260006101000a81548173ffffffffffffffffffffffffffffffffffffffff021916908373ffffffffffffffffffffffffffffffffffffffff16021790555062000207565b600033905090565b60008060009054906101000a900473ffffffffffffffffffffffffffffffffffffffff169050816000806101000a81548173ffffffffffffffffffffffffffffffffffffffff021916908373ffffffffffffffffffffffffffffffffffffffff1602179055508173ffffffffffffffffffffffffffffffffffffffff168173ffffffffffffffffffffffffffffffffffffffff167f8be0079c531659141344cd1fd0a4f28419497f9722a3daafe3b4186f6b6457e060405160405180910390a35050565b6184de80620002176000396000f3fe6080604052600436106103b05760003560e01c806388bbb0c1116101e7578063b88a802f1161010d578063db2e21bc116100a0578063f2fde38b1161006f578063f2fde38b14610cb0578063f40f0f5214610cd9578063f6be71d114610d16578063ffbd3b1f14610d3f576103b7565b8063db2e21bc14610c39578063e4eceff014610c50578063e941fa7814610c7b578063f0fc6bca14610ca6576103b7565b8063c7926458116100dc578063c792645814610b7d578063ccd34cd514610bba578063ce8b606114610be5578063d8e3160814610c0e576103b7565b8063b88a802f14610ae0578063bc063e1a14610aea578063bd01ac4e14610b15578063c1e22a6514610b40576103b7565b80639f94e27211610185578063b1722d9e11610154578063b1722d9e14610a38578063b6b55f2514610a61578063b74cd24214610a8a578063b77e7da014610ab5576103b7565b80639f94e2721461098e578063a0b40905146109b9578063a5bfd0f2146109e2578063a9f8d18114610a0d576103b7565b80638da5cb5b116101c15780638da5cb5b146108e25780638f6629151461090d57806392b46e5b1461093857806392e8990e14610963576103b7565b806388bbb0c1146108635780638ae39cac1461088e5780638bdf67f2146108b9576103b7565b806348cd4cb1116102d757806372f702f31161026a57806380dc06721161023957806380dc0672146107cd578063817b1cd2146107e457806381b619481461080f5780638778878214610838576103b7565b806372f702f314610737578063746c8ae114610762578063783478ad146107795780637972271b146107a4576103b7565b8063693a090b116102a6578063693a090b146106c05780636d971a10146106eb5780636e707b73146106f5578063715018a614610720576103b7565b806348cd4cb1146106355780634de8ff211461066057806366fe9f8a1461066a57806367a5279314610695576103b7565b80631aed65531161034f5780633505b09f1161031e5780633505b09f146105b3578063392e53cd146105ca5780633f138d4b146105f55780634641257d1461061e576103b7565b80631aed65531461050b5780631cd348c0146105365780632e1a7d4d146105615780633279beab1461058a576103b7565b80631582358e1161038b5780631582358e14610439578063167d2dbe14610464578063178a8d07146104a15780631959a002146104cc576103b7565b8062722765146103bc57806301f8a976146103e55780630fb5a6b41461040e576103b7565b366103b757005b600080fd5b3480156103c857600080fd5b506103e360048036038101906103de9190616de8565b610d6a565b005b3480156103f157600080fd5b5061040c60048036038101906104079190616d96565b610fa7565b005b34801561041a57600080fd5b50610423611064565b6040516104309190617871565b60405180910390f35b34801561044557600080fd5b5061044e61106a565b60405161045b91906173f5565b60405180910390f35b34801561047057600080fd5b5061048b60048036038101906104869190616d96565b611090565b60405161049891906173f5565b60405180910390f35b3480156104ad57600080fd5b506104b66110cf565b6040516104c39190617871565b60405180910390f35b3480156104d857600080fd5b506104f360048036038101906104ee9190616b57565b6110d5565b6040516105029392919061793f565b60405180910390f35b34801561051757600080fd5b506105206110ff565b60405161052d9190617871565b60405180910390f35b34801561054257600080fd5b5061054b611105565b60405161055891906173f5565b60405180910390f35b34801561056d57600080fd5b5061058860048036038101906105839190616d96565b61112b565b005b34801561059657600080fd5b506105b160048036038101906105ac9190616d96565b611804565b005b3480156105bf57600080fd5b506105c8611a29565b005b3480156105d657600080fd5b506105df611aaf565b6040516105ec9190617499565b60405180910390f35b34801561060157600080fd5b5061061c60048036038101906106179190616ba9565b611ac2565b005b34801561062a57600080fd5b50610633611e17565b005b34801561064157600080fd5b5061064a61212f565b6040516106579190617871565b60405180910390f35b610668612135565b005b34801561067657600080fd5b5061067f61285c565b60405161068c9190617871565b60405180910390f35b3480156106a157600080fd5b506106aa612862565b6040516106b79190617871565b60405180910390f35b3480156106cc57600080fd5b506106d5612868565b6040516106e291906173f5565b60405180910390f35b6106f361288e565b005b34801561070157600080fd5b5061070a612e63565b60405161071791906174b4565b60405180910390f35b34801561072c57600080fd5b50610735612e89565b005b34801561074357600080fd5b5061074c612f11565b60405161075991906174b4565b60405180910390f35b34801561076e57600080fd5b50610777612f37565b005b34801561078557600080fd5b5061078e613084565b60405161079b91906173f5565b60405180910390f35b3480156107b057600080fd5b506107cb60048036038101906107c69190616b57565b6130aa565b005b3480156107d957600080fd5b506107e261326a565b005b3480156107f057600080fd5b506107f96132ef565b6040516108069190617871565b60405180910390f35b34801561081b57600080fd5b5061083660048036038101906108319190616ba9565b6132f5565b005b34801561084457600080fd5b5061084d6134d3565b60405161085a9190617871565b60405180910390f35b34801561086f57600080fd5b506108786134d9565b6040516108859190617871565b60405180910390f35b34801561089a57600080fd5b506108a36134df565b6040516108b09190617871565b60405180910390f35b3480156108c557600080fd5b506108e060048036038101906108db9190616d96565b6134e5565b005b3480156108ee57600080fd5b506108f7613726565b60405161090491906173f5565b60405180910390f35b34801561091957600080fd5b5061092261374f565b60405161092f9190617871565b60405180910390f35b34801561094457600080fd5b5061094d613755565b60405161095a9190617871565b60405180910390f35b34801561096f57600080fd5b5061097861375b565b6040516109859190617499565b60405180910390f35b34801561099a57600080fd5b506109a361376e565b6040516109b09190617871565b60405180910390f35b3480156109c557600080fd5b506109e060048036038101906109db9190616c4f565b613952565b005b3480156109ee57600080fd5b506109f7613ad3565b604051610a049190617499565b60405180910390f35b348015610a1957600080fd5b50610a22613ae6565b604051610a2f9190617871565b60405180910390f35b348015610a4457600080fd5b50610a5f6004803603810190610a5a9190616c8b565b613aec565b005b348015610a6d57600080fd5b50610a886004803603810190610a839190616d96565b6140a2565b005b348015610a9657600080fd5b50610a9f61481b565b604051610aac9190617871565b60405180910390f35b348015610ac157600080fd5b50610aca614821565b604051610ad791906173f5565b60405180910390f35b610ae8614847565b005b348015610af657600080fd5b50610aff614a57565b604051610b0c9190617871565b60405180910390f35b348015610b2157600080fd5b50610b2a614a5d565b604051610b379190617871565b60405180910390f35b348015610b4c57600080fd5b50610b676004803603810190610b629190616d96565b614cbc565b604051610b7491906173f5565b60405180910390f35b348015610b8957600080fd5b50610ba46004803603810190610b9f9190616b57565b614cfb565b604051610bb19190617871565b60405180910390f35b348015610bc657600080fd5b50610bcf614eb5565b604051610bdc9190617871565b60405180910390f35b348015610bf157600080fd5b50610c0c6004803603810190610c079190616b57565b614ebb565b005b348015610c1a57600080fd5b50610c2361507b565b604051610c3091906173f5565b60405180910390f35b348015610c4557600080fd5b50610c4e6150a1565b005b348015610c5c57600080fd5b50610c65615228565b604051610c729190617871565b60405180910390f35b348015610c8757600080fd5b50610c9061522e565b604051610c9d9190617871565b60405180910390f35b610cae615234565b005b348015610cbc57600080fd5b50610cd76004803603810190610cd29190616b57565b6154dc565b005b348015610ce557600080fd5b50610d006004803603810190610cfb9190616b57565b6155d4565b604051610d0d9190617871565b60405180910390f35b348015610d2257600080fd5b50610d3d6004803603810190610d389190616d96565b615741565b005b348015610d4b57600080fd5b50610d54615887565b604051610d619190617871565b60405180910390f35b610d7261588d565b73ffffffffffffffffffffffffffffffffffffffff16610d90613726565b73ffffffffffffffffffffffffffffffffffffffff1614610de6576040517f08c379a0000000000000000000000000000000000000000000000000000000008152600401610ddd90617651565b60405180910390fd5b6107d08710610e2a576040517f08c379a0000000000000000000000000000000000000000000000000000000008152600401610e2190617511565b60405180910390fd5b6107d08610610e6e576040517f08c379a0000000000000000000000000000000000000000000000000000000008152600401610e6590617551565b60405180910390fd5b6103e3841115610eb3576040517f08c379a0000000000000000000000000000000000000000000000000000000008152600401610eaa906175d1565b60405180910390fd5b86600e8190555085600f8190555084601181905550610edf60115461271061589590919063ffffffff16565b60108190555083600a8190555082600b60006101000a81548173ffffffffffffffffffffffffffffffffffffffff021916908373ffffffffffffffffffffffffffffffffffffffff16021790555080600c9080519060200190610f439291906168dc565b5081600d9080519060200190610f5a9291906168dc565b507fe517d267fff2c58a025040c7695bb2572821d50c6deba9d8eaebc6f84db5335b87878787878787604051610f969796959493929190617976565b60405180910390a150505050505050565b610faf61588d565b73ffffffffffffffffffffffffffffffffffffffff16610fcd613726565b73ffffffffffffffffffffffffffffffffffffffff1614611023576040517f08c379a000000000000000000000000000000000000000000000000000000000815260040161101a90617651565b60405180910390fd5b806008819055507f0c4d677eef92893ac7ec52faf8140fc6c851ab4736302b4f3a89dfb20696a0df816040516110599190617871565b60405180910390a150565b60035481565b601a60009054906101000a900473ffffffffffffffffffffffffffffffffffffffff1681565b600c81815481106110a057600080fd5b906000526020600020016000915054906101000a900473ffffffffffffffffffffffffffffffffffffffff1681565b60105481565b60216020528060005260406000206000915090508060000154908060010154908060020154905083565b60075481565b601460009054906101000a900473ffffffffffffffffffffffffffffffffffffffff1681565b60026001541415611171576040517f08c379a0000000000000000000000000000000000000000000000000000000008152600401611168906177b1565b60405180910390fd5b6002600181905550600081116111bc576040517f08c379a00000000000000000000000000000000000000000000000000000000081526004016111b390617671565b60405180910390fd5b6000602160003373ffffffffffffffffffffffffffffffffffffffff1673ffffffffffffffffffffffffffffffffffffffff16815260200190815260200160002090508181600001541015611246576040517f08c379a000000000000000000000000000000000000000000000000000000000815260040161123d90617731565b60405180910390fd5b61124e6158ab565b6000816000015411156114ee5760006112a08260010154611292601654611284601b548760000154615a9490919063ffffffff16565b615aaa90919063ffffffff16565b61589590919063ffffffff16565b9050600081111561137657806112b461376e565b10156112f5576040517f08c379a00000000000000000000000000000000000000000000000000000000081526004016112ec90617851565b60405180910390fd5b6113423382601960009054906101000a900473ffffffffffffffffffffffffffffffffffffffff1673ffffffffffffffffffffffffffffffffffffffff16615ac09092919063ffffffff16565b80601e54111561136c5761136181601e5461589590919063ffffffff16565b601e81905550611375565b6000601e819055505b5b60006113bb83600201546113ad60175461139f601c548860000154615a9490919063ffffffff16565b615aaa90919063ffffffff16565b61589590919063ffffffff16565b90506000811180156113d95750601a60149054906101000a900460ff165b156114eb57600073ffffffffffffffffffffffffffffffffffffffff16601a60009054906101000a900473ffffffffffffffffffffffffffffffffffffffff1673ffffffffffffffffffffffffffffffffffffffff161415611481573373ffffffffffffffffffffffffffffffffffffffff166108fc829081150290604051600060405180830381858888f1935050505015801561147b573d6000803e3d6000fd5b506114cf565b6114ce3382601a60009054906101000a900473ffffffffffffffffffffffffffffffffffffffff1673ffffffffffffffffffffffffffffffffffffffff16615ac09092919063ffffffff16565b5b6114e481601f5461589590919063ffffffff16565b601f819055505b50505b6000829050828260000154101561150757816000015490505b61151e81836000015461589590919063ffffffff16565b826000018190555061153b81601d5461589590919063ffffffff16565b601d819055506000600f5411156116f3576000611577612710611569600f5485615a9490919063ffffffff16565b615aaa90919063ffffffff16565b905060006115a461271061159660115485615a9490919063ffffffff16565b615aaa90919063ffffffff16565b905060008111156116345761161e601260009054906101000a900473ffffffffffffffffffffffffffffffffffffffff1682601860009054906101000a900473ffffffffffffffffffffffffffffffffffffffff1673ffffffffffffffffffffffffffffffffffffffff16615ac09092919063ffffffff16565b611631818461589590919063ffffffff16565b92505b600061165f61271061165160105486615a9490919063ffffffff16565b615aaa90919063ffffffff16565b905060008111156116ef576116d9601360009054906101000a900473ffffffffffffffffffffffffffffffffffffffff1682601860009054906101000a900473ffffffffffffffffffffffffffffffffffffffff1673ffffffffffffffffffffffffffffffffffffffff16615ac09092919063ffffffff16565b6116ec818561589590919063ffffffff16565b93505b5050505b6117403382601860009054906101000a900473ffffffffffffffffffffffffffffffffffffffff1673ffffffffffffffffffffffffffffffffffffffff16615ac09092919063ffffffff16565b61176d60165461175f601b548560000154615a9490919063ffffffff16565b615aaa90919063ffffffff16565b82600101819055506117a2601754611794601c548560000154615a9490919063ffffffff16565b615aaa90919063ffffffff16565b82600201819055503373ffffffffffffffffffffffffffffffffffffffff167f884edad9ce6fa2440d8a54cc123490eb96d2768479d49ff9c7366125a9424364846040516117f09190617871565b60405180910390a250506001808190555050565b61180c61588d565b73ffffffffffffffffffffffffffffffffffffffff1661182a613726565b73ffffffffffffffffffffffffffffffffffffffff1614611880576040517f08c379a000000000000000000000000000000000000000000000000000000000815260040161187790617651565b60405180910390fd5b60075443116118c4576040517f08c379a00000000000000000000000000000000000000000000000000000000081526004016118bb90617631565b60405180910390fd5b601a60009054906101000a900473ffffffffffffffffffffffffffffffffffffffff1673ffffffffffffffffffffffffffffffffffffffff16601960009054906101000a900473ffffffffffffffffffffffffffffffffffffffff1673ffffffffffffffffffffffffffffffffffffffff1614611986578061194461376e565b1015611985576040517f08c379a000000000000000000000000000000000000000000000000000000000815260040161197c90617851565b60405180910390fd5b5b600081141561199a5761199761376e565b90505b6119e73382601960009054906101000a900473ffffffffffffffffffffffffffffffffffffffff1673ffffffffffffffffffffffffffffffffffffffff16615ac09092919063ffffffff16565b6000601e541115611a2657601e54811115611a09576000601e81905550611a25565b611a1e81601e5461589590919063ffffffff16565b601e819055505b5b50565b611a3161588d565b73ffffffffffffffffffffffffffffffffffffffff16611a4f613726565b73ffffffffffffffffffffffffffffffffffffffff1614611aa5576040517f08c379a0000000000000000000000000000000000000000000000000000000008152600401611a9c90617651565b60405180910390fd5b611aad615b46565b565b600260149054906101000a900460ff1681565b611aca61588d565b73ffffffffffffffffffffffffffffffffffffffff16611ae8613726565b73ffffffffffffffffffffffffffffffffffffffff1614611b3e576040517f08c379a0000000000000000000000000000000000000000000000000000000008152600401611b3590617651565b60405180910390fd5b601960009054906101000a900473ffffffffffffffffffffffffffffffffffffffff1673ffffffffffffffffffffffffffffffffffffffff168273ffffffffffffffffffffffffffffffffffffffff161415611bcf576040517f08c379a0000000000000000000000000000000000000000000000000000000008152600401611bc690617711565b60405180910390fd5b601860009054906101000a900473ffffffffffffffffffffffffffffffffffffffff1673ffffffffffffffffffffffffffffffffffffffff168273ffffffffffffffffffffffffffffffffffffffff161415611d2d576000601860009054906101000a900473ffffffffffffffffffffffffffffffffffffffff1673ffffffffffffffffffffffffffffffffffffffff166370a08231306040518263ffffffff1660e01b8152600401611c8291906173f5565b60206040518083038186803b158015611c9a57600080fd5b505afa158015611cae573d6000803e3d6000fd5b505050506040513d601f19601f82011682018060405250810190611cd29190616dbf565b9050611ce9601d548261589590919063ffffffff16565b821115611d2b576040517f08c379a0000000000000000000000000000000000000000000000000000000008152600401611d22906175b1565b60405180910390fd5b505b600073ffffffffffffffffffffffffffffffffffffffff168273ffffffffffffffffffffffffffffffffffffffff161415611dae573373ffffffffffffffffffffffffffffffffffffffff166108fc829081150290604051600060405180830381858888f19350505050158015611da8573d6000803e3d6000fd5b50611dda565b611dd933828473ffffffffffffffffffffffffffffffffffffffff16615ac09092919063ffffffff16565b5b7f74f5dcd55c394cb1c6d3b9da22c2464bcc46c38cc3865bd629ed75823249b40b8282604051611e0b929190617470565b60405180910390a15050565b611e1f61588d565b73ffffffffffffffffffffffffffffffffffffffff16611e3d613726565b73ffffffffffffffffffffffffffffffffffffffff1614611e93576040517f08c379a0000000000000000000000000000000000000000000000000000000008152600401611e8a90617651565b60405180910390fd5b611e9b6158ab565b6000601860009054906101000a900473ffffffffffffffffffffffffffffffffffffffff1673ffffffffffffffffffffffffffffffffffffffff166370a08231306040518263ffffffff1660e01b8152600401611ef891906173f5565b60206040518083038186803b158015611f1057600080fd5b505afa158015611f24573d6000803e3d6000fd5b505050506040513d601f19601f82011682018060405250810190611f489190616dbf565b9050611f5f601d548261589590919063ffffffff16565b90506000611fa0602054611f92601754611f84601c5487615a9490919063ffffffff16565b615aaa90919063ffffffff16565b61589590919063ffffffff16565b905060008111156120fc57600073ffffffffffffffffffffffffffffffffffffffff16601a60009054906101000a900473ffffffffffffffffffffffffffffffffffffffff1673ffffffffffffffffffffffffffffffffffffffff16141561207057601260009054906101000a900473ffffffffffffffffffffffffffffffffffffffff1673ffffffffffffffffffffffffffffffffffffffff166108fc829081150290604051600060405180830381858888f1935050505015801561206a573d6000803e3d6000fd5b506120e0565b6120df601260009054906101000a900473ffffffffffffffffffffffffffffffffffffffff1682601a60009054906101000a900473ffffffffffffffffffffffffffffffffffffffff1673ffffffffffffffffffffffffffffffffffffffff16615ac09092919063ffffffff16565b5b6120f581601f5461589590919063ffffffff16565b601f819055505b612125601754612117601c5485615a9490919063ffffffff16565b615aaa90919063ffffffff16565b6020819055505050565b60065481565b6002600154141561217b576040517f08c379a0000000000000000000000000000000000000000000000000000000008152600401612172906177b1565b60405180910390fd5b600260018190555060011515601a60149054906101000a900460ff161515146121d9576040517f08c379a00000000000000000000000000000000000000000000000000000000081526004016121d090617811565b60405180910390fd5b6000602160003373ffffffffffffffffffffffffffffffffffffffff1673ffffffffffffffffffffffffffffffffffffffff1681526020019081526020016000209050612224615f03565b61222c6158ab565b60008160000154141561223f5750612853565b60006122848260020154612276601754612268601c548760000154615a9490919063ffffffff16565b615aaa90919063ffffffff16565b61589590919063ffffffff16565b9050600081111561281b576122a481601f5461589590919063ffffffff16565b601f81905550601a60009054906101000a900473ffffffffffffffffffffffffffffffffffffffff1673ffffffffffffffffffffffffffffffffffffffff16601860009054906101000a900473ffffffffffffffffffffffffffffffffffffffff1673ffffffffffffffffffffffffffffffffffffffff161461268657600073ffffffffffffffffffffffffffffffffffffffff16601a60009054906101000a900473ffffffffffffffffffffffffffffffffffffffff1673ffffffffffffffffffffffffffffffffffffffff16141561247f576000600b60009054906101000a900473ffffffffffffffffffffffffffffffffffffffff1673ffffffffffffffffffffffffffffffffffffffff1663ad5c46486040518163ffffffff1660e01b815260040160206040518083038186803b1580156123e257600080fd5b505afa1580156123f6573d6000803e3d6000fd5b505050506040513d601f19601f8201168201806040525081019061241a9190616b80565b90508073ffffffffffffffffffffffffffffffffffffffff1663d0e30db0836040518263ffffffff1660e01b81526004016000604051808303818588803b15801561246457600080fd5b505af1158015612478573d6000803e3d6000fd5b5050505050505b6000601860009054906101000a900473ffffffffffffffffffffffffffffffffffffffff1673ffffffffffffffffffffffffffffffffffffffff166370a08231306040518263ffffffff1660e01b81526004016124dc91906173f5565b60206040518083038186803b1580156124f457600080fd5b505afa158015612508573d6000803e3d6000fd5b505050506040513d601f19601f8201168201806040525081019061252c9190616dbf565b90506125bf82600c8054806020026020016040519081016040528092919081815260200182805480156125b457602002820191906000526020600020905b8160009054906101000a900473ffffffffffffffffffffffffffffffffffffffff1673ffffffffffffffffffffffffffffffffffffffff168152602001906001019080831161256a575b50505050503061601b565b6000601860009054906101000a900473ffffffffffffffffffffffffffffffffffffffff1673ffffffffffffffffffffffffffffffffffffffff166370a08231306040518263ffffffff1660e01b815260040161261c91906173f5565b60206040518083038186803b15801561263457600080fd5b505afa158015612648573d6000803e3d6000fd5b505050506040513d601f19601f8201168201806040525081019061266c9190616dbf565b9050612681828261589590919063ffffffff16565b925050505b600460009054906101000a900460ff16156126f7576005546126b583600001548361622890919063ffffffff16565b11156126f6576040517f08c379a00000000000000000000000000000000000000000000000000000000081526004016126ed906176d1565b60405180910390fd5b5b61270c81601d5461622890919063ffffffff16565b601d8190555061272981836000015461622890919063ffffffff16565b82600001819055506127c4612789836001015461277b60165461276d601b5461275f888a6000015461589590919063ffffffff16565b615a9490919063ffffffff16565b615aaa90919063ffffffff16565b61589590919063ffffffff16565b6127b66016546127a8601b548760000154615a9490919063ffffffff16565b615aaa90919063ffffffff16565b61589590919063ffffffff16565b82600101819055503373ffffffffffffffffffffffffffffffffffffffff167fe1fffcc4923d04b559f4d29a8bfc6cda04eb5b0d3c460751c2402c5c5cc9109c826040516128129190617871565b60405180910390a25b61284860175461283a601c548560000154615a9490919063ffffffff16565b615aaa90919063ffffffff16565b826002018190555050505b60018081905550565b60055481565b600e5481565b600b60009054906101000a900473ffffffffffffffffffffffffffffffffffffffff1681565b600260015414156128d4576040517f08c379a00000000000000000000000000000000000000000000000000000000081526004016128cb906177b1565b60405180910390fd5b60026001819055506000602160003373ffffffffffffffffffffffffffffffffffffffff1673ffffffffffffffffffffffffffffffffffffffff1681526020019081526020016000209050612927615f03565b61292f6158ab565b6000816000015414156129425750612e5a565b6000612987826001015461297960165461296b601b548760000154615a9490919063ffffffff16565b615aaa90919063ffffffff16565b61589590919063ffffffff16565b90506000811115612e22578061299b61376e565b10156129dc576040517f08c379a00000000000000000000000000000000000000000000000000000000081526004016129d390617851565b60405180910390fd5b80601e541115612a06576129fb81601e5461589590919063ffffffff16565b601e81905550612a0f565b6000601e819055505b601960009054906101000a900473ffffffffffffffffffffffffffffffffffffffff1673ffffffffffffffffffffffffffffffffffffffff16601860009054906101000a900473ffffffffffffffffffffffffffffffffffffffff1673ffffffffffffffffffffffffffffffffffffffff1614612c8d576000601860009054906101000a900473ffffffffffffffffffffffffffffffffffffffff1673ffffffffffffffffffffffffffffffffffffffff166370a08231306040518263ffffffff1660e01b8152600401612ae391906173f5565b60206040518083038186803b158015612afb57600080fd5b505afa158015612b0f573d6000803e3d6000fd5b505050506040513d601f19601f82011682018060405250810190612b339190616dbf565b9050612bc682600d805480602002602001604051908101604052809291908181526020018280548015612bbb57602002820191906000526020600020905b8160009054906101000a900473ffffffffffffffffffffffffffffffffffffffff1673ffffffffffffffffffffffffffffffffffffffff1681526020019060010190808311612b71575b50505050503061601b565b6000601860009054906101000a900473ffffffffffffffffffffffffffffffffffffffff1673ffffffffffffffffffffffffffffffffffffffff166370a08231306040518263ffffffff1660e01b8152600401612c2391906173f5565b60206040518083038186803b158015612c3b57600080fd5b505afa158015612c4f573d6000803e3d6000fd5b505050506040513d601f19601f82011682018060405250810190612c739190616dbf565b9050612c88828261589590919063ffffffff16565b925050505b600460009054906101000a900460ff1615612cfe57600554612cbc83600001548361622890919063ffffffff16565b1115612cfd576040517f08c379a0000000000000000000000000000000000000000000000000000000008152600401612cf4906176d1565b60405180910390fd5b5b612d1381601d5461622890919063ffffffff16565b601d81905550612d3081836000015461622890919063ffffffff16565b8260000181905550612dcb612d908360020154612d82601754612d74601c54612d66888a6000015461589590919063ffffffff16565b615a9490919063ffffffff16565b615aaa90919063ffffffff16565b61589590919063ffffffff16565b612dbd601754612daf601c548760000154615a9490919063ffffffff16565b615aaa90919063ffffffff16565b61589590919063ffffffff16565b82600201819055503373ffffffffffffffffffffffffffffffffffffffff167fe1fffcc4923d04b559f4d29a8bfc6cda04eb5b0d3c460751c2402c5c5cc9109c82604051612e199190617871565b60405180910390a25b612e4f601654612e41601b548560000154615a9490919063ffffffff16565b615aaa90919063ffffffff16565b826001018190555050505b60018081905550565b601960009054906101000a900473ffffffffffffffffffffffffffffffffffffffff1681565b612e9161588d565b73ffffffffffffffffffffffffffffffffffffffff16612eaf613726565b73ffffffffffffffffffffffffffffffffffffffff1614612f05576040517f08c379a0000000000000000000000000000000000000000000000000000000008152600401612efc90617651565b60405180910390fd5b612f0f600061623e565b565b601860009054906101000a900473ffffffffffffffffffffffffffffffffffffffff1681565b612f3f61588d565b73ffffffffffffffffffffffffffffffffffffffff16612f5d613726565b73ffffffffffffffffffffffffffffffffffffffff1614612fb3576040517f08c379a0000000000000000000000000000000000000000000000000000000008152600401612faa90617651565b60405180910390fd5b600060065414612ff8576040517f08c379a0000000000000000000000000000000000000000000000000000000008152600401612fef906174f1565b60405180910390fd5b61300c60644361622890919063ffffffff16565b6006819055506130366170806003546130259190617cd3565b60065461622890919063ffffffff16565b6007819055506006546009819055507f7cd0ab87d19036f3dfadadb232c78aa4879dda3f0c994a9d637532410ee2ce0660065460075460405161307a9291906178bc565b60405180910390a1565b601360009054906101000a900473ffffffffffffffffffffffffffffffffffffffff1681565b6130b261588d565b73ffffffffffffffffffffffffffffffffffffffff166130d0613726565b73ffffffffffffffffffffffffffffffffffffffff1614613126576040517f08c379a000000000000000000000000000000000000000000000000000000000815260040161311d90617651565b60405180910390fd5b600073ffffffffffffffffffffffffffffffffffffffff168173ffffffffffffffffffffffffffffffffffffffff161415806131b05750601260009054906101000a900473ffffffffffffffffffffffffffffffffffffffff1673ffffffffffffffffffffffffffffffffffffffff168173ffffffffffffffffffffffffffffffffffffffff1614155b6131ef576040517f08c379a00000000000000000000000000000000000000000000000000000000081526004016131e690617531565b60405180910390fd5b80601260006101000a81548173ffffffffffffffffffffffffffffffffffffffff021916908373ffffffffffffffffffffffffffffffffffffffff1602179055507f6de6ddf87fbce1f42220b349684d9b952eac9bffd639fd2093096032cb1d4d4e8160405161325f91906173f5565b60405180910390a150565b61327261588d565b73ffffffffffffffffffffffffffffffffffffffff16613290613726565b73ffffffffffffffffffffffffffffffffffffffff16146132e6576040517f08c379a00000000000000000000000000000000000000000000000000000000081526004016132dd90617651565b60405180910390fd5b43600781905550565b601d5481565b601460009054906101000a900473ffffffffffffffffffffffffffffffffffffffff1673ffffffffffffffffffffffffffffffffffffffff163373ffffffffffffffffffffffffffffffffffffffff1614613385576040517f08c379a000000000000000000000000000000000000000000000000000000000815260040161337c90617611565b60405180910390fd5b600073ffffffffffffffffffffffffffffffffffffffff168273ffffffffffffffffffffffffffffffffffffffff1614158061340f5750601460009054906101000a900473ffffffffffffffffffffffffffffffffffffffff1673ffffffffffffffffffffffffffffffffffffffff168273ffffffffffffffffffffffffffffffffffffffff1614155b61344e576040517f08c379a000000000000000000000000000000000000000000000000000000000815260040161344590617531565b60405180910390fd5b81601460006101000a81548173ffffffffffffffffffffffffffffffffffffffff021916908373ffffffffffffffffffffffffffffffffffffffff160217905550806015819055507f232f2e6280d2064b1e439bf40ecdada042d84eefbb55039e4c49e8dc4f4c90c982826040516134c7929190617470565b60405180910390a15050565b60155481565b60175481565b60085481565b6002600154141561352b576040517f08c379a0000000000000000000000000000000000000000000000000000000008152600401613522906177b1565b60405180910390fd5b60026001819055506000811161354057600080fd5b6000601960009054906101000a900473ffffffffffffffffffffffffffffffffffffffff1673ffffffffffffffffffffffffffffffffffffffff166370a08231306040518263ffffffff1660e01b815260040161359d91906173f5565b60206040518083038186803b1580156135b557600080fd5b505afa1580156135c9573d6000803e3d6000fd5b505050506040513d601f19601f820116820180604052508101906135ed9190616dbf565b905061363e333084601960009054906101000a900473ffffffffffffffffffffffffffffffffffffffff1673ffffffffffffffffffffffffffffffffffffffff16616302909392919063ffffffff16565b6000601960009054906101000a900473ffffffffffffffffffffffffffffffffffffffff1673ffffffffffffffffffffffffffffffffffffffff166370a08231306040518263ffffffff1660e01b815260040161369b91906173f5565b60206040518083038186803b1580156136b357600080fd5b505afa1580156136c7573d6000803e3d6000fd5b505050506040513d601f19601f820116820180604052508101906136eb9190616dbf565b90506137148261370683601e5461622890919063ffffffff16565b61589590919063ffffffff16565b601e8190555050506001808190555050565b60008060009054906101000a900473ffffffffffffffffffffffffffffffffffffffff16905090565b601b5481565b601c5481565b600460009054906101000a900460ff1681565b6000601a60009054906101000a900473ffffffffffffffffffffffffffffffffffffffff1673ffffffffffffffffffffffffffffffffffffffff16601960009054906101000a900473ffffffffffffffffffffffffffffffffffffffff1673ffffffffffffffffffffffffffffffffffffffff1614156137f257601e54905061394f565b6000601960009054906101000a900473ffffffffffffffffffffffffffffffffffffffff1673ffffffffffffffffffffffffffffffffffffffff166370a08231306040518263ffffffff1660e01b815260040161384f91906173f5565b60206040518083038186803b15801561386757600080fd5b505afa15801561387b573d6000803e3d6000fd5b505050506040513d601f19601f8201168201806040525081019061389f9190616dbf565b9050601860009054906101000a900473ffffffffffffffffffffffffffffffffffffffff1673ffffffffffffffffffffffffffffffffffffffff16601960009054906101000a900473ffffffffffffffffffffffffffffffffffffffff1673ffffffffffffffffffffffffffffffffffffffff16141561394a57601d5481101561392d57600091505061394f565b613942601d548261589590919063ffffffff16565b91505061394f565b809150505b90565b61395a61588d565b73ffffffffffffffffffffffffffffffffffffffff16613978613726565b73ffffffffffffffffffffffffffffffffffffffff16146139ce576040517f08c379a00000000000000000000000000000000000000000000000000000000081526004016139c590617651565b60405180910390fd5b600460009054906101000a900460ff16613a1d576040517f08c379a0000000000000000000000000000000000000000000000000000000008152600401613a1490617691565b60405180910390fd5b8115613a73576005548111613a67576040517f08c379a0000000000000000000000000000000000000000000000000000000008152600401613a5e906176b1565b60405180910390fd5b80600581905550613a96565b81600460006101000a81548160ff02191690831515021790555060006005819055505b7f241f67ee5f41b7a5cabf911367329be7215900f602ebfc47f89dce2a6bcd847c600554604051613ac79190617871565b60405180910390a15050565b601a60149054906101000a900460ff1681565b60095481565b600260149054906101000a900460ff1615613b3c576040517f08c379a0000000000000000000000000000000000000000000000000000000008152600401613b3390617771565b60405180910390fd5b600260009054906101000a900473ffffffffffffffffffffffffffffffffffffffff1673ffffffffffffffffffffffffffffffffffffffff163373ffffffffffffffffffffffffffffffffffffffff1614613bcc576040517f08c379a0000000000000000000000000000000000000000000000000000000008152600401613bc3906177d1565b60405180910390fd5b6001600260146101000a81548160ff02191690831515021790555089601860006101000a81548173ffffffffffffffffffffffffffffffffffffffff021916908373ffffffffffffffffffffffffffffffffffffffff16021790555088601960006101000a81548173ffffffffffffffffffffffffffffffffffffffff021916908373ffffffffffffffffffffffffffffffffffffffff16021790555087601a60006101000a81548173ffffffffffffffffffffffffffffffffffffffff021916908373ffffffffffffffffffffffffffffffffffffffff16021790555080601a60146101000a81548160ff021916908315150217905550866008819055506107d08610613d0f576040517f08c379a0000000000000000000000000000000000000000000000000000000008152600401613d0690617511565b60405180910390fd5b6107d08510613d53576040517f08c379a0000000000000000000000000000000000000000000000000000000008152600401613d4a90617551565b60405180910390fd5b85600e8190555084600f8190555033601260006101000a81548173ffffffffffffffffffffffffffffffffffffffff021916908373ffffffffffffffffffffffffffffffffffffffff1602179055506000601960009054906101000a900473ffffffffffffffffffffffffffffffffffffffff1673ffffffffffffffffffffffffffffffffffffffff1663313ce5676040518163ffffffff1660e01b815260040160206040518083038186803b158015613e0c57600080fd5b505afa158015613e20573d6000803e3d6000fd5b505050506040513d601f19601f82011682018060405250810190613e449190616eb6565b60ff169050601e8110613e8c576040517f08c379a0000000000000000000000000000000000000000000000000000000008152600401613e8390617831565b60405180910390fd5b613ea081602861589590919063ffffffff16565b600a613eac9190617bb5565b601681905550600060129050600073ffffffffffffffffffffffffffffffffffffffff16601a60009054906101000a900473ffffffffffffffffffffffffffffffffffffffff1673ffffffffffffffffffffffffffffffffffffffff1614613ff757601a60009054906101000a900473ffffffffffffffffffffffffffffffffffffffff1673ffffffffffffffffffffffffffffffffffffffff1663313ce5676040518163ffffffff1660e01b815260040160206040518083038186803b158015613f7657600080fd5b505afa158015613f8a573d6000803e3d6000fd5b505050506040513d601f19601f82011682018060405250810190613fae9190616eb6565b60ff169050601e8110613ff6576040517f08c379a0000000000000000000000000000000000000000000000000000000008152600401613fed90617831565b60405180910390fd5b5b61400b81602861589590919063ffffffff16565b600a6140179190617bb5565b60178190555085600b60006101000a81548173ffffffffffffffffffffffffffffffffffffffff021916908373ffffffffffffffffffffffffffffffffffffffff16021790555084600d90805190602001906140749291906168dc565b5083600c908051906020019061408b9291906168dc565b50614094615b46565b505050505050505050505050565b600260015414156140e8576040517f08c379a00000000000000000000000000000000000000000000000000000000081526004016140df906177b1565b60405180910390fd5b600260018190555060008111614133576040517f08c379a000000000000000000000000000000000000000000000000000000000815260040161412a90617671565b60405180910390fd5b6000602160003373ffffffffffffffffffffffffffffffffffffffff1673ffffffffffffffffffffffffffffffffffffffff1681526020019081526020016000209050600460009054906101000a900460ff16156141e7576005546141a582600001548461622890919063ffffffff16565b11156141e6576040517f08c379a00000000000000000000000000000000000000000000000000000000081526004016141dd906176d1565b60405180910390fd5b5b6141ef6158ab565b60008160000154111561448f5760006142418260010154614233601654614225601b548760000154615a9490919063ffffffff16565b615aaa90919063ffffffff16565b61589590919063ffffffff16565b90506000811115614317578061425561376e565b1015614296576040517f08c379a000000000000000000000000000000000000000000000000000000000815260040161428d90617851565b60405180910390fd5b6142e33382601960009054906101000a900473ffffffffffffffffffffffffffffffffffffffff1673ffffffffffffffffffffffffffffffffffffffff16615ac09092919063ffffffff16565b80601e54111561430d5761430281601e5461589590919063ffffffff16565b601e81905550614316565b6000601e819055505b5b600061435c836002015461434e601754614340601c548860000154615a9490919063ffffffff16565b615aaa90919063ffffffff16565b61589590919063ffffffff16565b905060008111801561437a5750601a60149054906101000a900460ff165b1561448c57600073ffffffffffffffffffffffffffffffffffffffff16601a60009054906101000a900473ffffffffffffffffffffffffffffffffffffffff1673ffffffffffffffffffffffffffffffffffffffff161415614422573373ffffffffffffffffffffffffffffffffffffffff166108fc829081150290604051600060405180830381858888f1935050505015801561441c573d6000803e3d6000fd5b50614470565b61446f3382601a60009054906101000a900473ffffffffffffffffffffffffffffffffffffffff1673ffffffffffffffffffffffffffffffffffffffff16615ac09092919063ffffffff16565b5b61448581601f5461589590919063ffffffff16565b601f819055505b50505b6000601860009054906101000a900473ffffffffffffffffffffffffffffffffffffffff1673ffffffffffffffffffffffffffffffffffffffff166370a08231306040518263ffffffff1660e01b81526004016144ec91906173f5565b60206040518083038186803b15801561450457600080fd5b505afa158015614518573d6000803e3d6000fd5b505050506040513d601f19601f8201168201806040525081019061453c9190616dbf565b905061458d333085601860009054906101000a900473ffffffffffffffffffffffffffffffffffffffff1673ffffffffffffffffffffffffffffffffffffffff16616302909392919063ffffffff16565b6000601860009054906101000a900473ffffffffffffffffffffffffffffffffffffffff1673ffffffffffffffffffffffffffffffffffffffff166370a08231306040518263ffffffff1660e01b81526004016145ea91906173f5565b60206040518083038186803b15801561460257600080fd5b505afa158015614616573d6000803e3d6000fd5b505050506040513d601f19601f8201168201806040525081019061463a9190616dbf565b90506000614651838361589590919063ffffffff16565b90506000600e54111561471b57600061468961271061467b600e5485615a9490919063ffffffff16565b615aaa90919063ffffffff16565b9050600081111561471957614703601260009054906101000a900473ffffffffffffffffffffffffffffffffffffffff1682601860009054906101000a900473ffffffffffffffffffffffffffffffffffffffff1673ffffffffffffffffffffffffffffffffffffffff16615ac09092919063ffffffff16565b614716818361589590919063ffffffff16565b91505b505b61473281856000015461622890919063ffffffff16565b8460000181905550614767601654614759601b548760000154615a9490919063ffffffff16565b615aaa90919063ffffffff16565b846001018190555061479c60175461478e601c548760000154615a9490919063ffffffff16565b615aaa90919063ffffffff16565b84600201819055506147b981601d5461622890919063ffffffff16565b601d819055503373ffffffffffffffffffffffffffffffffffffffff167fe1fffcc4923d04b559f4d29a8bfc6cda04eb5b0d3c460751c2402c5c5cc9109c826040516148059190617871565b60405180910390a2505050506001808190555050565b6103e381565b601260009054906101000a900473ffffffffffffffffffffffffffffffffffffffff1681565b6002600154141561488d576040517f08c379a0000000000000000000000000000000000000000000000000000000008152600401614884906177b1565b60405180910390fd5b60026001819055506000602160003373ffffffffffffffffffffffffffffffffffffffff1673ffffffffffffffffffffffffffffffffffffffff16815260200190815260200160002090506148e0615f03565b6148e86158ab565b6000816000015414156148fb5750614a4e565b60006149408260010154614932601654614924601b548760000154615a9490919063ffffffff16565b615aaa90919063ffffffff16565b61589590919063ffffffff16565b90506000811115614a16578061495461376e565b1015614995576040517f08c379a000000000000000000000000000000000000000000000000000000000815260040161498c90617851565b60405180910390fd5b6149e23382601960009054906101000a900473ffffffffffffffffffffffffffffffffffffffff1673ffffffffffffffffffffffffffffffffffffffff16615ac09092919063ffffffff16565b80601e541115614a0c57614a0181601e5461589590919063ffffffff16565b601e81905550614a15565b6000601e819055505b5b614a43601654614a35601b548560000154615a9490919063ffffffff16565b615aaa90919063ffffffff16565b826001018190555050505b60018081905550565b6107d081565b60008073ffffffffffffffffffffffffffffffffffffffff16601a60009054906101000a900473ffffffffffffffffffffffffffffffffffffffff1673ffffffffffffffffffffffffffffffffffffffff161415614abd57479050614cb9565b6000601a60009054906101000a900473ffffffffffffffffffffffffffffffffffffffff1673ffffffffffffffffffffffffffffffffffffffff166370a08231306040518263ffffffff1660e01b8152600401614b1a91906173f5565b60206040518083038186803b158015614b3257600080fd5b505afa158015614b46573d6000803e3d6000fd5b505050506040513d601f19601f82011682018060405250810190614b6a9190616dbf565b9050601960009054906101000a900473ffffffffffffffffffffffffffffffffffffffff1673ffffffffffffffffffffffffffffffffffffffff16601a60009054906101000a900473ffffffffffffffffffffffffffffffffffffffff1673ffffffffffffffffffffffffffffffffffffffff161415614c1057601e54811015614bf8576000915050614cb9565b614c0d601e548261589590919063ffffffff16565b90505b601860009054906101000a900473ffffffffffffffffffffffffffffffffffffffff1673ffffffffffffffffffffffffffffffffffffffff16601a60009054906101000a900473ffffffffffffffffffffffffffffffffffffffff1673ffffffffffffffffffffffffffffffffffffffff161415614cb457601d54811015614c9c576000915050614cb9565b614cb1601d548261589590919063ffffffff16565b90505b809150505b90565b600d8181548110614ccc57600080fd5b906000526020600020016000915054906101000a900473ffffffffffffffffffffffffffffffffffffffff1681565b600080602160008473ffffffffffffffffffffffffffffffffffffffff1673ffffffffffffffffffffffffffffffffffffffff16815260200190815260200160002090506000601d541415614d54576000915050614eb0565b6000614d5e614a5d565b90506000601860009054906101000a900473ffffffffffffffffffffffffffffffffffffffff1673ffffffffffffffffffffffffffffffffffffffff166370a08231306040518263ffffffff1660e01b8152600401614dbd91906173f5565b60206040518083038186803b158015614dd557600080fd5b505afa158015614de9573d6000803e3d6000fd5b505050506040513d601f19601f82011682018060405250810190614e0d9190616dbf565b90506000614e60614e4f83614e41601754614e33601f548961589590919063ffffffff16565b615a9490919063ffffffff16565b615aaa90919063ffffffff16565b601c5461622890919063ffffffff16565b90506000614ea58560020154614e97601754614e89868a60000154615a9490919063ffffffff16565b615aaa90919063ffffffff16565b61589590919063ffffffff16565b905080955050505050505b919050565b60165481565b614ec361588d565b73ffffffffffffffffffffffffffffffffffffffff16614ee1613726565b73ffffffffffffffffffffffffffffffffffffffff1614614f37576040517f08c379a0000000000000000000000000000000000000000000000000000000008152600401614f2e90617651565b60405180910390fd5b600073ffffffffffffffffffffffffffffffffffffffff168173ffffffffffffffffffffffffffffffffffffffff16141580614fc15750601360009054906101000a900473ffffffffffffffffffffffffffffffffffffffff1673ffffffffffffffffffffffffffffffffffffffff168173ffffffffffffffffffffffffffffffffffffffff1614155b615000576040517f08c379a0000000000000000000000000000000000000000000000000000000008152600401614ff790617531565b60405180910390fd5b80601360006101000a81548173ffffffffffffffffffffffffffffffffffffffff021916908373ffffffffffffffffffffffffffffffffffffffff1602179055507f8a9b7fb782d8cd36cf5ad685904b90ca468e92438523cf13ea97450249e41c2a8160405161507091906173f5565b60405180910390a150565b600260009054906101000a900473ffffffffffffffffffffffffffffffffffffffff1681565b600260015414156150e7576040517f08c379a00000000000000000000000000000000000000000000000000000000081526004016150de906177b1565b60405180910390fd5b60026001819055506000602160003373ffffffffffffffffffffffffffffffffffffffff1673ffffffffffffffffffffffffffffffffffffffff168152602001908152602001600020905060008160000154905060008260000181905550600082600101819055506000826002018190555060008111156151cb576151af3382601860009054906101000a900473ffffffffffffffffffffffffffffffffffffffff1673ffffffffffffffffffffffffffffffffffffffff16615ac09092919063ffffffff16565b6151c481601d5461589590919063ffffffff16565b601d819055505b3373ffffffffffffffffffffffffffffffffffffffff167f5fafa99d0643513820be26656b45130b01e1c03062e1266bf36f88cbd3bd969583600001546040516152159190617871565b60405180910390a2505060018081905550565b60115481565b600f5481565b6002600154141561527a576040517f08c379a0000000000000000000000000000000000000000000000000000000008152600401615271906177b1565b60405180910390fd5b600260018190555060011515601a60149054906101000a900460ff161515146152d8576040517f08c379a00000000000000000000000000000000000000000000000000000000081526004016152cf90617811565b60405180910390fd5b6000602160003373ffffffffffffffffffffffffffffffffffffffff1673ffffffffffffffffffffffffffffffffffffffff1681526020019081526020016000209050615323615f03565b61532b6158ab565b60008160000154141561533e57506154d3565b60006153838260020154615375601754615367601c548760000154615a9490919063ffffffff16565b615aaa90919063ffffffff16565b61589590919063ffffffff16565b9050600081111561549b57600073ffffffffffffffffffffffffffffffffffffffff16601a60009054906101000a900473ffffffffffffffffffffffffffffffffffffffff1673ffffffffffffffffffffffffffffffffffffffff161415615431573373ffffffffffffffffffffffffffffffffffffffff166108fc829081150290604051600060405180830381858888f1935050505015801561542b573d6000803e3d6000fd5b5061547f565b61547e3382601a60009054906101000a900473ffffffffffffffffffffffffffffffffffffffff1673ffffffffffffffffffffffffffffffffffffffff16615ac09092919063ffffffff16565b5b61549481601f5461589590919063ffffffff16565b601f819055505b6154c86017546154ba601c548560000154615a9490919063ffffffff16565b615aaa90919063ffffffff16565b826002018190555050505b60018081905550565b6154e461588d565b73ffffffffffffffffffffffffffffffffffffffff16615502613726565b73ffffffffffffffffffffffffffffffffffffffff1614615558576040517f08c379a000000000000000000000000000000000000000000000000000000000815260040161554f90617651565b60405180910390fd5b600073ffffffffffffffffffffffffffffffffffffffff168173ffffffffffffffffffffffffffffffffffffffff1614156155c8576040517f08c379a00000000000000000000000000000000000000000000000000000000081526004016155bf90617571565b60405180910390fd5b6155d18161623e565b50565b600080602160008473ffffffffffffffffffffffffffffffffffffffff1673ffffffffffffffffffffffffffffffffffffffff16815260200190815260200160002090506009544311801561562c57506000601d5414155b801561563a57506000600954115b156156f557600061564d6009544361638b565b9050600061566660085483615a9490919063ffffffff16565b905060006156a7615696601d5461568860165486615a9490919063ffffffff16565b615aaa90919063ffffffff16565b601b5461622890919063ffffffff16565b90506156ea84600101546156dc6016546156ce858960000154615a9490919063ffffffff16565b615aaa90919063ffffffff16565b61589590919063ffffffff16565b94505050505061573c565b615738816001015461572a60165461571c601b548660000154615a9490919063ffffffff16565b615aaa90919063ffffffff16565b61589590919063ffffffff16565b9150505b919050565b61574961588d565b73ffffffffffffffffffffffffffffffffffffffff16615767613726565b73ffffffffffffffffffffffffffffffffffffffff16146157bd576040517f08c379a00000000000000000000000000000000000000000000000000000000081526004016157b490617651565b60405180910390fd5b600060065414615802576040517f08c379a00000000000000000000000000000000000000000000000000000000081526004016157f9906174f1565b60405180910390fd5b601e811015615846576040517f08c379a000000000000000000000000000000000000000000000000000000000815260040161583d90617591565b60405180910390fd5b806003819055507f91abcc2d6823e3a3f11d31b208dd3065d2c6a791f1c7c9fe96a42ce12897eac58160405161587c9190617871565b60405180910390a150565b600a5481565b600033905090565b600081836158a39190617d2d565b905092915050565b6000601d541180156158c95750601a60149054906101000a900460ff165b156159e85760006158d8614a5d565b90506000601860009054906101000a900473ffffffffffffffffffffffffffffffffffffffff1673ffffffffffffffffffffffffffffffffffffffff166370a08231306040518263ffffffff1660e01b815260040161593791906173f5565b60206040518083038186803b15801561594f57600080fd5b505afa158015615963573d6000803e3d6000fd5b505050506040513d601f19601f820116820180604052508101906159879190616dbf565b90506159d86159c7826159b96017546159ab601f548861589590919063ffffffff16565b615a9490919063ffffffff16565b615aaa90919063ffffffff16565b601c5461622890919063ffffffff16565b601c8190555081601f8190555050505b600954431115806159fb57506000600954145b15615a0557615a92565b6000601d541415615a1c5743600981905550615a92565b6000615a2a6009544361638b565b90506000615a4360085483615a9490919063ffffffff16565b9050615a82615a71601d54615a6360165485615a9490919063ffffffff16565b615aaa90919063ffffffff16565b601b5461622890919063ffffffff16565b601b819055504360098190555050505b565b60008183615aa29190617cd3565b905092915050565b60008183615ab89190617b31565b905092915050565b615b418363a9059cbb60e01b8484604051602401615adf929190617470565b604051602081830303815290604052907bffffffffffffffffffffffffffffffffffffffffffffffffffffffff19166020820180517bffffffffffffffffffffffffffffffffffffffffffffffffffffffff83818316178352505050506163e0565b505050565b615bb6600b60009054906101000a900473ffffffffffffffffffffffffffffffffffffffff166000601960009054906101000a900473ffffffffffffffffffffffffffffffffffffffff1673ffffffffffffffffffffffffffffffffffffffff166164a79092919063ffffffff16565b615c45600b60009054906101000a900473ffffffffffffffffffffffffffffffffffffffff167fffffffffffffffffffffffffffffffffffffffffffffffffffffffffffffffff601960009054906101000a900473ffffffffffffffffffffffffffffffffffffffff1673ffffffffffffffffffffffffffffffffffffffff166166059092919063ffffffff16565b600073ffffffffffffffffffffffffffffffffffffffff16601a60009054906101000a900473ffffffffffffffffffffffffffffffffffffffff1673ffffffffffffffffffffffffffffffffffffffff161415615e01576000600b60009054906101000a900473ffffffffffffffffffffffffffffffffffffffff1673ffffffffffffffffffffffffffffffffffffffff1663ad5c46486040518163ffffffff1660e01b815260040160206040518083038186803b158015615d0657600080fd5b505afa158015615d1a573d6000803e3d6000fd5b505050506040513d601f19601f82011682018060405250810190615d3e9190616b80565b9050615d8e600b60009054906101000a900473ffffffffffffffffffffffffffffffffffffffff1660008373ffffffffffffffffffffffffffffffffffffffff166164a79092919063ffffffff16565b615dfb600b60009054906101000a900473ffffffffffffffffffffffffffffffffffffffff167fffffffffffffffffffffffffffffffffffffffffffffffffffffffffffffffff8373ffffffffffffffffffffffffffffffffffffffff166166059092919063ffffffff16565b50615f01565b615e71600b60009054906101000a900473ffffffffffffffffffffffffffffffffffffffff166000601a60009054906101000a900473ffffffffffffffffffffffffffffffffffffffff1673ffffffffffffffffffffffffffffffffffffffff166164a79092919063ffffffff16565b615f00600b60009054906101000a900473ffffffffffffffffffffffffffffffffffffffff167fffffffffffffffffffffffffffffffffffffffffffffffffffffffffffffffff601a60009054906101000a900473ffffffffffffffffffffffffffffffffffffffff1673ffffffffffffffffffffffffffffffffffffffff166166059092919063ffffffff16565b5b565b601554341015615f48576040517f08c379a0000000000000000000000000000000000000000000000000000000008152600401615f3f906176f1565b60405180910390fd5b601460009054906101000a900473ffffffffffffffffffffffffffffffffffffffff1673ffffffffffffffffffffffffffffffffffffffff166108fc6015549081150290604051600060405180830381858888f19350505050158015615fb2573d6000803e3d6000fd5b50601554341115616019573373ffffffffffffffffffffffffffffffffffffffff166108fc615fec6015543461589590919063ffffffff16565b9081150290604051600060405180830381858888f19350505050158015616017573d6000803e3d6000fd5b505b565b6000600b60009054906101000a900473ffffffffffffffffffffffffffffffffffffffff1673ffffffffffffffffffffffffffffffffffffffff1663d06ca61f85856040518363ffffffff1660e01b815260040161607a92919061788c565b60006040518083038186803b15801561609257600080fd5b505afa1580156160a6573d6000803e3d6000fd5b505050506040513d6000823e3d601f19601f820116820180604052508101906160cf9190616be5565b90506000816160e96001845161589590919063ffffffff16565b81518110616120577f4e487b7100000000000000000000000000000000000000000000000000000000600052603260045260246000fd5b60200260200101519050600b60009054906101000a900473ffffffffffffffffffffffffffffffffffffffff1673ffffffffffffffffffffffffffffffffffffffff166338ed1739866161926103e8616184600a5487615a9490919063ffffffff16565b615aaa90919063ffffffff16565b87876161a96102584261622890919063ffffffff16565b6040518663ffffffff1660e01b81526004016161c99594939291906178e5565b600060405180830381600087803b1580156161e357600080fd5b505af11580156161f7573d6000803e3d6000fd5b505050506040513d6000823e3d601f19601f820116820180604052508101906162209190616be5565b505050505050565b600081836162369190617adb565b905092915050565b60008060009054906101000a900473ffffffffffffffffffffffffffffffffffffffff169050816000806101000a81548173ffffffffffffffffffffffffffffffffffffffff021916908373ffffffffffffffffffffffffffffffffffffffff1602179055508173ffffffffffffffffffffffffffffffffffffffff168173ffffffffffffffffffffffffffffffffffffffff167f8be0079c531659141344cd1fd0a4f28419497f9722a3daafe3b4186f6b6457e060405160405180910390a35050565b616385846323b872dd60e01b85858560405160240161632393929190617439565b604051602081830303815290604052907bffffffffffffffffffffffffffffffffffffffffffffffffffffffff19166020820180517bffffffffffffffffffffffffffffffffffffffffffffffffffffffff83818316178352505050506163e0565b50505050565b600060075482116163b0576163a9838361589590919063ffffffff16565b90506163da565b60075483106163c257600090506163da565b6163d78360075461589590919063ffffffff16565b90505b92915050565b6000616442826040518060400160405280602081526020017f5361666545524332303a206c6f772d6c6576656c2063616c6c206661696c65648152508573ffffffffffffffffffffffffffffffffffffffff166167269092919063ffffffff16565b90506000815111156164a257808060200190518101906164629190616c26565b6164a1576040517f08c379a000000000000000000000000000000000000000000000000000000000815260040161649890617791565b60405180910390fd5b5b505050565b6000811480616540575060008373ffffffffffffffffffffffffffffffffffffffff1663dd62ed3e30856040518363ffffffff1660e01b81526004016164ee929190617410565b60206040518083038186803b15801561650657600080fd5b505afa15801561651a573d6000803e3d6000fd5b505050506040513d601f19601f8201168201806040525081019061653e9190616dbf565b145b61657f576040517f08c379a0000000000000000000000000000000000000000000000000000000008152600401616576906177f1565b60405180910390fd5b6166008363095ea7b360e01b848460405160240161659e929190617470565b604051602081830303815290604052907bffffffffffffffffffffffffffffffffffffffffffffffffffffffff19166020820180517bffffffffffffffffffffffffffffffffffffffffffffffffffffffff83818316178352505050506163e0565b505050565b6000818473ffffffffffffffffffffffffffffffffffffffff1663dd62ed3e30866040518363ffffffff1660e01b8152600401616643929190617410565b60206040518083038186803b15801561665b57600080fd5b505afa15801561666f573d6000803e3d6000fd5b505050506040513d601f19601f820116820180604052508101906166939190616dbf565b61669d9190617adb565b90506167208463095ea7b360e01b85846040516024016166be929190617470565b604051602081830303815290604052907bffffffffffffffffffffffffffffffffffffffffffffffffffffffff19166020820180517bffffffffffffffffffffffffffffffffffffffffffffffffffffffff83818316178352505050506163e0565b50505050565b6060616735848460008561673e565b90509392505050565b606082471015616783576040517f08c379a000000000000000000000000000000000000000000000000000000000815260040161677a906175f1565b60405180910390fd5b61678c85616852565b6167cb576040517f08c379a00000000000000000000000000000000000000000000000000000000081526004016167c290617751565b60405180910390fd5b6000808673ffffffffffffffffffffffffffffffffffffffff1685876040516167f491906173de565b60006040518083038185875af1925050503d8060008114616831576040519150601f19603f3d011682016040523d82523d6000602084013e616836565b606091505b5091509150616846828286616875565b92505050949350505050565b6000808273ffffffffffffffffffffffffffffffffffffffff163b119050919050565b60608315616885578290506168d5565b6000835111156168985782518084602001fd5b816040517f08c379a00000000000000000000000000000000000000000000000000000000081526004016168cc91906174cf565b60405180910390fd5b9392505050565b828054828255906000526020600020908101928215616955579160200282015b828111156169545782518260006101000a81548173ffffffffffffffffffffffffffffffffffffffff021916908373ffffffffffffffffffffffffffffffffffffffff160217905550916020019190600101906168fc565b5b5090506169629190616966565b5090565b5b8082111561697f576000816000905550600101616967565b5090565b600061699661699184617a18565b6179f3565b905080838252602082019050828560208602820111156169b557600080fd5b60005b858110156169e557816169cb8882616a5b565b8452602084019350602083019250506001810190506169b8565b5050509392505050565b6000616a026169fd84617a44565b6179f3565b90508083825260208201905082856020860282011115616a2157600080fd5b60005b85811015616a515781616a378882616b2d565b845260208401935060208301925050600181019050616a24565b5050509392505050565b600081359050616a6a81618435565b92915050565b600081519050616a7f81618435565b92915050565b600082601f830112616a9657600080fd5b8135616aa6848260208601616983565b91505092915050565b600082601f830112616ac057600080fd5b8151616ad08482602086016169ef565b91505092915050565b600081359050616ae88161844c565b92915050565b600081519050616afd8161844c565b92915050565b600081359050616b1281618463565b92915050565b600081359050616b278161847a565b92915050565b600081519050616b3c8161847a565b92915050565b600081519050616b5181618491565b92915050565b600060208284031215616b6957600080fd5b6000616b7784828501616a5b565b91505092915050565b600060208284031215616b9257600080fd5b6000616ba084828501616a70565b91505092915050565b60008060408385031215616bbc57600080fd5b6000616bca85828601616a5b565b9250506020616bdb85828601616b18565b9150509250929050565b600060208284031215616bf757600080fd5b600082015167ffffffffffffffff811115616c1157600080fd5b616c1d84828501616aaf565b91505092915050565b600060208284031215616c3857600080fd5b6000616c4684828501616aee565b91505092915050565b60008060408385031215616c6257600080fd5b6000616c7085828601616ad9565b9250506020616c8185828601616b18565b9150509250929050565b6000806000806000806000806000806101408b8d031215616cab57600080fd5b6000616cb98d828e01616b03565b9a50506020616cca8d828e01616b03565b9950506040616cdb8d828e01616a5b565b9850506060616cec8d828e01616b18565b9750506080616cfd8d828e01616b18565b96505060a0616d0e8d828e01616b18565b95505060c0616d1f8d828e01616a5b565b94505060e08b013567ffffffffffffffff811115616d3c57600080fd5b616d488d828e01616a85565b9350506101008b013567ffffffffffffffff811115616d6657600080fd5b616d728d828e01616a85565b925050610120616d848d828e01616ad9565b9150509295989b9194979a5092959850565b600060208284031215616da857600080fd5b6000616db684828501616b18565b91505092915050565b600060208284031215616dd157600080fd5b6000616ddf84828501616b2d565b91505092915050565b600080600080600080600060e0888a031215616e0357600080fd5b6000616e118a828b01616b18565b9750506020616e228a828b01616b18565b9650506040616e338a828b01616b18565b9550506060616e448a828b01616b18565b9450506080616e558a828b01616a5b565b93505060a088013567ffffffffffffffff811115616e7257600080fd5b616e7e8a828b01616a85565b92505060c088013567ffffffffffffffff811115616e9b57600080fd5b616ea78a828b01616a85565b91505092959891949750929550565b600060208284031215616ec857600080fd5b6000616ed684828501616b42565b91505092915050565b6000616eeb8383616ef7565b60208301905092915050565b616f0081617d61565b82525050565b616f0f81617d61565b82525050565b6000616f2082617a80565b616f2a8185617aae565b9350616f3583617a70565b8060005b83811015616f66578151616f4d8882616edf565b9750616f5883617aa1565b925050600181019050616f39565b5085935050505092915050565b616f7c81617d73565b82525050565b6000616f8d82617a8b565b616f978185617abf565b9350616fa7818560208601617dec565b80840191505092915050565b616fbc81617dc8565b82525050565b6000616fcd82617a96565b616fd78185617aca565b9350616fe7818560208601617dec565b616ff081617edd565b840191505092915050565b6000617008601883617aca565b915061701382617efb565b602082019050919050565b600061702b601383617aca565b915061703682617f24565b602082019050919050565b600061704e600f83617aca565b915061705982617f4d565b602082019050919050565b6000617071601483617aca565b915061707c82617f76565b602082019050919050565b6000617094602683617aca565b915061709f82617f9f565b604082019050919050565b60006170b7601383617aca565b91506170c282617fee565b602082019050919050565b60006170da601483617aca565b91506170e582618017565b602082019050919050565b60006170fd601883617aca565b915061710882618040565b602082019050919050565b6000617120602683617aca565b915061712b82618069565b604082019050919050565b6000617143601983617aca565b915061714e826180b8565b602082019050919050565b6000617166600f83617aca565b9150617171826180e1565b602082019050919050565b6000617189602083617aca565b91506171948261810a565b602082019050919050565b60006171ac601f83617aca565b91506171b782618133565b602082019050919050565b60006171cf600b83617aca565b91506171da8261815c565b602082019050919050565b60006171f2601883617aca565b91506171fd82618185565b602082019050919050565b6000617215601783617aca565b9150617220826181ae565b602082019050919050565b6000617238602b83617aca565b9150617243826181d7565b604082019050919050565b600061725b601683617aca565b915061726682618226565b602082019050919050565b600061727e601b83617aca565b91506172898261824f565b602082019050919050565b60006172a1601d83617aca565b91506172ac82618278565b602082019050919050565b60006172c4601383617aca565b91506172cf826182a1565b602082019050919050565b60006172e7602a83617aca565b91506172f2826182ca565b604082019050919050565b600061730a601f83617aca565b915061731582618319565b602082019050919050565b600061732d600b83617aca565b915061733882618342565b602082019050919050565b6000617350603683617aca565b915061735b8261836b565b604082019050919050565b6000617373600e83617aca565b915061737e826183ba565b602082019050919050565b6000617396601683617aca565b91506173a1826183e3565b602082019050919050565b60006173b9601a83617aca565b91506173c48261840c565b602082019050919050565b6173d881617db1565b82525050565b60006173ea8284616f82565b915081905092915050565b600060208201905061740a6000830184616f06565b92915050565b60006040820190506174256000830185616f06565b6174326020830184616f06565b9392505050565b600060608201905061744e6000830186616f06565b61745b6020830185616f06565b61746860408301846173cf565b949350505050565b60006040820190506174856000830185616f06565b61749260208301846173cf565b9392505050565b60006020820190506174ae6000830184616f73565b92915050565b60006020820190506174c96000830184616fb3565b92915050565b600060208201905081810360008301526174e98184616fc2565b905092915050565b6000602082019050818103600083015261750a81616ffb565b9050919050565b6000602082019050818103600083015261752a8161701e565b9050919050565b6000602082019050818103600083015261754a81617041565b9050919050565b6000602082019050818103600083015261756a81617064565b9050919050565b6000602082019050818103600083015261758a81617087565b9050919050565b600060208201905081810360008301526175aa816170aa565b9050919050565b600060208201905081810360008301526175ca816170cd565b9050919050565b600060208201905081810360008301526175ea816170f0565b9050919050565b6000602082019050818103600083015261760a81617113565b9050919050565b6000602082019050818103600083015261762a81617136565b9050919050565b6000602082019050818103600083015261764a81617159565b9050919050565b6000602082019050818103600083015261766a8161717c565b9050919050565b6000602082019050818103600083015261768a8161719f565b9050919050565b600060208201905081810360008301526176aa816171c2565b9050919050565b600060208201905081810360008301526176ca816171e5565b9050919050565b600060208201905081810360008301526176ea81617208565b9050919050565b6000602082019050818103600083015261770a8161722b565b9050919050565b6000602082019050818103600083015261772a8161724e565b9050919050565b6000602082019050818103600083015261774a81617271565b9050919050565b6000602082019050818103600083015261776a81617294565b9050919050565b6000602082019050818103600083015261778a816172b7565b9050919050565b600060208201905081810360008301526177aa816172da565b9050919050565b600060208201905081810360008301526177ca816172fd565b9050919050565b600060208201905081810360008301526177ea81617320565b9050919050565b6000602082019050818103600083015261780a81617343565b9050919050565b6000602082019050818103600083015261782a81617366565b9050919050565b6000602082019050818103600083015261784a81617389565b9050919050565b6000602082019050818103600083015261786a816173ac565b9050919050565b600060208201905061788660008301846173cf565b92915050565b60006040820190506178a160008301856173cf565b81810360208301526178b38184616f15565b90509392505050565b60006040820190506178d160008301856173cf565b6178de60208301846173cf565b9392505050565b600060a0820190506178fa60008301886173cf565b61790760208301876173cf565b81810360408301526179198186616f15565b90506179286060830185616f06565b61793560808301846173cf565b9695505050505050565b600060608201905061795460008301866173cf565b61796160208301856173cf565b61796e60408301846173cf565b949350505050565b600060e08201905061798b600083018a6173cf565b61799860208301896173cf565b6179a560408301886173cf565b6179b260608301876173cf565b6179bf6080830186616f06565b81810360a08301526179d18185616f15565b905081810360c08301526179e58184616f15565b905098975050505050505050565b60006179fd617a0e565b9050617a098282617e1f565b919050565b6000604051905090565b600067ffffffffffffffff821115617a3357617a32617eae565b5b602082029050602081019050919050565b600067ffffffffffffffff821115617a5f57617a5e617eae565b5b602082029050602081019050919050565b6000819050602082019050919050565b600081519050919050565b600081519050919050565b600081519050919050565b6000602082019050919050565b600082825260208201905092915050565b600081905092915050565b600082825260208201905092915050565b6000617ae682617db1565b9150617af183617db1565b9250827fffffffffffffffffffffffffffffffffffffffffffffffffffffffffffffffff03821115617b2657617b25617e50565b5b828201905092915050565b6000617b3c82617db1565b9150617b4783617db1565b925082617b5757617b56617e7f565b5b828204905092915050565b6000808291508390505b6001851115617bac57808604811115617b8857617b87617e50565b5b6001851615617b975780820291505b8081029050617ba585617eee565b9450617b6c565b94509492505050565b6000617bc082617db1565b9150617bcb83617db1565b9250617bf87fffffffffffffffffffffffffffffffffffffffffffffffffffffffffffffffff8484617c00565b905092915050565b600082617c105760019050617ccc565b81617c1e5760009050617ccc565b8160018114617c345760028114617c3e57617c6d565b6001915050617ccc565b60ff841115617c5057617c4f617e50565b5b8360020a915084821115617c6757617c66617e50565b5b50617ccc565b5060208310610133831016604e8410600b8410161715617ca25782820a905083811115617c9d57617c9c617e50565b5b617ccc565b617caf8484846001617b62565b92509050818404811115617cc657617cc5617e50565b5b81810290505b9392505050565b6000617cde82617db1565b9150617ce983617db1565b9250817fffffffffffffffffffffffffffffffffffffffffffffffffffffffffffffffff0483118215151615617d2257617d21617e50565b5b828202905092915050565b6000617d3882617db1565b9150617d4383617db1565b925082821015617d5657617d55617e50565b5b828203905092915050565b6000617d6c82617d91565b9050919050565b60008115159050919050565b6000617d8a82617d61565b9050919050565b600073ffffffffffffffffffffffffffffffffffffffff82169050919050565b6000819050919050565b600060ff82169050919050565b6000617dd382617dda565b9050919050565b6000617de582617d91565b9050919050565b60005b83811015617e0a578082015181840152602081019050617def565b83811115617e19576000848401525b50505050565b617e2882617edd565b810181811067ffffffffffffffff82111715617e4757617e46617eae565b5b80604052505050565b7f4e487b7100000000000000000000000000000000000000000000000000000000600052601160045260246000fd5b7f4e487b7100000000000000000000000000000000000000000000000000000000600052601260045260246000fd5b7f4e487b7100000000000000000000000000000000000000000000000000000000600052604160045260246000fd5b6000601f19601f8301169050919050565b60008160011c9050919050565b7f506f6f6c2077617320616c726561647920737461727465640000000000000000600082015250565b7f496e76616c6964206465706f7369742066656500000000000000000000000000600082015250565b7f496e76616c696420616464726573730000000000000000000000000000000000600082015250565b7f496e76616c696420776974686472617720666565000000000000000000000000600082015250565b7f4f776e61626c653a206e6577206f776e657220697320746865207a65726f206160008201527f6464726573730000000000000000000000000000000000000000000000000000602082015250565b7f6c6f776572206c696d6974207265616368656400000000000000000000000000600082015250565b7f496e73756666696369656e742062616c616e6365000000000000000000000000600082015250565b7f5f736c697070616765466163746f7220746f6f20686967680000000000000000600082015250565b7f416464726573733a20696e73756666696369656e742062616c616e636520666f60008201527f722063616c6c0000000000000000000000000000000000000000000000000000602082015250565b7f73657453657276696365496e666f3a20464f5242494444454e00000000000000600082015250565b7f506f6f6c2069732072756e6e696e670000000000000000000000000000000000600082015250565b7f4f776e61626c653a2063616c6c6572206973206e6f7420746865206f776e6572600082015250565b7f416d6f756e742073686f756c642062652067726561746f72207468616e203000600082015250565b7f4d75737420626520736574000000000000000000000000000000000000000000600082015250565b7f4e6577206c696d6974206d757374206265206869676865720000000000000000600082015250565b7f5573657220616d6f756e742061626f7665206c696d6974000000000000000000600082015250565b7f73686f756c642070617920736d616c6c2067617320746f20636f6d706f756e6460008201527f206f722068617276657374000000000000000000000000000000000000000000602082015250565b7f43616e6e6f742062652072657761726420746f6b656e00000000000000000000600082015250565b7f416d6f756e7420746f20776974686472617720746f6f20686967680000000000600082015250565b7f416464726573733a2063616c6c20746f206e6f6e2d636f6e7472616374000000600082015250565b7f416c726561647920696e697469616c697a656400000000000000000000000000600082015250565b7f5361666545524332303a204552433230206f7065726174696f6e20646964206e60008201527f6f74207375636365656400000000000000000000000000000000000000000000602082015250565b7f5265656e7472616e637947756172643a207265656e7472616e742063616c6c00600082015250565b7f4e6f7420666163746f7279000000000000000000000000000000000000000000600082015250565b7f5361666545524332303a20617070726f76652066726f6d206e6f6e2d7a65726f60008201527f20746f206e6f6e2d7a65726f20616c6c6f77616e636500000000000000000000602082015250565b7f4e6f207265666c656374696f6e73000000000000000000000000000000000000600082015250565b7f4d75737420626520696e666572696f7220746f20333000000000000000000000600082015250565b7f496e73756666696369656e742072657761726420746f6b656e73000000000000600082015250565b61843e81617d61565b811461844957600080fd5b50565b61845581617d73565b811461846057600080fd5b50565b61846c81617d7f565b811461847757600080fd5b50565b61848381617db1565b811461848e57600080fd5b50565b61849a81617dbb565b81146184a557600080fd5b5056fea26469706673582212200306cf39f91bba86cf92a69c7ccf4c53fcaab4e5d8bc00484af245e65f07537164736f6c63430008020033",
			"opcodes": "PUSH1 0x80 PUSH1 0x40 MSTORE PUSH2 0x16D PUSH1 0x3 SSTORE PUSH2 0x3B6 PUSH1 0xA SSTORE PUSH2 0x1D4C PUSH1 0x10 SSTORE PUSH2 0x9C4 PUSH1 0x11 SSTORE PUSH2 0xDEAD PUSH1 0x13 PUSH1 0x0 PUSH2 0x100 EXP DUP2 SLOAD DUP2 PUSH20 0xFFFFFFFFFFFFFFFFFFFFFFFFFFFFFFFFFFFFFFFF MUL NOT AND SWAP1 DUP4 PUSH20 0xFFFFFFFFFFFFFFFFFFFFFFFFFFFFFFFFFFFFFFFF AND MUL OR SWAP1 SSTORE POP PUSH20 0xE1F1DD010BBC2860F81C8F90EA4E38DB949BB16F PUSH1 0x14 PUSH1 0x0 PUSH2 0x100 EXP DUP2 SLOAD DUP2 PUSH20 0xFFFFFFFFFFFFFFFFFFFFFFFFFFFFFFFFFFFFFFFF MUL NOT AND SWAP1 DUP4 PUSH20 0xFFFFFFFFFFFFFFFFFFFFFFFFFFFFFFFFFFFFFFFF AND MUL OR SWAP1 SSTORE POP PUSH7 0x1C6BF52634000 PUSH1 0x15 SSTORE CALLVALUE DUP1 ISZERO PUSH3 0xCC JUMPI PUSH1 0x0 DUP1 REVERT JUMPDEST POP PUSH3 0xED PUSH3 0xE1 PUSH3 0x13B PUSH1 0x20 SHL PUSH1 0x20 SHR JUMP JUMPDEST PUSH3 0x143 PUSH1 0x20 SHL PUSH1 0x20 SHR JUMP JUMPDEST PUSH1 0x1 DUP1 DUP2 SWAP1 SSTORE POP CALLER PUSH1 0x2 PUSH1 0x0 PUSH2 0x100 EXP DUP2 SLOAD DUP2 PUSH20 0xFFFFFFFFFFFFFFFFFFFFFFFFFFFFFFFFFFFFFFFF MUL NOT AND SWAP1 DUP4 PUSH20 0xFFFFFFFFFFFFFFFFFFFFFFFFFFFFFFFFFFFFFFFF AND MUL OR SWAP1 SSTORE POP PUSH3 0x207 JUMP JUMPDEST PUSH1 0x0 CALLER SWAP1 POP SWAP1 JUMP JUMPDEST PUSH1 0x0 DUP1 PUSH1 0x0 SWAP1 SLOAD SWAP1 PUSH2 0x100 EXP SWAP1 DIV PUSH20 0xFFFFFFFFFFFFFFFFFFFFFFFFFFFFFFFFFFFFFFFF AND SWAP1 POP DUP2 PUSH1 0x0 DUP1 PUSH2 0x100 EXP DUP2 SLOAD DUP2 PUSH20 0xFFFFFFFFFFFFFFFFFFFFFFFFFFFFFFFFFFFFFFFF MUL NOT AND SWAP1 DUP4 PUSH20 0xFFFFFFFFFFFFFFFFFFFFFFFFFFFFFFFFFFFFFFFF AND MUL OR SWAP1 SSTORE POP DUP2 PUSH20 0xFFFFFFFFFFFFFFFFFFFFFFFFFFFFFFFFFFFFFFFF AND DUP2 PUSH20 0xFFFFFFFFFFFFFFFFFFFFFFFFFFFFFFFFFFFFFFFF AND PUSH32 0x8BE0079C531659141344CD1FD0A4F28419497F9722A3DAAFE3B4186F6B6457E0 PUSH1 0x40 MLOAD PUSH1 0x40 MLOAD DUP1 SWAP2 SUB SWAP1 LOG3 POP POP JUMP JUMPDEST PUSH2 0x84DE DUP1 PUSH3 0x217 PUSH1 0x0 CODECOPY PUSH1 0x0 RETURN INVALID PUSH1 0x80 PUSH1 0x40 MSTORE PUSH1 0x4 CALLDATASIZE LT PUSH2 0x3B0 JUMPI PUSH1 0x0 CALLDATALOAD PUSH1 0xE0 SHR DUP1 PUSH4 0x88BBB0C1 GT PUSH2 0x1E7 JUMPI DUP1 PUSH4 0xB88A802F GT PUSH2 0x10D JUMPI DUP1 PUSH4 0xDB2E21BC GT PUSH2 0xA0 JUMPI DUP1 PUSH4 0xF2FDE38B GT PUSH2 0x6F JUMPI DUP1 PUSH4 0xF2FDE38B EQ PUSH2 0xCB0 JUMPI DUP1 PUSH4 0xF40F0F52 EQ PUSH2 0xCD9 JUMPI DUP1 PUSH4 0xF6BE71D1 EQ PUSH2 0xD16 JUMPI DUP1 PUSH4 0xFFBD3B1F EQ PUSH2 0xD3F JUMPI PUSH2 0x3B7 JUMP JUMPDEST DUP1 PUSH4 0xDB2E21BC EQ PUSH2 0xC39 JUMPI DUP1 PUSH4 0xE4ECEFF0 EQ PUSH2 0xC50 JUMPI DUP1 PUSH4 0xE941FA78 EQ PUSH2 0xC7B JUMPI DUP1 PUSH4 0xF0FC6BCA EQ PUSH2 0xCA6 JUMPI PUSH2 0x3B7 JUMP JUMPDEST DUP1 PUSH4 0xC7926458 GT PUSH2 0xDC JUMPI DUP1 PUSH4 0xC7926458 EQ PUSH2 0xB7D JUMPI DUP1 PUSH4 0xCCD34CD5 EQ PUSH2 0xBBA JUMPI DUP1 PUSH4 0xCE8B6061 EQ PUSH2 0xBE5 JUMPI DUP1 PUSH4 0xD8E31608 EQ PUSH2 0xC0E JUMPI PUSH2 0x3B7 JUMP JUMPDEST DUP1 PUSH4 0xB88A802F EQ PUSH2 0xAE0 JUMPI DUP1 PUSH4 0xBC063E1A EQ PUSH2 0xAEA JUMPI DUP1 PUSH4 0xBD01AC4E EQ PUSH2 0xB15 JUMPI DUP1 PUSH4 0xC1E22A65 EQ PUSH2 0xB40 JUMPI PUSH2 0x3B7 JUMP JUMPDEST DUP1 PUSH4 0x9F94E272 GT PUSH2 0x185 JUMPI DUP1 PUSH4 0xB1722D9E GT PUSH2 0x154 JUMPI DUP1 PUSH4 0xB1722D9E EQ PUSH2 0xA38 JUMPI DUP1 PUSH4 0xB6B55F25 EQ PUSH2 0xA61 JUMPI DUP1 PUSH4 0xB74CD242 EQ PUSH2 0xA8A JUMPI DUP1 PUSH4 0xB77E7DA0 EQ PUSH2 0xAB5 JUMPI PUSH2 0x3B7 JUMP JUMPDEST DUP1 PUSH4 0x9F94E272 EQ PUSH2 0x98E JUMPI DUP1 PUSH4 0xA0B40905 EQ PUSH2 0x9B9 JUMPI DUP1 PUSH4 0xA5BFD0F2 EQ PUSH2 0x9E2 JUMPI DUP1 PUSH4 0xA9F8D181 EQ PUSH2 0xA0D JUMPI PUSH2 0x3B7 JUMP JUMPDEST DUP1 PUSH4 0x8DA5CB5B GT PUSH2 0x1C1 JUMPI DUP1 PUSH4 0x8DA5CB5B EQ PUSH2 0x8E2 JUMPI DUP1 PUSH4 0x8F662915 EQ PUSH2 0x90D JUMPI DUP1 PUSH4 0x92B46E5B EQ PUSH2 0x938 JUMPI DUP1 PUSH4 0x92E8990E EQ PUSH2 0x963 JUMPI PUSH2 0x3B7 JUMP JUMPDEST DUP1 PUSH4 0x88BBB0C1 EQ PUSH2 0x863 JUMPI DUP1 PUSH4 0x8AE39CAC EQ PUSH2 0x88E JUMPI DUP1 PUSH4 0x8BDF67F2 EQ PUSH2 0x8B9 JUMPI PUSH2 0x3B7 JUMP JUMPDEST DUP1 PUSH4 0x48CD4CB1 GT PUSH2 0x2D7 JUMPI DUP1 PUSH4 0x72F702F3 GT PUSH2 0x26A JUMPI DUP1 PUSH4 0x80DC0672 GT PUSH2 0x239 JUMPI DUP1 PUSH4 0x80DC0672 EQ PUSH2 0x7CD JUMPI DUP1 PUSH4 0x817B1CD2 EQ PUSH2 0x7E4 JUMPI DUP1 PUSH4 0x81B61948 EQ PUSH2 0x80F JUMPI DUP1 PUSH4 0x87788782 EQ PUSH2 0x838 JUMPI PUSH2 0x3B7 JUMP JUMPDEST DUP1 PUSH4 0x72F702F3 EQ PUSH2 0x737 JUMPI DUP1 PUSH4 0x746C8AE1 EQ PUSH2 0x762 JUMPI DUP1 PUSH4 0x783478AD EQ PUSH2 0x779 JUMPI DUP1 PUSH4 0x7972271B EQ PUSH2 0x7A4 JUMPI PUSH2 0x3B7 JUMP JUMPDEST DUP1 PUSH4 0x693A090B GT PUSH2 0x2A6 JUMPI DUP1 PUSH4 0x693A090B EQ PUSH2 0x6C0 JUMPI DUP1 PUSH4 0x6D971A10 EQ PUSH2 0x6EB JUMPI DUP1 PUSH4 0x6E707B73 EQ PUSH2 0x6F5 JUMPI DUP1 PUSH4 0x715018A6 EQ PUSH2 0x720 JUMPI PUSH2 0x3B7 JUMP JUMPDEST DUP1 PUSH4 0x48CD4CB1 EQ PUSH2 0x635 JUMPI DUP1 PUSH4 0x4DE8FF21 EQ PUSH2 0x660 JUMPI DUP1 PUSH4 0x66FE9F8A EQ PUSH2 0x66A JUMPI DUP1 PUSH4 0x67A52793 EQ PUSH2 0x695 JUMPI PUSH2 0x3B7 JUMP JUMPDEST DUP1 PUSH4 0x1AED6553 GT PUSH2 0x34F JUMPI DUP1 PUSH4 0x3505B09F GT PUSH2 0x31E JUMPI DUP1 PUSH4 0x3505B09F EQ PUSH2 0x5B3 JUMPI DUP1 PUSH4 0x392E53CD EQ PUSH2 0x5CA JUMPI DUP1 PUSH4 0x3F138D4B EQ PUSH2 0x5F5 JUMPI DUP1 PUSH4 0x4641257D EQ PUSH2 0x61E JUMPI PUSH2 0x3B7 JUMP JUMPDEST DUP1 PUSH4 0x1AED6553 EQ PUSH2 0x50B JUMPI DUP1 PUSH4 0x1CD348C0 EQ PUSH2 0x536 JUMPI DUP1 PUSH4 0x2E1A7D4D EQ PUSH2 0x561 JUMPI DUP1 PUSH4 0x3279BEAB EQ PUSH2 0x58A JUMPI PUSH2 0x3B7 JUMP JUMPDEST DUP1 PUSH4 0x1582358E GT PUSH2 0x38B JUMPI DUP1 PUSH4 0x1582358E EQ PUSH2 0x439 JUMPI DUP1 PUSH4 0x167D2DBE EQ PUSH2 0x464 JUMPI DUP1 PUSH4 0x178A8D07 EQ PUSH2 0x4A1 JUMPI DUP1 PUSH4 0x1959A002 EQ PUSH2 0x4CC JUMPI PUSH2 0x3B7 JUMP JUMPDEST DUP1 PUSH3 0x722765 EQ PUSH2 0x3BC JUMPI DUP1 PUSH4 0x1F8A976 EQ PUSH2 0x3E5 JUMPI DUP1 PUSH4 0xFB5A6B4 EQ PUSH2 0x40E JUMPI PUSH2 0x3B7 JUMP JUMPDEST CALLDATASIZE PUSH2 0x3B7 JUMPI STOP JUMPDEST PUSH1 0x0 DUP1 REVERT JUMPDEST CALLVALUE DUP1 ISZERO PUSH2 0x3C8 JUMPI PUSH1 0x0 DUP1 REVERT JUMPDEST POP PUSH2 0x3E3 PUSH1 0x4 DUP1 CALLDATASIZE SUB DUP2 ADD SWAP1 PUSH2 0x3DE SWAP2 SWAP1 PUSH2 0x6DE8 JUMP JUMPDEST PUSH2 0xD6A JUMP JUMPDEST STOP JUMPDEST CALLVALUE DUP1 ISZERO PUSH2 0x3F1 JUMPI PUSH1 0x0 DUP1 REVERT JUMPDEST POP PUSH2 0x40C PUSH1 0x4 DUP1 CALLDATASIZE SUB DUP2 ADD SWAP1 PUSH2 0x407 SWAP2 SWAP1 PUSH2 0x6D96 JUMP JUMPDEST PUSH2 0xFA7 JUMP JUMPDEST STOP JUMPDEST CALLVALUE DUP1 ISZERO PUSH2 0x41A JUMPI PUSH1 0x0 DUP1 REVERT JUMPDEST POP PUSH2 0x423 PUSH2 0x1064 JUMP JUMPDEST PUSH1 0x40 MLOAD PUSH2 0x430 SWAP2 SWAP1 PUSH2 0x7871 JUMP JUMPDEST PUSH1 0x40 MLOAD DUP1 SWAP2 SUB SWAP1 RETURN JUMPDEST CALLVALUE DUP1 ISZERO PUSH2 0x445 JUMPI PUSH1 0x0 DUP1 REVERT JUMPDEST POP PUSH2 0x44E PUSH2 0x106A JUMP JUMPDEST PUSH1 0x40 MLOAD PUSH2 0x45B SWAP2 SWAP1 PUSH2 0x73F5 JUMP JUMPDEST PUSH1 0x40 MLOAD DUP1 SWAP2 SUB SWAP1 RETURN JUMPDEST CALLVALUE DUP1 ISZERO PUSH2 0x470 JUMPI PUSH1 0x0 DUP1 REVERT JUMPDEST POP PUSH2 0x48B PUSH1 0x4 DUP1 CALLDATASIZE SUB DUP2 ADD SWAP1 PUSH2 0x486 SWAP2 SWAP1 PUSH2 0x6D96 JUMP JUMPDEST PUSH2 0x1090 JUMP JUMPDEST PUSH1 0x40 MLOAD PUSH2 0x498 SWAP2 SWAP1 PUSH2 0x73F5 JUMP JUMPDEST PUSH1 0x40 MLOAD DUP1 SWAP2 SUB SWAP1 RETURN JUMPDEST CALLVALUE DUP1 ISZERO PUSH2 0x4AD JUMPI PUSH1 0x0 DUP1 REVERT JUMPDEST POP PUSH2 0x4B6 PUSH2 0x10CF JUMP JUMPDEST PUSH1 0x40 MLOAD PUSH2 0x4C3 SWAP2 SWAP1 PUSH2 0x7871 JUMP JUMPDEST PUSH1 0x40 MLOAD DUP1 SWAP2 SUB SWAP1 RETURN JUMPDEST CALLVALUE DUP1 ISZERO PUSH2 0x4D8 JUMPI PUSH1 0x0 DUP1 REVERT JUMPDEST POP PUSH2 0x4F3 PUSH1 0x4 DUP1 CALLDATASIZE SUB DUP2 ADD SWAP1 PUSH2 0x4EE SWAP2 SWAP1 PUSH2 0x6B57 JUMP JUMPDEST PUSH2 0x10D5 JUMP JUMPDEST PUSH1 0x40 MLOAD PUSH2 0x502 SWAP4 SWAP3 SWAP2 SWAP1 PUSH2 0x793F JUMP JUMPDEST PUSH1 0x40 MLOAD DUP1 SWAP2 SUB SWAP1 RETURN JUMPDEST CALLVALUE DUP1 ISZERO PUSH2 0x517 JUMPI PUSH1 0x0 DUP1 REVERT JUMPDEST POP PUSH2 0x520 PUSH2 0x10FF JUMP JUMPDEST PUSH1 0x40 MLOAD PUSH2 0x52D SWAP2 SWAP1 PUSH2 0x7871 JUMP JUMPDEST PUSH1 0x40 MLOAD DUP1 SWAP2 SUB SWAP1 RETURN JUMPDEST CALLVALUE DUP1 ISZERO PUSH2 0x542 JUMPI PUSH1 0x0 DUP1 REVERT JUMPDEST POP PUSH2 0x54B PUSH2 0x1105 JUMP JUMPDEST PUSH1 0x40 MLOAD PUSH2 0x558 SWAP2 SWAP1 PUSH2 0x73F5 JUMP JUMPDEST PUSH1 0x40 MLOAD DUP1 SWAP2 SUB SWAP1 RETURN JUMPDEST CALLVALUE DUP1 ISZERO PUSH2 0x56D JUMPI PUSH1 0x0 DUP1 REVERT JUMPDEST POP PUSH2 0x588 PUSH1 0x4 DUP1 CALLDATASIZE SUB DUP2 ADD SWAP1 PUSH2 0x583 SWAP2 SWAP1 PUSH2 0x6D96 JUMP JUMPDEST PUSH2 0x112B JUMP JUMPDEST STOP JUMPDEST CALLVALUE DUP1 ISZERO PUSH2 0x596 JUMPI PUSH1 0x0 DUP1 REVERT JUMPDEST POP PUSH2 0x5B1 PUSH1 0x4 DUP1 CALLDATASIZE SUB DUP2 ADD SWAP1 PUSH2 0x5AC SWAP2 SWAP1 PUSH2 0x6D96 JUMP JUMPDEST PUSH2 0x1804 JUMP JUMPDEST STOP JUMPDEST CALLVALUE DUP1 ISZERO PUSH2 0x5BF JUMPI PUSH1 0x0 DUP1 REVERT JUMPDEST POP PUSH2 0x5C8 PUSH2 0x1A29 JUMP JUMPDEST STOP JUMPDEST CALLVALUE DUP1 ISZERO PUSH2 0x5D6 JUMPI PUSH1 0x0 DUP1 REVERT JUMPDEST POP PUSH2 0x5DF PUSH2 0x1AAF JUMP JUMPDEST PUSH1 0x40 MLOAD PUSH2 0x5EC SWAP2 SWAP1 PUSH2 0x7499 JUMP JUMPDEST PUSH1 0x40 MLOAD DUP1 SWAP2 SUB SWAP1 RETURN JUMPDEST CALLVALUE DUP1 ISZERO PUSH2 0x601 JUMPI PUSH1 0x0 DUP1 REVERT JUMPDEST POP PUSH2 0x61C PUSH1 0x4 DUP1 CALLDATASIZE SUB DUP2 ADD SWAP1 PUSH2 0x617 SWAP2 SWAP1 PUSH2 0x6BA9 JUMP JUMPDEST PUSH2 0x1AC2 JUMP JUMPDEST STOP JUMPDEST CALLVALUE DUP1 ISZERO PUSH2 0x62A JUMPI PUSH1 0x0 DUP1 REVERT JUMPDEST POP PUSH2 0x633 PUSH2 0x1E17 JUMP JUMPDEST STOP JUMPDEST CALLVALUE DUP1 ISZERO PUSH2 0x641 JUMPI PUSH1 0x0 DUP1 REVERT JUMPDEST POP PUSH2 0x64A PUSH2 0x212F JUMP JUMPDEST PUSH1 0x40 MLOAD PUSH2 0x657 SWAP2 SWAP1 PUSH2 0x7871 JUMP JUMPDEST PUSH1 0x40 MLOAD DUP1 SWAP2 SUB SWAP1 RETURN JUMPDEST PUSH2 0x668 PUSH2 0x2135 JUMP JUMPDEST STOP JUMPDEST CALLVALUE DUP1 ISZERO PUSH2 0x676 JUMPI PUSH1 0x0 DUP1 REVERT JUMPDEST POP PUSH2 0x67F PUSH2 0x285C JUMP JUMPDEST PUSH1 0x40 MLOAD PUSH2 0x68C SWAP2 SWAP1 PUSH2 0x7871 JUMP JUMPDEST PUSH1 0x40 MLOAD DUP1 SWAP2 SUB SWAP1 RETURN JUMPDEST CALLVALUE DUP1 ISZERO PUSH2 0x6A1 JUMPI PUSH1 0x0 DUP1 REVERT JUMPDEST POP PUSH2 0x6AA PUSH2 0x2862 JUMP JUMPDEST PUSH1 0x40 MLOAD PUSH2 0x6B7 SWAP2 SWAP1 PUSH2 0x7871 JUMP JUMPDEST PUSH1 0x40 MLOAD DUP1 SWAP2 SUB SWAP1 RETURN JUMPDEST CALLVALUE DUP1 ISZERO PUSH2 0x6CC JUMPI PUSH1 0x0 DUP1 REVERT JUMPDEST POP PUSH2 0x6D5 PUSH2 0x2868 JUMP JUMPDEST PUSH1 0x40 MLOAD PUSH2 0x6E2 SWAP2 SWAP1 PUSH2 0x73F5 JUMP JUMPDEST PUSH1 0x40 MLOAD DUP1 SWAP2 SUB SWAP1 RETURN JUMPDEST PUSH2 0x6F3 PUSH2 0x288E JUMP JUMPDEST STOP JUMPDEST CALLVALUE DUP1 ISZERO PUSH2 0x701 JUMPI PUSH1 0x0 DUP1 REVERT JUMPDEST POP PUSH2 0x70A PUSH2 0x2E63 JUMP JUMPDEST PUSH1 0x40 MLOAD PUSH2 0x717 SWAP2 SWAP1 PUSH2 0x74B4 JUMP JUMPDEST PUSH1 0x40 MLOAD DUP1 SWAP2 SUB SWAP1 RETURN JUMPDEST CALLVALUE DUP1 ISZERO PUSH2 0x72C JUMPI PUSH1 0x0 DUP1 REVERT JUMPDEST POP PUSH2 0x735 PUSH2 0x2E89 JUMP JUMPDEST STOP JUMPDEST CALLVALUE DUP1 ISZERO PUSH2 0x743 JUMPI PUSH1 0x0 DUP1 REVERT JUMPDEST POP PUSH2 0x74C PUSH2 0x2F11 JUMP JUMPDEST PUSH1 0x40 MLOAD PUSH2 0x759 SWAP2 SWAP1 PUSH2 0x74B4 JUMP JUMPDEST PUSH1 0x40 MLOAD DUP1 SWAP2 SUB SWAP1 RETURN JUMPDEST CALLVALUE DUP1 ISZERO PUSH2 0x76E JUMPI PUSH1 0x0 DUP1 REVERT JUMPDEST POP PUSH2 0x777 PUSH2 0x2F37 JUMP JUMPDEST STOP JUMPDEST CALLVALUE DUP1 ISZERO PUSH2 0x785 JUMPI PUSH1 0x0 DUP1 REVERT JUMPDEST POP PUSH2 0x78E PUSH2 0x3084 JUMP JUMPDEST PUSH1 0x40 MLOAD PUSH2 0x79B SWAP2 SWAP1 PUSH2 0x73F5 JUMP JUMPDEST PUSH1 0x40 MLOAD DUP1 SWAP2 SUB SWAP1 RETURN JUMPDEST CALLVALUE DUP1 ISZERO PUSH2 0x7B0 JUMPI PUSH1 0x0 DUP1 REVERT JUMPDEST POP PUSH2 0x7CB PUSH1 0x4 DUP1 CALLDATASIZE SUB DUP2 ADD SWAP1 PUSH2 0x7C6 SWAP2 SWAP1 PUSH2 0x6B57 JUMP JUMPDEST PUSH2 0x30AA JUMP JUMPDEST STOP JUMPDEST CALLVALUE DUP1 ISZERO PUSH2 0x7D9 JUMPI PUSH1 0x0 DUP1 REVERT JUMPDEST POP PUSH2 0x7E2 PUSH2 0x326A JUMP JUMPDEST STOP JUMPDEST CALLVALUE DUP1 ISZERO PUSH2 0x7F0 JUMPI PUSH1 0x0 DUP1 REVERT JUMPDEST POP PUSH2 0x7F9 PUSH2 0x32EF JUMP JUMPDEST PUSH1 0x40 MLOAD PUSH2 0x806 SWAP2 SWAP1 PUSH2 0x7871 JUMP JUMPDEST PUSH1 0x40 MLOAD DUP1 SWAP2 SUB SWAP1 RETURN JUMPDEST CALLVALUE DUP1 ISZERO PUSH2 0x81B JUMPI PUSH1 0x0 DUP1 REVERT JUMPDEST POP PUSH2 0x836 PUSH1 0x4 DUP1 CALLDATASIZE SUB DUP2 ADD SWAP1 PUSH2 0x831 SWAP2 SWAP1 PUSH2 0x6BA9 JUMP JUMPDEST PUSH2 0x32F5 JUMP JUMPDEST STOP JUMPDEST CALLVALUE DUP1 ISZERO PUSH2 0x844 JUMPI PUSH1 0x0 DUP1 REVERT JUMPDEST POP PUSH2 0x84D PUSH2 0x34D3 JUMP JUMPDEST PUSH1 0x40 MLOAD PUSH2 0x85A SWAP2 SWAP1 PUSH2 0x7871 JUMP JUMPDEST PUSH1 0x40 MLOAD DUP1 SWAP2 SUB SWAP1 RETURN JUMPDEST CALLVALUE DUP1 ISZERO PUSH2 0x86F JUMPI PUSH1 0x0 DUP1 REVERT JUMPDEST POP PUSH2 0x878 PUSH2 0x34D9 JUMP JUMPDEST PUSH1 0x40 MLOAD PUSH2 0x885 SWAP2 SWAP1 PUSH2 0x7871 JUMP JUMPDEST PUSH1 0x40 MLOAD DUP1 SWAP2 SUB SWAP1 RETURN JUMPDEST CALLVALUE DUP1 ISZERO PUSH2 0x89A JUMPI PUSH1 0x0 DUP1 REVERT JUMPDEST POP PUSH2 0x8A3 PUSH2 0x34DF JUMP JUMPDEST PUSH1 0x40 MLOAD PUSH2 0x8B0 SWAP2 SWAP1 PUSH2 0x7871 JUMP JUMPDEST PUSH1 0x40 MLOAD DUP1 SWAP2 SUB SWAP1 RETURN JUMPDEST CALLVALUE DUP1 ISZERO PUSH2 0x8C5 JUMPI PUSH1 0x0 DUP1 REVERT JUMPDEST POP PUSH2 0x8E0 PUSH1 0x4 DUP1 CALLDATASIZE SUB DUP2 ADD SWAP1 PUSH2 0x8DB SWAP2 SWAP1 PUSH2 0x6D96 JUMP JUMPDEST PUSH2 0x34E5 JUMP JUMPDEST STOP JUMPDEST CALLVALUE DUP1 ISZERO PUSH2 0x8EE JUMPI PUSH1 0x0 DUP1 REVERT JUMPDEST POP PUSH2 0x8F7 PUSH2 0x3726 JUMP JUMPDEST PUSH1 0x40 MLOAD PUSH2 0x904 SWAP2 SWAP1 PUSH2 0x73F5 JUMP JUMPDEST PUSH1 0x40 MLOAD DUP1 SWAP2 SUB SWAP1 RETURN JUMPDEST CALLVALUE DUP1 ISZERO PUSH2 0x919 JUMPI PUSH1 0x0 DUP1 REVERT JUMPDEST POP PUSH2 0x922 PUSH2 0x374F JUMP JUMPDEST PUSH1 0x40 MLOAD PUSH2 0x92F SWAP2 SWAP1 PUSH2 0x7871 JUMP JUMPDEST PUSH1 0x40 MLOAD DUP1 SWAP2 SUB SWAP1 RETURN JUMPDEST CALLVALUE DUP1 ISZERO PUSH2 0x944 JUMPI PUSH1 0x0 DUP1 REVERT JUMPDEST POP PUSH2 0x94D PUSH2 0x3755 JUMP JUMPDEST PUSH1 0x40 MLOAD PUSH2 0x95A SWAP2 SWAP1 PUSH2 0x7871 JUMP JUMPDEST PUSH1 0x40 MLOAD DUP1 SWAP2 SUB SWAP1 RETURN JUMPDEST CALLVALUE DUP1 ISZERO PUSH2 0x96F JUMPI PUSH1 0x0 DUP1 REVERT JUMPDEST POP PUSH2 0x978 PUSH2 0x375B JUMP JUMPDEST PUSH1 0x40 MLOAD PUSH2 0x985 SWAP2 SWAP1 PUSH2 0x7499 JUMP JUMPDEST PUSH1 0x40 MLOAD DUP1 SWAP2 SUB SWAP1 RETURN JUMPDEST CALLVALUE DUP1 ISZERO PUSH2 0x99A JUMPI PUSH1 0x0 DUP1 REVERT JUMPDEST POP PUSH2 0x9A3 PUSH2 0x376E JUMP JUMPDEST PUSH1 0x40 MLOAD PUSH2 0x9B0 SWAP2 SWAP1 PUSH2 0x7871 JUMP JUMPDEST PUSH1 0x40 MLOAD DUP1 SWAP2 SUB SWAP1 RETURN JUMPDEST CALLVALUE DUP1 ISZERO PUSH2 0x9C5 JUMPI PUSH1 0x0 DUP1 REVERT JUMPDEST POP PUSH2 0x9E0 PUSH1 0x4 DUP1 CALLDATASIZE SUB DUP2 ADD SWAP1 PUSH2 0x9DB SWAP2 SWAP1 PUSH2 0x6C4F JUMP JUMPDEST PUSH2 0x3952 JUMP JUMPDEST STOP JUMPDEST CALLVALUE DUP1 ISZERO PUSH2 0x9EE JUMPI PUSH1 0x0 DUP1 REVERT JUMPDEST POP PUSH2 0x9F7 PUSH2 0x3AD3 JUMP JUMPDEST PUSH1 0x40 MLOAD PUSH2 0xA04 SWAP2 SWAP1 PUSH2 0x7499 JUMP JUMPDEST PUSH1 0x40 MLOAD DUP1 SWAP2 SUB SWAP1 RETURN JUMPDEST CALLVALUE DUP1 ISZERO PUSH2 0xA19 JUMPI PUSH1 0x0 DUP1 REVERT JUMPDEST POP PUSH2 0xA22 PUSH2 0x3AE6 JUMP JUMPDEST PUSH1 0x40 MLOAD PUSH2 0xA2F SWAP2 SWAP1 PUSH2 0x7871 JUMP JUMPDEST PUSH1 0x40 MLOAD DUP1 SWAP2 SUB SWAP1 RETURN JUMPDEST CALLVALUE DUP1 ISZERO PUSH2 0xA44 JUMPI PUSH1 0x0 DUP1 REVERT JUMPDEST POP PUSH2 0xA5F PUSH1 0x4 DUP1 CALLDATASIZE SUB DUP2 ADD SWAP1 PUSH2 0xA5A SWAP2 SWAP1 PUSH2 0x6C8B JUMP JUMPDEST PUSH2 0x3AEC JUMP JUMPDEST STOP JUMPDEST CALLVALUE DUP1 ISZERO PUSH2 0xA6D JUMPI PUSH1 0x0 DUP1 REVERT JUMPDEST POP PUSH2 0xA88 PUSH1 0x4 DUP1 CALLDATASIZE SUB DUP2 ADD SWAP1 PUSH2 0xA83 SWAP2 SWAP1 PUSH2 0x6D96 JUMP JUMPDEST PUSH2 0x40A2 JUMP JUMPDEST STOP JUMPDEST CALLVALUE DUP1 ISZERO PUSH2 0xA96 JUMPI PUSH1 0x0 DUP1 REVERT JUMPDEST POP PUSH2 0xA9F PUSH2 0x481B JUMP JUMPDEST PUSH1 0x40 MLOAD PUSH2 0xAAC SWAP2 SWAP1 PUSH2 0x7871 JUMP JUMPDEST PUSH1 0x40 MLOAD DUP1 SWAP2 SUB SWAP1 RETURN JUMPDEST CALLVALUE DUP1 ISZERO PUSH2 0xAC1 JUMPI PUSH1 0x0 DUP1 REVERT JUMPDEST POP PUSH2 0xACA PUSH2 0x4821 JUMP JUMPDEST PUSH1 0x40 MLOAD PUSH2 0xAD7 SWAP2 SWAP1 PUSH2 0x73F5 JUMP JUMPDEST PUSH1 0x40 MLOAD DUP1 SWAP2 SUB SWAP1 RETURN JUMPDEST PUSH2 0xAE8 PUSH2 0x4847 JUMP JUMPDEST STOP JUMPDEST CALLVALUE DUP1 ISZERO PUSH2 0xAF6 JUMPI PUSH1 0x0 DUP1 REVERT JUMPDEST POP PUSH2 0xAFF PUSH2 0x4A57 JUMP JUMPDEST PUSH1 0x40 MLOAD PUSH2 0xB0C SWAP2 SWAP1 PUSH2 0x7871 JUMP JUMPDEST PUSH1 0x40 MLOAD DUP1 SWAP2 SUB SWAP1 RETURN JUMPDEST CALLVALUE DUP1 ISZERO PUSH2 0xB21 JUMPI PUSH1 0x0 DUP1 REVERT JUMPDEST POP PUSH2 0xB2A PUSH2 0x4A5D JUMP JUMPDEST PUSH1 0x40 MLOAD PUSH2 0xB37 SWAP2 SWAP1 PUSH2 0x7871 JUMP JUMPDEST PUSH1 0x40 MLOAD DUP1 SWAP2 SUB SWAP1 RETURN JUMPDEST CALLVALUE DUP1 ISZERO PUSH2 0xB4C JUMPI PUSH1 0x0 DUP1 REVERT JUMPDEST POP PUSH2 0xB67 PUSH1 0x4 DUP1 CALLDATASIZE SUB DUP2 ADD SWAP1 PUSH2 0xB62 SWAP2 SWAP1 PUSH2 0x6D96 JUMP JUMPDEST PUSH2 0x4CBC JUMP JUMPDEST PUSH1 0x40 MLOAD PUSH2 0xB74 SWAP2 SWAP1 PUSH2 0x73F5 JUMP JUMPDEST PUSH1 0x40 MLOAD DUP1 SWAP2 SUB SWAP1 RETURN JUMPDEST CALLVALUE DUP1 ISZERO PUSH2 0xB89 JUMPI PUSH1 0x0 DUP1 REVERT JUMPDEST POP PUSH2 0xBA4 PUSH1 0x4 DUP1 CALLDATASIZE SUB DUP2 ADD SWAP1 PUSH2 0xB9F SWAP2 SWAP1 PUSH2 0x6B57 JUMP JUMPDEST PUSH2 0x4CFB JUMP JUMPDEST PUSH1 0x40 MLOAD PUSH2 0xBB1 SWAP2 SWAP1 PUSH2 0x7871 JUMP JUMPDEST PUSH1 0x40 MLOAD DUP1 SWAP2 SUB SWAP1 RETURN JUMPDEST CALLVALUE DUP1 ISZERO PUSH2 0xBC6 JUMPI PUSH1 0x0 DUP1 REVERT JUMPDEST POP PUSH2 0xBCF PUSH2 0x4EB5 JUMP JUMPDEST PUSH1 0x40 MLOAD PUSH2 0xBDC SWAP2 SWAP1 PUSH2 0x7871 JUMP JUMPDEST PUSH1 0x40 MLOAD DUP1 SWAP2 SUB SWAP1 RETURN JUMPDEST CALLVALUE DUP1 ISZERO PUSH2 0xBF1 JUMPI PUSH1 0x0 DUP1 REVERT JUMPDEST POP PUSH2 0xC0C PUSH1 0x4 DUP1 CALLDATASIZE SUB DUP2 ADD SWAP1 PUSH2 0xC07 SWAP2 SWAP1 PUSH2 0x6B57 JUMP JUMPDEST PUSH2 0x4EBB JUMP JUMPDEST STOP JUMPDEST CALLVALUE DUP1 ISZERO PUSH2 0xC1A JUMPI PUSH1 0x0 DUP1 REVERT JUMPDEST POP PUSH2 0xC23 PUSH2 0x507B JUMP JUMPDEST PUSH1 0x40 MLOAD PUSH2 0xC30 SWAP2 SWAP1 PUSH2 0x73F5 JUMP JUMPDEST PUSH1 0x40 MLOAD DUP1 SWAP2 SUB SWAP1 RETURN JUMPDEST CALLVALUE DUP1 ISZERO PUSH2 0xC45 JUMPI PUSH1 0x0 DUP1 REVERT JUMPDEST POP PUSH2 0xC4E PUSH2 0x50A1 JUMP JUMPDEST STOP JUMPDEST CALLVALUE DUP1 ISZERO PUSH2 0xC5C JUMPI PUSH1 0x0 DUP1 REVERT JUMPDEST POP PUSH2 0xC65 PUSH2 0x5228 JUMP JUMPDEST PUSH1 0x40 MLOAD PUSH2 0xC72 SWAP2 SWAP1 PUSH2 0x7871 JUMP JUMPDEST PUSH1 0x40 MLOAD DUP1 SWAP2 SUB SWAP1 RETURN JUMPDEST CALLVALUE DUP1 ISZERO PUSH2 0xC87 JUMPI PUSH1 0x0 DUP1 REVERT JUMPDEST POP PUSH2 0xC90 PUSH2 0x522E JUMP JUMPDEST PUSH1 0x40 MLOAD PUSH2 0xC9D SWAP2 SWAP1 PUSH2 0x7871 JUMP JUMPDEST PUSH1 0x40 MLOAD DUP1 SWAP2 SUB SWAP1 RETURN JUMPDEST PUSH2 0xCAE PUSH2 0x5234 JUMP JUMPDEST STOP JUMPDEST CALLVALUE DUP1 ISZERO PUSH2 0xCBC JUMPI PUSH1 0x0 DUP1 REVERT JUMPDEST POP PUSH2 0xCD7 PUSH1 0x4 DUP1 CALLDATASIZE SUB DUP2 ADD SWAP1 PUSH2 0xCD2 SWAP2 SWAP1 PUSH2 0x6B57 JUMP JUMPDEST PUSH2 0x54DC JUMP JUMPDEST STOP JUMPDEST CALLVALUE DUP1 ISZERO PUSH2 0xCE5 JUMPI PUSH1 0x0 DUP1 REVERT JUMPDEST POP PUSH2 0xD00 PUSH1 0x4 DUP1 CALLDATASIZE SUB DUP2 ADD SWAP1 PUSH2 0xCFB SWAP2 SWAP1 PUSH2 0x6B57 JUMP JUMPDEST PUSH2 0x55D4 JUMP JUMPDEST PUSH1 0x40 MLOAD PUSH2 0xD0D SWAP2 SWAP1 PUSH2 0x7871 JUMP JUMPDEST PUSH1 0x40 MLOAD DUP1 SWAP2 SUB SWAP1 RETURN JUMPDEST CALLVALUE DUP1 ISZERO PUSH2 0xD22 JUMPI PUSH1 0x0 DUP1 REVERT JUMPDEST POP PUSH2 0xD3D PUSH1 0x4 DUP1 CALLDATASIZE SUB DUP2 ADD SWAP1 PUSH2 0xD38 SWAP2 SWAP1 PUSH2 0x6D96 JUMP JUMPDEST PUSH2 0x5741 JUMP JUMPDEST STOP JUMPDEST CALLVALUE DUP1 ISZERO PUSH2 0xD4B JUMPI PUSH1 0x0 DUP1 REVERT JUMPDEST POP PUSH2 0xD54 PUSH2 0x5887 JUMP JUMPDEST PUSH1 0x40 MLOAD PUSH2 0xD61 SWAP2 SWAP1 PUSH2 0x7871 JUMP JUMPDEST PUSH1 0x40 MLOAD DUP1 SWAP2 SUB SWAP1 RETURN JUMPDEST PUSH2 0xD72 PUSH2 0x588D JUMP JUMPDEST PUSH20 0xFFFFFFFFFFFFFFFFFFFFFFFFFFFFFFFFFFFFFFFF AND PUSH2 0xD90 PUSH2 0x3726 JUMP JUMPDEST PUSH20 0xFFFFFFFFFFFFFFFFFFFFFFFFFFFFFFFFFFFFFFFF AND EQ PUSH2 0xDE6 JUMPI PUSH1 0x40 MLOAD PUSH32 0x8C379A000000000000000000000000000000000000000000000000000000000 DUP2 MSTORE PUSH1 0x4 ADD PUSH2 0xDDD SWAP1 PUSH2 0x7651 JUMP JUMPDEST PUSH1 0x40 MLOAD DUP1 SWAP2 SUB SWAP1 REVERT JUMPDEST PUSH2 0x7D0 DUP8 LT PUSH2 0xE2A JUMPI PUSH1 0x40 MLOAD PUSH32 0x8C379A000000000000000000000000000000000000000000000000000000000 DUP2 MSTORE PUSH1 0x4 ADD PUSH2 0xE21 SWAP1 PUSH2 0x7511 JUMP JUMPDEST PUSH1 0x40 MLOAD DUP1 SWAP2 SUB SWAP1 REVERT JUMPDEST PUSH2 0x7D0 DUP7 LT PUSH2 0xE6E JUMPI PUSH1 0x40 MLOAD PUSH32 0x8C379A000000000000000000000000000000000000000000000000000000000 DUP2 MSTORE PUSH1 0x4 ADD PUSH2 0xE65 SWAP1 PUSH2 0x7551 JUMP JUMPDEST PUSH1 0x40 MLOAD DUP1 SWAP2 SUB SWAP1 REVERT JUMPDEST PUSH2 0x3E3 DUP5 GT ISZERO PUSH2 0xEB3 JUMPI PUSH1 0x40 MLOAD PUSH32 0x8C379A000000000000000000000000000000000000000000000000000000000 DUP2 MSTORE PUSH1 0x4 ADD PUSH2 0xEAA SWAP1 PUSH2 0x75D1 JUMP JUMPDEST PUSH1 0x40 MLOAD DUP1 SWAP2 SUB SWAP1 REVERT JUMPDEST DUP7 PUSH1 0xE DUP2 SWAP1 SSTORE POP DUP6 PUSH1 0xF DUP2 SWAP1 SSTORE POP DUP5 PUSH1 0x11 DUP2 SWAP1 SSTORE POP PUSH2 0xEDF PUSH1 0x11 SLOAD PUSH2 0x2710 PUSH2 0x5895 SWAP1 SWAP2 SWAP1 PUSH4 0xFFFFFFFF AND JUMP JUMPDEST PUSH1 0x10 DUP2 SWAP1 SSTORE POP DUP4 PUSH1 0xA DUP2 SWAP1 SSTORE POP DUP3 PUSH1 0xB PUSH1 0x0 PUSH2 0x100 EXP DUP2 SLOAD DUP2 PUSH20 0xFFFFFFFFFFFFFFFFFFFFFFFFFFFFFFFFFFFFFFFF MUL NOT AND SWAP1 DUP4 PUSH20 0xFFFFFFFFFFFFFFFFFFFFFFFFFFFFFFFFFFFFFFFF AND MUL OR SWAP1 SSTORE POP DUP1 PUSH1 0xC SWAP1 DUP1 MLOAD SWAP1 PUSH1 0x20 ADD SWAP1 PUSH2 0xF43 SWAP3 SWAP2 SWAP1 PUSH2 0x68DC JUMP JUMPDEST POP DUP2 PUSH1 0xD SWAP1 DUP1 MLOAD SWAP1 PUSH1 0x20 ADD SWAP1 PUSH2 0xF5A SWAP3 SWAP2 SWAP1 PUSH2 0x68DC JUMP JUMPDEST POP PUSH32 0xE517D267FFF2C58A025040C7695BB2572821D50C6DEBA9D8EAEBC6F84DB5335B DUP8 DUP8 DUP8 DUP8 DUP8 DUP8 DUP8 PUSH1 0x40 MLOAD PUSH2 0xF96 SWAP8 SWAP7 SWAP6 SWAP5 SWAP4 SWAP3 SWAP2 SWAP1 PUSH2 0x7976 JUMP JUMPDEST PUSH1 0x40 MLOAD DUP1 SWAP2 SUB SWAP1 LOG1 POP POP POP POP POP POP POP JUMP JUMPDEST PUSH2 0xFAF PUSH2 0x588D JUMP JUMPDEST PUSH20 0xFFFFFFFFFFFFFFFFFFFFFFFFFFFFFFFFFFFFFFFF AND PUSH2 0xFCD PUSH2 0x3726 JUMP JUMPDEST PUSH20 0xFFFFFFFFFFFFFFFFFFFFFFFFFFFFFFFFFFFFFFFF AND EQ PUSH2 0x1023 JUMPI PUSH1 0x40 MLOAD PUSH32 0x8C379A000000000000000000000000000000000000000000000000000000000 DUP2 MSTORE PUSH1 0x4 ADD PUSH2 0x101A SWAP1 PUSH2 0x7651 JUMP JUMPDEST PUSH1 0x40 MLOAD DUP1 SWAP2 SUB SWAP1 REVERT JUMPDEST DUP1 PUSH1 0x8 DUP2 SWAP1 SSTORE POP PUSH32 0xC4D677EEF92893AC7EC52FAF8140FC6C851AB4736302B4F3A89DFB20696A0DF DUP2 PUSH1 0x40 MLOAD PUSH2 0x1059 SWAP2 SWAP1 PUSH2 0x7871 JUMP JUMPDEST PUSH1 0x40 MLOAD DUP1 SWAP2 SUB SWAP1 LOG1 POP JUMP JUMPDEST PUSH1 0x3 SLOAD DUP2 JUMP JUMPDEST PUSH1 0x1A PUSH1 0x0 SWAP1 SLOAD SWAP1 PUSH2 0x100 EXP SWAP1 DIV PUSH20 0xFFFFFFFFFFFFFFFFFFFFFFFFFFFFFFFFFFFFFFFF AND DUP2 JUMP JUMPDEST PUSH1 0xC DUP2 DUP2 SLOAD DUP2 LT PUSH2 0x10A0 JUMPI PUSH1 0x0 DUP1 REVERT JUMPDEST SWAP1 PUSH1 0x0 MSTORE PUSH1 0x20 PUSH1 0x0 KECCAK256 ADD PUSH1 0x0 SWAP2 POP SLOAD SWAP1 PUSH2 0x100 EXP SWAP1 DIV PUSH20 0xFFFFFFFFFFFFFFFFFFFFFFFFFFFFFFFFFFFFFFFF AND DUP2 JUMP JUMPDEST PUSH1 0x10 SLOAD DUP2 JUMP JUMPDEST PUSH1 0x21 PUSH1 0x20 MSTORE DUP1 PUSH1 0x0 MSTORE PUSH1 0x40 PUSH1 0x0 KECCAK256 PUSH1 0x0 SWAP2 POP SWAP1 POP DUP1 PUSH1 0x0 ADD SLOAD SWAP1 DUP1 PUSH1 0x1 ADD SLOAD SWAP1 DUP1 PUSH1 0x2 ADD SLOAD SWAP1 POP DUP4 JUMP JUMPDEST PUSH1 0x7 SLOAD DUP2 JUMP JUMPDEST PUSH1 0x14 PUSH1 0x0 SWAP1 SLOAD SWAP1 PUSH2 0x100 EXP SWAP1 DIV PUSH20 0xFFFFFFFFFFFFFFFFFFFFFFFFFFFFFFFFFFFFFFFF AND DUP2 JUMP JUMPDEST PUSH1 0x2 PUSH1 0x1 SLOAD EQ ISZERO PUSH2 0x1171 JUMPI PUSH1 0x40 MLOAD PUSH32 0x8C379A000000000000000000000000000000000000000000000000000000000 DUP2 MSTORE PUSH1 0x4 ADD PUSH2 0x1168 SWAP1 PUSH2 0x77B1 JUMP JUMPDEST PUSH1 0x40 MLOAD DUP1 SWAP2 SUB SWAP1 REVERT JUMPDEST PUSH1 0x2 PUSH1 0x1 DUP2 SWAP1 SSTORE POP PUSH1 0x0 DUP2 GT PUSH2 0x11BC JUMPI PUSH1 0x40 MLOAD PUSH32 0x8C379A000000000000000000000000000000000000000000000000000000000 DUP2 MSTORE PUSH1 0x4 ADD PUSH2 0x11B3 SWAP1 PUSH2 0x7671 JUMP JUMPDEST PUSH1 0x40 MLOAD DUP1 SWAP2 SUB SWAP1 REVERT JUMPDEST PUSH1 0x0 PUSH1 0x21 PUSH1 0x0 CALLER PUSH20 0xFFFFFFFFFFFFFFFFFFFFFFFFFFFFFFFFFFFFFFFF AND PUSH20 0xFFFFFFFFFFFFFFFFFFFFFFFFFFFFFFFFFFFFFFFF AND DUP2 MSTORE PUSH1 0x20 ADD SWAP1 DUP2 MSTORE PUSH1 0x20 ADD PUSH1 0x0 KECCAK256 SWAP1 POP DUP2 DUP2 PUSH1 0x0 ADD SLOAD LT ISZERO PUSH2 0x1246 JUMPI PUSH1 0x40 MLOAD PUSH32 0x8C379A000000000000000000000000000000000000000000000000000000000 DUP2 MSTORE PUSH1 0x4 ADD PUSH2 0x123D SWAP1 PUSH2 0x7731 JUMP JUMPDEST PUSH1 0x40 MLOAD DUP1 SWAP2 SUB SWAP1 REVERT JUMPDEST PUSH2 0x124E PUSH2 0x58AB JUMP JUMPDEST PUSH1 0x0 DUP2 PUSH1 0x0 ADD SLOAD GT ISZERO PUSH2 0x14EE JUMPI PUSH1 0x0 PUSH2 0x12A0 DUP3 PUSH1 0x1 ADD SLOAD PUSH2 0x1292 PUSH1 0x16 SLOAD PUSH2 0x1284 PUSH1 0x1B SLOAD DUP8 PUSH1 0x0 ADD SLOAD PUSH2 0x5A94 SWAP1 SWAP2 SWAP1 PUSH4 0xFFFFFFFF AND JUMP JUMPDEST PUSH2 0x5AAA SWAP1 SWAP2 SWAP1 PUSH4 0xFFFFFFFF AND JUMP JUMPDEST PUSH2 0x5895 SWAP1 SWAP2 SWAP1 PUSH4 0xFFFFFFFF AND JUMP JUMPDEST SWAP1 POP PUSH1 0x0 DUP2 GT ISZERO PUSH2 0x1376 JUMPI DUP1 PUSH2 0x12B4 PUSH2 0x376E JUMP JUMPDEST LT ISZERO PUSH2 0x12F5 JUMPI PUSH1 0x40 MLOAD PUSH32 0x8C379A000000000000000000000000000000000000000000000000000000000 DUP2 MSTORE PUSH1 0x4 ADD PUSH2 0x12EC SWAP1 PUSH2 0x7851 JUMP JUMPDEST PUSH1 0x40 MLOAD DUP1 SWAP2 SUB SWAP1 REVERT JUMPDEST PUSH2 0x1342 CALLER DUP3 PUSH1 0x19 PUSH1 0x0 SWAP1 SLOAD SWAP1 PUSH2 0x100 EXP SWAP1 DIV PUSH20 0xFFFFFFFFFFFFFFFFFFFFFFFFFFFFFFFFFFFFFFFF AND PUSH20 0xFFFFFFFFFFFFFFFFFFFFFFFFFFFFFFFFFFFFFFFF AND PUSH2 0x5AC0 SWAP1 SWAP3 SWAP2 SWAP1 PUSH4 0xFFFFFFFF AND JUMP JUMPDEST DUP1 PUSH1 0x1E SLOAD GT ISZERO PUSH2 0x136C JUMPI PUSH2 0x1361 DUP2 PUSH1 0x1E SLOAD PUSH2 0x5895 SWAP1 SWAP2 SWAP1 PUSH4 0xFFFFFFFF AND JUMP JUMPDEST PUSH1 0x1E DUP2 SWAP1 SSTORE POP PUSH2 0x1375 JUMP JUMPDEST PUSH1 0x0 PUSH1 0x1E DUP2 SWAP1 SSTORE POP JUMPDEST JUMPDEST PUSH1 0x0 PUSH2 0x13BB DUP4 PUSH1 0x2 ADD SLOAD PUSH2 0x13AD PUSH1 0x17 SLOAD PUSH2 0x139F PUSH1 0x1C SLOAD DUP9 PUSH1 0x0 ADD SLOAD PUSH2 0x5A94 SWAP1 SWAP2 SWAP1 PUSH4 0xFFFFFFFF AND JUMP JUMPDEST PUSH2 0x5AAA SWAP1 SWAP2 SWAP1 PUSH4 0xFFFFFFFF AND JUMP JUMPDEST PUSH2 0x5895 SWAP1 SWAP2 SWAP1 PUSH4 0xFFFFFFFF AND JUMP JUMPDEST SWAP1 POP PUSH1 0x0 DUP2 GT DUP1 ISZERO PUSH2 0x13D9 JUMPI POP PUSH1 0x1A PUSH1 0x14 SWAP1 SLOAD SWAP1 PUSH2 0x100 EXP SWAP1 DIV PUSH1 0xFF AND JUMPDEST ISZERO PUSH2 0x14EB JUMPI PUSH1 0x0 PUSH20 0xFFFFFFFFFFFFFFFFFFFFFFFFFFFFFFFFFFFFFFFF AND PUSH1 0x1A PUSH1 0x0 SWAP1 SLOAD SWAP1 PUSH2 0x100 EXP SWAP1 DIV PUSH20 0xFFFFFFFFFFFFFFFFFFFFFFFFFFFFFFFFFFFFFFFF AND PUSH20 0xFFFFFFFFFFFFFFFFFFFFFFFFFFFFFFFFFFFFFFFF AND EQ ISZERO PUSH2 0x1481 JUMPI CALLER PUSH20 0xFFFFFFFFFFFFFFFFFFFFFFFFFFFFFFFFFFFFFFFF AND PUSH2 0x8FC DUP3 SWAP1 DUP2 ISZERO MUL SWAP1 PUSH1 0x40 MLOAD PUSH1 0x0 PUSH1 0x40 MLOAD DUP1 DUP4 SUB DUP2 DUP6 DUP9 DUP9 CALL SWAP4 POP POP POP POP ISZERO DUP1 ISZERO PUSH2 0x147B JUMPI RETURNDATASIZE PUSH1 0x0 DUP1 RETURNDATACOPY RETURNDATASIZE PUSH1 0x0 REVERT JUMPDEST POP PUSH2 0x14CF JUMP JUMPDEST PUSH2 0x14CE CALLER DUP3 PUSH1 0x1A PUSH1 0x0 SWAP1 SLOAD SWAP1 PUSH2 0x100 EXP SWAP1 DIV PUSH20 0xFFFFFFFFFFFFFFFFFFFFFFFFFFFFFFFFFFFFFFFF AND PUSH20 0xFFFFFFFFFFFFFFFFFFFFFFFFFFFFFFFFFFFFFFFF AND PUSH2 0x5AC0 SWAP1 SWAP3 SWAP2 SWAP1 PUSH4 0xFFFFFFFF AND JUMP JUMPDEST JUMPDEST PUSH2 0x14E4 DUP2 PUSH1 0x1F SLOAD PUSH2 0x5895 SWAP1 SWAP2 SWAP1 PUSH4 0xFFFFFFFF AND JUMP JUMPDEST PUSH1 0x1F DUP2 SWAP1 SSTORE POP JUMPDEST POP POP JUMPDEST PUSH1 0x0 DUP3 SWAP1 POP DUP3 DUP3 PUSH1 0x0 ADD SLOAD LT ISZERO PUSH2 0x1507 JUMPI DUP2 PUSH1 0x0 ADD SLOAD SWAP1 POP JUMPDEST PUSH2 0x151E DUP2 DUP4 PUSH1 0x0 ADD SLOAD PUSH2 0x5895 SWAP1 SWAP2 SWAP1 PUSH4 0xFFFFFFFF AND JUMP JUMPDEST DUP3 PUSH1 0x0 ADD DUP2 SWAP1 SSTORE POP PUSH2 0x153B DUP2 PUSH1 0x1D SLOAD PUSH2 0x5895 SWAP1 SWAP2 SWAP1 PUSH4 0xFFFFFFFF AND JUMP JUMPDEST PUSH1 0x1D DUP2 SWAP1 SSTORE POP PUSH1 0x0 PUSH1 0xF SLOAD GT ISZERO PUSH2 0x16F3 JUMPI PUSH1 0x0 PUSH2 0x1577 PUSH2 0x2710 PUSH2 0x1569 PUSH1 0xF SLOAD DUP6 PUSH2 0x5A94 SWAP1 SWAP2 SWAP1 PUSH4 0xFFFFFFFF AND JUMP JUMPDEST PUSH2 0x5AAA SWAP1 SWAP2 SWAP1 PUSH4 0xFFFFFFFF AND JUMP JUMPDEST SWAP1 POP PUSH1 0x0 PUSH2 0x15A4 PUSH2 0x2710 PUSH2 0x1596 PUSH1 0x11 SLOAD DUP6 PUSH2 0x5A94 SWAP1 SWAP2 SWAP1 PUSH4 0xFFFFFFFF AND JUMP JUMPDEST PUSH2 0x5AAA SWAP1 SWAP2 SWAP1 PUSH4 0xFFFFFFFF AND JUMP JUMPDEST SWAP1 POP PUSH1 0x0 DUP2 GT ISZERO PUSH2 0x1634 JUMPI PUSH2 0x161E PUSH1 0x12 PUSH1 0x0 SWAP1 SLOAD SWAP1 PUSH2 0x100 EXP SWAP1 DIV PUSH20 0xFFFFFFFFFFFFFFFFFFFFFFFFFFFFFFFFFFFFFFFF AND DUP3 PUSH1 0x18 PUSH1 0x0 SWAP1 SLOAD SWAP1 PUSH2 0x100 EXP SWAP1 DIV PUSH20 0xFFFFFFFFFFFFFFFFFFFFFFFFFFFFFFFFFFFFFFFF AND PUSH20 0xFFFFFFFFFFFFFFFFFFFFFFFFFFFFFFFFFFFFFFFF AND PUSH2 0x5AC0 SWAP1 SWAP3 SWAP2 SWAP1 PUSH4 0xFFFFFFFF AND JUMP JUMPDEST PUSH2 0x1631 DUP2 DUP5 PUSH2 0x5895 SWAP1 SWAP2 SWAP1 PUSH4 0xFFFFFFFF AND JUMP JUMPDEST SWAP3 POP JUMPDEST PUSH1 0x0 PUSH2 0x165F PUSH2 0x2710 PUSH2 0x1651 PUSH1 0x10 SLOAD DUP7 PUSH2 0x5A94 SWAP1 SWAP2 SWAP1 PUSH4 0xFFFFFFFF AND JUMP JUMPDEST PUSH2 0x5AAA SWAP1 SWAP2 SWAP1 PUSH4 0xFFFFFFFF AND JUMP JUMPDEST SWAP1 POP PUSH1 0x0 DUP2 GT ISZERO PUSH2 0x16EF JUMPI PUSH2 0x16D9 PUSH1 0x13 PUSH1 0x0 SWAP1 SLOAD SWAP1 PUSH2 0x100 EXP SWAP1 DIV PUSH20 0xFFFFFFFFFFFFFFFFFFFFFFFFFFFFFFFFFFFFFFFF AND DUP3 PUSH1 0x18 PUSH1 0x0 SWAP1 SLOAD SWAP1 PUSH2 0x100 EXP SWAP1 DIV PUSH20 0xFFFFFFFFFFFFFFFFFFFFFFFFFFFFFFFFFFFFFFFF AND PUSH20 0xFFFFFFFFFFFFFFFFFFFFFFFFFFFFFFFFFFFFFFFF AND PUSH2 0x5AC0 SWAP1 SWAP3 SWAP2 SWAP1 PUSH4 0xFFFFFFFF AND JUMP JUMPDEST PUSH2 0x16EC DUP2 DUP6 PUSH2 0x5895 SWAP1 SWAP2 SWAP1 PUSH4 0xFFFFFFFF AND JUMP JUMPDEST SWAP4 POP JUMPDEST POP POP POP JUMPDEST PUSH2 0x1740 CALLER DUP3 PUSH1 0x18 PUSH1 0x0 SWAP1 SLOAD SWAP1 PUSH2 0x100 EXP SWAP1 DIV PUSH20 0xFFFFFFFFFFFFFFFFFFFFFFFFFFFFFFFFFFFFFFFF AND PUSH20 0xFFFFFFFFFFFFFFFFFFFFFFFFFFFFFFFFFFFFFFFF AND PUSH2 0x5AC0 SWAP1 SWAP3 SWAP2 SWAP1 PUSH4 0xFFFFFFFF AND JUMP JUMPDEST PUSH2 0x176D PUSH1 0x16 SLOAD PUSH2 0x175F PUSH1 0x1B SLOAD DUP6 PUSH1 0x0 ADD SLOAD PUSH2 0x5A94 SWAP1 SWAP2 SWAP1 PUSH4 0xFFFFFFFF AND JUMP JUMPDEST PUSH2 0x5AAA SWAP1 SWAP2 SWAP1 PUSH4 0xFFFFFFFF AND JUMP JUMPDEST DUP3 PUSH1 0x1 ADD DUP2 SWAP1 SSTORE POP PUSH2 0x17A2 PUSH1 0x17 SLOAD PUSH2 0x1794 PUSH1 0x1C SLOAD DUP6 PUSH1 0x0 ADD SLOAD PUSH2 0x5A94 SWAP1 SWAP2 SWAP1 PUSH4 0xFFFFFFFF AND JUMP JUMPDEST PUSH2 0x5AAA SWAP1 SWAP2 SWAP1 PUSH4 0xFFFFFFFF AND JUMP JUMPDEST DUP3 PUSH1 0x2 ADD DUP2 SWAP1 SSTORE POP CALLER PUSH20 0xFFFFFFFFFFFFFFFFFFFFFFFFFFFFFFFFFFFFFFFF AND PUSH32 0x884EDAD9CE6FA2440D8A54CC123490EB96D2768479D49FF9C7366125A9424364 DUP5 PUSH1 0x40 MLOAD PUSH2 0x17F0 SWAP2 SWAP1 PUSH2 0x7871 JUMP JUMPDEST PUSH1 0x40 MLOAD DUP1 SWAP2 SUB SWAP1 LOG2 POP POP PUSH1 0x1 DUP1 DUP2 SWAP1 SSTORE POP POP JUMP JUMPDEST PUSH2 0x180C PUSH2 0x588D JUMP JUMPDEST PUSH20 0xFFFFFFFFFFFFFFFFFFFFFFFFFFFFFFFFFFFFFFFF AND PUSH2 0x182A PUSH2 0x3726 JUMP JUMPDEST PUSH20 0xFFFFFFFFFFFFFFFFFFFFFFFFFFFFFFFFFFFFFFFF AND EQ PUSH2 0x1880 JUMPI PUSH1 0x40 MLOAD PUSH32 0x8C379A000000000000000000000000000000000000000000000000000000000 DUP2 MSTORE PUSH1 0x4 ADD PUSH2 0x1877 SWAP1 PUSH2 0x7651 JUMP JUMPDEST PUSH1 0x40 MLOAD DUP1 SWAP2 SUB SWAP1 REVERT JUMPDEST PUSH1 0x7 SLOAD NUMBER GT PUSH2 0x18C4 JUMPI PUSH1 0x40 MLOAD PUSH32 0x8C379A000000000000000000000000000000000000000000000000000000000 DUP2 MSTORE PUSH1 0x4 ADD PUSH2 0x18BB SWAP1 PUSH2 0x7631 JUMP JUMPDEST PUSH1 0x40 MLOAD DUP1 SWAP2 SUB SWAP1 REVERT JUMPDEST PUSH1 0x1A PUSH1 0x0 SWAP1 SLOAD SWAP1 PUSH2 0x100 EXP SWAP1 DIV PUSH20 0xFFFFFFFFFFFFFFFFFFFFFFFFFFFFFFFFFFFFFFFF AND PUSH20 0xFFFFFFFFFFFFFFFFFFFFFFFFFFFFFFFFFFFFFFFF AND PUSH1 0x19 PUSH1 0x0 SWAP1 SLOAD SWAP1 PUSH2 0x100 EXP SWAP1 DIV PUSH20 0xFFFFFFFFFFFFFFFFFFFFFFFFFFFFFFFFFFFFFFFF AND PUSH20 0xFFFFFFFFFFFFFFFFFFFFFFFFFFFFFFFFFFFFFFFF AND EQ PUSH2 0x1986 JUMPI DUP1 PUSH2 0x1944 PUSH2 0x376E JUMP JUMPDEST LT ISZERO PUSH2 0x1985 JUMPI PUSH1 0x40 MLOAD PUSH32 0x8C379A000000000000000000000000000000000000000000000000000000000 DUP2 MSTORE PUSH1 0x4 ADD PUSH2 0x197C SWAP1 PUSH2 0x7851 JUMP JUMPDEST PUSH1 0x40 MLOAD DUP1 SWAP2 SUB SWAP1 REVERT JUMPDEST JUMPDEST PUSH1 0x0 DUP2 EQ ISZERO PUSH2 0x199A JUMPI PUSH2 0x1997 PUSH2 0x376E JUMP JUMPDEST SWAP1 POP JUMPDEST PUSH2 0x19E7 CALLER DUP3 PUSH1 0x19 PUSH1 0x0 SWAP1 SLOAD SWAP1 PUSH2 0x100 EXP SWAP1 DIV PUSH20 0xFFFFFFFFFFFFFFFFFFFFFFFFFFFFFFFFFFFFFFFF AND PUSH20 0xFFFFFFFFFFFFFFFFFFFFFFFFFFFFFFFFFFFFFFFF AND PUSH2 0x5AC0 SWAP1 SWAP3 SWAP2 SWAP1 PUSH4 0xFFFFFFFF AND JUMP JUMPDEST PUSH1 0x0 PUSH1 0x1E SLOAD GT ISZERO PUSH2 0x1A26 JUMPI PUSH1 0x1E SLOAD DUP2 GT ISZERO PUSH2 0x1A09 JUMPI PUSH1 0x0 PUSH1 0x1E DUP2 SWAP1 SSTORE POP PUSH2 0x1A25 JUMP JUMPDEST PUSH2 0x1A1E DUP2 PUSH1 0x1E SLOAD PUSH2 0x5895 SWAP1 SWAP2 SWAP1 PUSH4 0xFFFFFFFF AND JUMP JUMPDEST PUSH1 0x1E DUP2 SWAP1 SSTORE POP JUMPDEST JUMPDEST POP JUMP JUMPDEST PUSH2 0x1A31 PUSH2 0x588D JUMP JUMPDEST PUSH20 0xFFFFFFFFFFFFFFFFFFFFFFFFFFFFFFFFFFFFFFFF AND PUSH2 0x1A4F PUSH2 0x3726 JUMP JUMPDEST PUSH20 0xFFFFFFFFFFFFFFFFFFFFFFFFFFFFFFFFFFFFFFFF AND EQ PUSH2 0x1AA5 JUMPI PUSH1 0x40 MLOAD PUSH32 0x8C379A000000000000000000000000000000000000000000000000000000000 DUP2 MSTORE PUSH1 0x4 ADD PUSH2 0x1A9C SWAP1 PUSH2 0x7651 JUMP JUMPDEST PUSH1 0x40 MLOAD DUP1 SWAP2 SUB SWAP1 REVERT JUMPDEST PUSH2 0x1AAD PUSH2 0x5B46 JUMP JUMPDEST JUMP JUMPDEST PUSH1 0x2 PUSH1 0x14 SWAP1 SLOAD SWAP1 PUSH2 0x100 EXP SWAP1 DIV PUSH1 0xFF AND DUP2 JUMP JUMPDEST PUSH2 0x1ACA PUSH2 0x588D JUMP JUMPDEST PUSH20 0xFFFFFFFFFFFFFFFFFFFFFFFFFFFFFFFFFFFFFFFF AND PUSH2 0x1AE8 PUSH2 0x3726 JUMP JUMPDEST PUSH20 0xFFFFFFFFFFFFFFFFFFFFFFFFFFFFFFFFFFFFFFFF AND EQ PUSH2 0x1B3E JUMPI PUSH1 0x40 MLOAD PUSH32 0x8C379A000000000000000000000000000000000000000000000000000000000 DUP2 MSTORE PUSH1 0x4 ADD PUSH2 0x1B35 SWAP1 PUSH2 0x7651 JUMP JUMPDEST PUSH1 0x40 MLOAD DUP1 SWAP2 SUB SWAP1 REVERT JUMPDEST PUSH1 0x19 PUSH1 0x0 SWAP1 SLOAD SWAP1 PUSH2 0x100 EXP SWAP1 DIV PUSH20 0xFFFFFFFFFFFFFFFFFFFFFFFFFFFFFFFFFFFFFFFF AND PUSH20 0xFFFFFFFFFFFFFFFFFFFFFFFFFFFFFFFFFFFFFFFF AND DUP3 PUSH20 0xFFFFFFFFFFFFFFFFFFFFFFFFFFFFFFFFFFFFFFFF AND EQ ISZERO PUSH2 0x1BCF JUMPI PUSH1 0x40 MLOAD PUSH32 0x8C379A000000000000000000000000000000000000000000000000000000000 DUP2 MSTORE PUSH1 0x4 ADD PUSH2 0x1BC6 SWAP1 PUSH2 0x7711 JUMP JUMPDEST PUSH1 0x40 MLOAD DUP1 SWAP2 SUB SWAP1 REVERT JUMPDEST PUSH1 0x18 PUSH1 0x0 SWAP1 SLOAD SWAP1 PUSH2 0x100 EXP SWAP1 DIV PUSH20 0xFFFFFFFFFFFFFFFFFFFFFFFFFFFFFFFFFFFFFFFF AND PUSH20 0xFFFFFFFFFFFFFFFFFFFFFFFFFFFFFFFFFFFFFFFF AND DUP3 PUSH20 0xFFFFFFFFFFFFFFFFFFFFFFFFFFFFFFFFFFFFFFFF AND EQ ISZERO PUSH2 0x1D2D JUMPI PUSH1 0x0 PUSH1 0x18 PUSH1 0x0 SWAP1 SLOAD SWAP1 PUSH2 0x100 EXP SWAP1 DIV PUSH20 0xFFFFFFFFFFFFFFFFFFFFFFFFFFFFFFFFFFFFFFFF AND PUSH20 0xFFFFFFFFFFFFFFFFFFFFFFFFFFFFFFFFFFFFFFFF AND PUSH4 0x70A08231 ADDRESS PUSH1 0x40 MLOAD DUP3 PUSH4 0xFFFFFFFF AND PUSH1 0xE0 SHL DUP2 MSTORE PUSH1 0x4 ADD PUSH2 0x1C82 SWAP2 SWAP1 PUSH2 0x73F5 JUMP JUMPDEST PUSH1 0x20 PUSH1 0x40 MLOAD DUP1 DUP4 SUB DUP2 DUP7 DUP1 EXTCODESIZE ISZERO DUP1 ISZERO PUSH2 0x1C9A JUMPI PUSH1 0x0 DUP1 REVERT JUMPDEST POP GAS STATICCALL ISZERO DUP1 ISZERO PUSH2 0x1CAE JUMPI RETURNDATASIZE PUSH1 0x0 DUP1 RETURNDATACOPY RETURNDATASIZE PUSH1 0x0 REVERT JUMPDEST POP POP POP POP PUSH1 0x40 MLOAD RETURNDATASIZE PUSH1 0x1F NOT PUSH1 0x1F DUP3 ADD AND DUP3 ADD DUP1 PUSH1 0x40 MSTORE POP DUP2 ADD SWAP1 PUSH2 0x1CD2 SWAP2 SWAP1 PUSH2 0x6DBF JUMP JUMPDEST SWAP1 POP PUSH2 0x1CE9 PUSH1 0x1D SLOAD DUP3 PUSH2 0x5895 SWAP1 SWAP2 SWAP1 PUSH4 0xFFFFFFFF AND JUMP JUMPDEST DUP3 GT ISZERO PUSH2 0x1D2B JUMPI PUSH1 0x40 MLOAD PUSH32 0x8C379A000000000000000000000000000000000000000000000000000000000 DUP2 MSTORE PUSH1 0x4 ADD PUSH2 0x1D22 SWAP1 PUSH2 0x75B1 JUMP JUMPDEST PUSH1 0x40 MLOAD DUP1 SWAP2 SUB SWAP1 REVERT JUMPDEST POP JUMPDEST PUSH1 0x0 PUSH20 0xFFFFFFFFFFFFFFFFFFFFFFFFFFFFFFFFFFFFFFFF AND DUP3 PUSH20 0xFFFFFFFFFFFFFFFFFFFFFFFFFFFFFFFFFFFFFFFF AND EQ ISZERO PUSH2 0x1DAE JUMPI CALLER PUSH20 0xFFFFFFFFFFFFFFFFFFFFFFFFFFFFFFFFFFFFFFFF AND PUSH2 0x8FC DUP3 SWAP1 DUP2 ISZERO MUL SWAP1 PUSH1 0x40 MLOAD PUSH1 0x0 PUSH1 0x40 MLOAD DUP1 DUP4 SUB DUP2 DUP6 DUP9 DUP9 CALL SWAP4 POP POP POP POP ISZERO DUP1 ISZERO PUSH2 0x1DA8 JUMPI RETURNDATASIZE PUSH1 0x0 DUP1 RETURNDATACOPY RETURNDATASIZE PUSH1 0x0 REVERT JUMPDEST POP PUSH2 0x1DDA JUMP JUMPDEST PUSH2 0x1DD9 CALLER DUP3 DUP5 PUSH20 0xFFFFFFFFFFFFFFFFFFFFFFFFFFFFFFFFFFFFFFFF AND PUSH2 0x5AC0 SWAP1 SWAP3 SWAP2 SWAP1 PUSH4 0xFFFFFFFF AND JUMP JUMPDEST JUMPDEST PUSH32 0x74F5DCD55C394CB1C6D3B9DA22C2464BCC46C38CC3865BD629ED75823249B40B DUP3 DUP3 PUSH1 0x40 MLOAD PUSH2 0x1E0B SWAP3 SWAP2 SWAP1 PUSH2 0x7470 JUMP JUMPDEST PUSH1 0x40 MLOAD DUP1 SWAP2 SUB SWAP1 LOG1 POP POP JUMP JUMPDEST PUSH2 0x1E1F PUSH2 0x588D JUMP JUMPDEST PUSH20 0xFFFFFFFFFFFFFFFFFFFFFFFFFFFFFFFFFFFFFFFF AND PUSH2 0x1E3D PUSH2 0x3726 JUMP JUMPDEST PUSH20 0xFFFFFFFFFFFFFFFFFFFFFFFFFFFFFFFFFFFFFFFF AND EQ PUSH2 0x1E93 JUMPI PUSH1 0x40 MLOAD PUSH32 0x8C379A000000000000000000000000000000000000000000000000000000000 DUP2 MSTORE PUSH1 0x4 ADD PUSH2 0x1E8A SWAP1 PUSH2 0x7651 JUMP JUMPDEST PUSH1 0x40 MLOAD DUP1 SWAP2 SUB SWAP1 REVERT JUMPDEST PUSH2 0x1E9B PUSH2 0x58AB JUMP JUMPDEST PUSH1 0x0 PUSH1 0x18 PUSH1 0x0 SWAP1 SLOAD SWAP1 PUSH2 0x100 EXP SWAP1 DIV PUSH20 0xFFFFFFFFFFFFFFFFFFFFFFFFFFFFFFFFFFFFFFFF AND PUSH20 0xFFFFFFFFFFFFFFFFFFFFFFFFFFFFFFFFFFFFFFFF AND PUSH4 0x70A08231 ADDRESS PUSH1 0x40 MLOAD DUP3 PUSH4 0xFFFFFFFF AND PUSH1 0xE0 SHL DUP2 MSTORE PUSH1 0x4 ADD PUSH2 0x1EF8 SWAP2 SWAP1 PUSH2 0x73F5 JUMP JUMPDEST PUSH1 0x20 PUSH1 0x40 MLOAD DUP1 DUP4 SUB DUP2 DUP7 DUP1 EXTCODESIZE ISZERO DUP1 ISZERO PUSH2 0x1F10 JUMPI PUSH1 0x0 DUP1 REVERT JUMPDEST POP GAS STATICCALL ISZERO DUP1 ISZERO PUSH2 0x1F24 JUMPI RETURNDATASIZE PUSH1 0x0 DUP1 RETURNDATACOPY RETURNDATASIZE PUSH1 0x0 REVERT JUMPDEST POP POP POP POP PUSH1 0x40 MLOAD RETURNDATASIZE PUSH1 0x1F NOT PUSH1 0x1F DUP3 ADD AND DUP3 ADD DUP1 PUSH1 0x40 MSTORE POP DUP2 ADD SWAP1 PUSH2 0x1F48 SWAP2 SWAP1 PUSH2 0x6DBF JUMP JUMPDEST SWAP1 POP PUSH2 0x1F5F PUSH1 0x1D SLOAD DUP3 PUSH2 0x5895 SWAP1 SWAP2 SWAP1 PUSH4 0xFFFFFFFF AND JUMP JUMPDEST SWAP1 POP PUSH1 0x0 PUSH2 0x1FA0 PUSH1 0x20 SLOAD PUSH2 0x1F92 PUSH1 0x17 SLOAD PUSH2 0x1F84 PUSH1 0x1C SLOAD DUP8 PUSH2 0x5A94 SWAP1 SWAP2 SWAP1 PUSH4 0xFFFFFFFF AND JUMP JUMPDEST PUSH2 0x5AAA SWAP1 SWAP2 SWAP1 PUSH4 0xFFFFFFFF AND JUMP JUMPDEST PUSH2 0x5895 SWAP1 SWAP2 SWAP1 PUSH4 0xFFFFFFFF AND JUMP JUMPDEST SWAP1 POP PUSH1 0x0 DUP2 GT ISZERO PUSH2 0x20FC JUMPI PUSH1 0x0 PUSH20 0xFFFFFFFFFFFFFFFFFFFFFFFFFFFFFFFFFFFFFFFF AND PUSH1 0x1A PUSH1 0x0 SWAP1 SLOAD SWAP1 PUSH2 0x100 EXP SWAP1 DIV PUSH20 0xFFFFFFFFFFFFFFFFFFFFFFFFFFFFFFFFFFFFFFFF AND PUSH20 0xFFFFFFFFFFFFFFFFFFFFFFFFFFFFFFFFFFFFFFFF AND EQ ISZERO PUSH2 0x2070 JUMPI PUSH1 0x12 PUSH1 0x0 SWAP1 SLOAD SWAP1 PUSH2 0x100 EXP SWAP1 DIV PUSH20 0xFFFFFFFFFFFFFFFFFFFFFFFFFFFFFFFFFFFFFFFF AND PUSH20 0xFFFFFFFFFFFFFFFFFFFFFFFFFFFFFFFFFFFFFFFF AND PUSH2 0x8FC DUP3 SWAP1 DUP2 ISZERO MUL SWAP1 PUSH1 0x40 MLOAD PUSH1 0x0 PUSH1 0x40 MLOAD DUP1 DUP4 SUB DUP2 DUP6 DUP9 DUP9 CALL SWAP4 POP POP POP POP ISZERO DUP1 ISZERO PUSH2 0x206A JUMPI RETURNDATASIZE PUSH1 0x0 DUP1 RETURNDATACOPY RETURNDATASIZE PUSH1 0x0 REVERT JUMPDEST POP PUSH2 0x20E0 JUMP JUMPDEST PUSH2 0x20DF PUSH1 0x12 PUSH1 0x0 SWAP1 SLOAD SWAP1 PUSH2 0x100 EXP SWAP1 DIV PUSH20 0xFFFFFFFFFFFFFFFFFFFFFFFFFFFFFFFFFFFFFFFF AND DUP3 PUSH1 0x1A PUSH1 0x0 SWAP1 SLOAD SWAP1 PUSH2 0x100 EXP SWAP1 DIV PUSH20 0xFFFFFFFFFFFFFFFFFFFFFFFFFFFFFFFFFFFFFFFF AND PUSH20 0xFFFFFFFFFFFFFFFFFFFFFFFFFFFFFFFFFFFFFFFF AND PUSH2 0x5AC0 SWAP1 SWAP3 SWAP2 SWAP1 PUSH4 0xFFFFFFFF AND JUMP JUMPDEST JUMPDEST PUSH2 0x20F5 DUP2 PUSH1 0x1F SLOAD PUSH2 0x5895 SWAP1 SWAP2 SWAP1 PUSH4 0xFFFFFFFF AND JUMP JUMPDEST PUSH1 0x1F DUP2 SWAP1 SSTORE POP JUMPDEST PUSH2 0x2125 PUSH1 0x17 SLOAD PUSH2 0x2117 PUSH1 0x1C SLOAD DUP6 PUSH2 0x5A94 SWAP1 SWAP2 SWAP1 PUSH4 0xFFFFFFFF AND JUMP JUMPDEST PUSH2 0x5AAA SWAP1 SWAP2 SWAP1 PUSH4 0xFFFFFFFF AND JUMP JUMPDEST PUSH1 0x20 DUP2 SWAP1 SSTORE POP POP POP JUMP JUMPDEST PUSH1 0x6 SLOAD DUP2 JUMP JUMPDEST PUSH1 0x2 PUSH1 0x1 SLOAD EQ ISZERO PUSH2 0x217B JUMPI PUSH1 0x40 MLOAD PUSH32 0x8C379A000000000000000000000000000000000000000000000000000000000 DUP2 MSTORE PUSH1 0x4 ADD PUSH2 0x2172 SWAP1 PUSH2 0x77B1 JUMP JUMPDEST PUSH1 0x40 MLOAD DUP1 SWAP2 SUB SWAP1 REVERT JUMPDEST PUSH1 0x2 PUSH1 0x1 DUP2 SWAP1 SSTORE POP PUSH1 0x1 ISZERO ISZERO PUSH1 0x1A PUSH1 0x14 SWAP1 SLOAD SWAP1 PUSH2 0x100 EXP SWAP1 DIV PUSH1 0xFF AND ISZERO ISZERO EQ PUSH2 0x21D9 JUMPI PUSH1 0x40 MLOAD PUSH32 0x8C379A000000000000000000000000000000000000000000000000000000000 DUP2 MSTORE PUSH1 0x4 ADD PUSH2 0x21D0 SWAP1 PUSH2 0x7811 JUMP JUMPDEST PUSH1 0x40 MLOAD DUP1 SWAP2 SUB SWAP1 REVERT JUMPDEST PUSH1 0x0 PUSH1 0x21 PUSH1 0x0 CALLER PUSH20 0xFFFFFFFFFFFFFFFFFFFFFFFFFFFFFFFFFFFFFFFF AND PUSH20 0xFFFFFFFFFFFFFFFFFFFFFFFFFFFFFFFFFFFFFFFF AND DUP2 MSTORE PUSH1 0x20 ADD SWAP1 DUP2 MSTORE PUSH1 0x20 ADD PUSH1 0x0 KECCAK256 SWAP1 POP PUSH2 0x2224 PUSH2 0x5F03 JUMP JUMPDEST PUSH2 0x222C PUSH2 0x58AB JUMP JUMPDEST PUSH1 0x0 DUP2 PUSH1 0x0 ADD SLOAD EQ ISZERO PUSH2 0x223F JUMPI POP PUSH2 0x2853 JUMP JUMPDEST PUSH1 0x0 PUSH2 0x2284 DUP3 PUSH1 0x2 ADD SLOAD PUSH2 0x2276 PUSH1 0x17 SLOAD PUSH2 0x2268 PUSH1 0x1C SLOAD DUP8 PUSH1 0x0 ADD SLOAD PUSH2 0x5A94 SWAP1 SWAP2 SWAP1 PUSH4 0xFFFFFFFF AND JUMP JUMPDEST PUSH2 0x5AAA SWAP1 SWAP2 SWAP1 PUSH4 0xFFFFFFFF AND JUMP JUMPDEST PUSH2 0x5895 SWAP1 SWAP2 SWAP1 PUSH4 0xFFFFFFFF AND JUMP JUMPDEST SWAP1 POP PUSH1 0x0 DUP2 GT ISZERO PUSH2 0x281B JUMPI PUSH2 0x22A4 DUP2 PUSH1 0x1F SLOAD PUSH2 0x5895 SWAP1 SWAP2 SWAP1 PUSH4 0xFFFFFFFF AND JUMP JUMPDEST PUSH1 0x1F DUP2 SWAP1 SSTORE POP PUSH1 0x1A PUSH1 0x0 SWAP1 SLOAD SWAP1 PUSH2 0x100 EXP SWAP1 DIV PUSH20 0xFFFFFFFFFFFFFFFFFFFFFFFFFFFFFFFFFFFFFFFF AND PUSH20 0xFFFFFFFFFFFFFFFFFFFFFFFFFFFFFFFFFFFFFFFF AND PUSH1 0x18 PUSH1 0x0 SWAP1 SLOAD SWAP1 PUSH2 0x100 EXP SWAP1 DIV PUSH20 0xFFFFFFFFFFFFFFFFFFFFFFFFFFFFFFFFFFFFFFFF AND PUSH20 0xFFFFFFFFFFFFFFFFFFFFFFFFFFFFFFFFFFFFFFFF AND EQ PUSH2 0x2686 JUMPI PUSH1 0x0 PUSH20 0xFFFFFFFFFFFFFFFFFFFFFFFFFFFFFFFFFFFFFFFF AND PUSH1 0x1A PUSH1 0x0 SWAP1 SLOAD SWAP1 PUSH2 0x100 EXP SWAP1 DIV PUSH20 0xFFFFFFFFFFFFFFFFFFFFFFFFFFFFFFFFFFFFFFFF AND PUSH20 0xFFFFFFFFFFFFFFFFFFFFFFFFFFFFFFFFFFFFFFFF AND EQ ISZERO PUSH2 0x247F JUMPI PUSH1 0x0 PUSH1 0xB PUSH1 0x0 SWAP1 SLOAD SWAP1 PUSH2 0x100 EXP SWAP1 DIV PUSH20 0xFFFFFFFFFFFFFFFFFFFFFFFFFFFFFFFFFFFFFFFF AND PUSH20 0xFFFFFFFFFFFFFFFFFFFFFFFFFFFFFFFFFFFFFFFF AND PUSH4 0xAD5C4648 PUSH1 0x40 MLOAD DUP2 PUSH4 0xFFFFFFFF AND PUSH1 0xE0 SHL DUP2 MSTORE PUSH1 0x4 ADD PUSH1 0x20 PUSH1 0x40 MLOAD DUP1 DUP4 SUB DUP2 DUP7 DUP1 EXTCODESIZE ISZERO DUP1 ISZERO PUSH2 0x23E2 JUMPI PUSH1 0x0 DUP1 REVERT JUMPDEST POP GAS STATICCALL ISZERO DUP1 ISZERO PUSH2 0x23F6 JUMPI RETURNDATASIZE PUSH1 0x0 DUP1 RETURNDATACOPY RETURNDATASIZE PUSH1 0x0 REVERT JUMPDEST POP POP POP POP PUSH1 0x40 MLOAD RETURNDATASIZE PUSH1 0x1F NOT PUSH1 0x1F DUP3 ADD AND DUP3 ADD DUP1 PUSH1 0x40 MSTORE POP DUP2 ADD SWAP1 PUSH2 0x241A SWAP2 SWAP1 PUSH2 0x6B80 JUMP JUMPDEST SWAP1 POP DUP1 PUSH20 0xFFFFFFFFFFFFFFFFFFFFFFFFFFFFFFFFFFFFFFFF AND PUSH4 0xD0E30DB0 DUP4 PUSH1 0x40 MLOAD DUP3 PUSH4 0xFFFFFFFF AND PUSH1 0xE0 SHL DUP2 MSTORE PUSH1 0x4 ADD PUSH1 0x0 PUSH1 0x40 MLOAD DUP1 DUP4 SUB DUP2 DUP6 DUP9 DUP1 EXTCODESIZE ISZERO DUP1 ISZERO PUSH2 0x2464 JUMPI PUSH1 0x0 DUP1 REVERT JUMPDEST POP GAS CALL ISZERO DUP1 ISZERO PUSH2 0x2478 JUMPI RETURNDATASIZE PUSH1 0x0 DUP1 RETURNDATACOPY RETURNDATASIZE PUSH1 0x0 REVERT JUMPDEST POP POP POP POP POP POP JUMPDEST PUSH1 0x0 PUSH1 0x18 PUSH1 0x0 SWAP1 SLOAD SWAP1 PUSH2 0x100 EXP SWAP1 DIV PUSH20 0xFFFFFFFFFFFFFFFFFFFFFFFFFFFFFFFFFFFFFFFF AND PUSH20 0xFFFFFFFFFFFFFFFFFFFFFFFFFFFFFFFFFFFFFFFF AND PUSH4 0x70A08231 ADDRESS PUSH1 0x40 MLOAD DUP3 PUSH4 0xFFFFFFFF AND PUSH1 0xE0 SHL DUP2 MSTORE PUSH1 0x4 ADD PUSH2 0x24DC SWAP2 SWAP1 PUSH2 0x73F5 JUMP JUMPDEST PUSH1 0x20 PUSH1 0x40 MLOAD DUP1 DUP4 SUB DUP2 DUP7 DUP1 EXTCODESIZE ISZERO DUP1 ISZERO PUSH2 0x24F4 JUMPI PUSH1 0x0 DUP1 REVERT JUMPDEST POP GAS STATICCALL ISZERO DUP1 ISZERO PUSH2 0x2508 JUMPI RETURNDATASIZE PUSH1 0x0 DUP1 RETURNDATACOPY RETURNDATASIZE PUSH1 0x0 REVERT JUMPDEST POP POP POP POP PUSH1 0x40 MLOAD RETURNDATASIZE PUSH1 0x1F NOT PUSH1 0x1F DUP3 ADD AND DUP3 ADD DUP1 PUSH1 0x40 MSTORE POP DUP2 ADD SWAP1 PUSH2 0x252C SWAP2 SWAP1 PUSH2 0x6DBF JUMP JUMPDEST SWAP1 POP PUSH2 0x25BF DUP3 PUSH1 0xC DUP1 SLOAD DUP1 PUSH1 0x20 MUL PUSH1 0x20 ADD PUSH1 0x40 MLOAD SWAP1 DUP2 ADD PUSH1 0x40 MSTORE DUP1 SWAP3 SWAP2 SWAP1 DUP2 DUP2 MSTORE PUSH1 0x20 ADD DUP3 DUP1 SLOAD DUP1 ISZERO PUSH2 0x25B4 JUMPI PUSH1 0x20 MUL DUP3 ADD SWAP2 SWAP1 PUSH1 0x0 MSTORE PUSH1 0x20 PUSH1 0x0 KECCAK256 SWAP1 JUMPDEST DUP2 PUSH1 0x0 SWAP1 SLOAD SWAP1 PUSH2 0x100 EXP SWAP1 DIV PUSH20 0xFFFFFFFFFFFFFFFFFFFFFFFFFFFFFFFFFFFFFFFF AND PUSH20 0xFFFFFFFFFFFFFFFFFFFFFFFFFFFFFFFFFFFFFFFF AND DUP2 MSTORE PUSH1 0x20 ADD SWAP1 PUSH1 0x1 ADD SWAP1 DUP1 DUP4 GT PUSH2 0x256A JUMPI JUMPDEST POP POP POP POP POP ADDRESS PUSH2 0x601B JUMP JUMPDEST PUSH1 0x0 PUSH1 0x18 PUSH1 0x0 SWAP1 SLOAD SWAP1 PUSH2 0x100 EXP SWAP1 DIV PUSH20 0xFFFFFFFFFFFFFFFFFFFFFFFFFFFFFFFFFFFFFFFF AND PUSH20 0xFFFFFFFFFFFFFFFFFFFFFFFFFFFFFFFFFFFFFFFF AND PUSH4 0x70A08231 ADDRESS PUSH1 0x40 MLOAD DUP3 PUSH4 0xFFFFFFFF AND PUSH1 0xE0 SHL DUP2 MSTORE PUSH1 0x4 ADD PUSH2 0x261C SWAP2 SWAP1 PUSH2 0x73F5 JUMP JUMPDEST PUSH1 0x20 PUSH1 0x40 MLOAD DUP1 DUP4 SUB DUP2 DUP7 DUP1 EXTCODESIZE ISZERO DUP1 ISZERO PUSH2 0x2634 JUMPI PUSH1 0x0 DUP1 REVERT JUMPDEST POP GAS STATICCALL ISZERO DUP1 ISZERO PUSH2 0x2648 JUMPI RETURNDATASIZE PUSH1 0x0 DUP1 RETURNDATACOPY RETURNDATASIZE PUSH1 0x0 REVERT JUMPDEST POP POP POP POP PUSH1 0x40 MLOAD RETURNDATASIZE PUSH1 0x1F NOT PUSH1 0x1F DUP3 ADD AND DUP3 ADD DUP1 PUSH1 0x40 MSTORE POP DUP2 ADD SWAP1 PUSH2 0x266C SWAP2 SWAP1 PUSH2 0x6DBF JUMP JUMPDEST SWAP1 POP PUSH2 0x2681 DUP3 DUP3 PUSH2 0x5895 SWAP1 SWAP2 SWAP1 PUSH4 0xFFFFFFFF AND JUMP JUMPDEST SWAP3 POP POP POP JUMPDEST PUSH1 0x4 PUSH1 0x0 SWAP1 SLOAD SWAP1 PUSH2 0x100 EXP SWAP1 DIV PUSH1 0xFF AND ISZERO PUSH2 0x26F7 JUMPI PUSH1 0x5 SLOAD PUSH2 0x26B5 DUP4 PUSH1 0x0 ADD SLOAD DUP4 PUSH2 0x6228 SWAP1 SWAP2 SWAP1 PUSH4 0xFFFFFFFF AND JUMP JUMPDEST GT ISZERO PUSH2 0x26F6 JUMPI PUSH1 0x40 MLOAD PUSH32 0x8C379A000000000000000000000000000000000000000000000000000000000 DUP2 MSTORE PUSH1 0x4 ADD PUSH2 0x26ED SWAP1 PUSH2 0x76D1 JUMP JUMPDEST PUSH1 0x40 MLOAD DUP1 SWAP2 SUB SWAP1 REVERT JUMPDEST JUMPDEST PUSH2 0x270C DUP2 PUSH1 0x1D SLOAD PUSH2 0x6228 SWAP1 SWAP2 SWAP1 PUSH4 0xFFFFFFFF AND JUMP JUMPDEST PUSH1 0x1D DUP2 SWAP1 SSTORE POP PUSH2 0x2729 DUP2 DUP4 PUSH1 0x0 ADD SLOAD PUSH2 0x6228 SWAP1 SWAP2 SWAP1 PUSH4 0xFFFFFFFF AND JUMP JUMPDEST DUP3 PUSH1 0x0 ADD DUP2 SWAP1 SSTORE POP PUSH2 0x27C4 PUSH2 0x2789 DUP4 PUSH1 0x1 ADD SLOAD PUSH2 0x277B PUSH1 0x16 SLOAD PUSH2 0x276D PUSH1 0x1B SLOAD PUSH2 0x275F DUP9 DUP11 PUSH1 0x0 ADD SLOAD PUSH2 0x5895 SWAP1 SWAP2 SWAP1 PUSH4 0xFFFFFFFF AND JUMP JUMPDEST PUSH2 0x5A94 SWAP1 SWAP2 SWAP1 PUSH4 0xFFFFFFFF AND JUMP JUMPDEST PUSH2 0x5AAA SWAP1 SWAP2 SWAP1 PUSH4 0xFFFFFFFF AND JUMP JUMPDEST PUSH2 0x5895 SWAP1 SWAP2 SWAP1 PUSH4 0xFFFFFFFF AND JUMP JUMPDEST PUSH2 0x27B6 PUSH1 0x16 SLOAD PUSH2 0x27A8 PUSH1 0x1B SLOAD DUP8 PUSH1 0x0 ADD SLOAD PUSH2 0x5A94 SWAP1 SWAP2 SWAP1 PUSH4 0xFFFFFFFF AND JUMP JUMPDEST PUSH2 0x5AAA SWAP1 SWAP2 SWAP1 PUSH4 0xFFFFFFFF AND JUMP JUMPDEST PUSH2 0x5895 SWAP1 SWAP2 SWAP1 PUSH4 0xFFFFFFFF AND JUMP JUMPDEST DUP3 PUSH1 0x1 ADD DUP2 SWAP1 SSTORE POP CALLER PUSH20 0xFFFFFFFFFFFFFFFFFFFFFFFFFFFFFFFFFFFFFFFF AND PUSH32 0xE1FFFCC4923D04B559F4D29A8BFC6CDA04EB5B0D3C460751C2402C5C5CC9109C DUP3 PUSH1 0x40 MLOAD PUSH2 0x2812 SWAP2 SWAP1 PUSH2 0x7871 JUMP JUMPDEST PUSH1 0x40 MLOAD DUP1 SWAP2 SUB SWAP1 LOG2 JUMPDEST PUSH2 0x2848 PUSH1 0x17 SLOAD PUSH2 0x283A PUSH1 0x1C SLOAD DUP6 PUSH1 0x0 ADD SLOAD PUSH2 0x5A94 SWAP1 SWAP2 SWAP1 PUSH4 0xFFFFFFFF AND JUMP JUMPDEST PUSH2 0x5AAA SWAP1 SWAP2 SWAP1 PUSH4 0xFFFFFFFF AND JUMP JUMPDEST DUP3 PUSH1 0x2 ADD DUP2 SWAP1 SSTORE POP POP POP JUMPDEST PUSH1 0x1 DUP1 DUP2 SWAP1 SSTORE POP JUMP JUMPDEST PUSH1 0x5 SLOAD DUP2 JUMP JUMPDEST PUSH1 0xE SLOAD DUP2 JUMP JUMPDEST PUSH1 0xB PUSH1 0x0 SWAP1 SLOAD SWAP1 PUSH2 0x100 EXP SWAP1 DIV PUSH20 0xFFFFFFFFFFFFFFFFFFFFFFFFFFFFFFFFFFFFFFFF AND DUP2 JUMP JUMPDEST PUSH1 0x2 PUSH1 0x1 SLOAD EQ ISZERO PUSH2 0x28D4 JUMPI PUSH1 0x40 MLOAD PUSH32 0x8C379A000000000000000000000000000000000000000000000000000000000 DUP2 MSTORE PUSH1 0x4 ADD PUSH2 0x28CB SWAP1 PUSH2 0x77B1 JUMP JUMPDEST PUSH1 0x40 MLOAD DUP1 SWAP2 SUB SWAP1 REVERT JUMPDEST PUSH1 0x2 PUSH1 0x1 DUP2 SWAP1 SSTORE POP PUSH1 0x0 PUSH1 0x21 PUSH1 0x0 CALLER PUSH20 0xFFFFFFFFFFFFFFFFFFFFFFFFFFFFFFFFFFFFFFFF AND PUSH20 0xFFFFFFFFFFFFFFFFFFFFFFFFFFFFFFFFFFFFFFFF AND DUP2 MSTORE PUSH1 0x20 ADD SWAP1 DUP2 MSTORE PUSH1 0x20 ADD PUSH1 0x0 KECCAK256 SWAP1 POP PUSH2 0x2927 PUSH2 0x5F03 JUMP JUMPDEST PUSH2 0x292F PUSH2 0x58AB JUMP JUMPDEST PUSH1 0x0 DUP2 PUSH1 0x0 ADD SLOAD EQ ISZERO PUSH2 0x2942 JUMPI POP PUSH2 0x2E5A JUMP JUMPDEST PUSH1 0x0 PUSH2 0x2987 DUP3 PUSH1 0x1 ADD SLOAD PUSH2 0x2979 PUSH1 0x16 SLOAD PUSH2 0x296B PUSH1 0x1B SLOAD DUP8 PUSH1 0x0 ADD SLOAD PUSH2 0x5A94 SWAP1 SWAP2 SWAP1 PUSH4 0xFFFFFFFF AND JUMP JUMPDEST PUSH2 0x5AAA SWAP1 SWAP2 SWAP1 PUSH4 0xFFFFFFFF AND JUMP JUMPDEST PUSH2 0x5895 SWAP1 SWAP2 SWAP1 PUSH4 0xFFFFFFFF AND JUMP JUMPDEST SWAP1 POP PUSH1 0x0 DUP2 GT ISZERO PUSH2 0x2E22 JUMPI DUP1 PUSH2 0x299B PUSH2 0x376E JUMP JUMPDEST LT ISZERO PUSH2 0x29DC JUMPI PUSH1 0x40 MLOAD PUSH32 0x8C379A000000000000000000000000000000000000000000000000000000000 DUP2 MSTORE PUSH1 0x4 ADD PUSH2 0x29D3 SWAP1 PUSH2 0x7851 JUMP JUMPDEST PUSH1 0x40 MLOAD DUP1 SWAP2 SUB SWAP1 REVERT JUMPDEST DUP1 PUSH1 0x1E SLOAD GT ISZERO PUSH2 0x2A06 JUMPI PUSH2 0x29FB DUP2 PUSH1 0x1E SLOAD PUSH2 0x5895 SWAP1 SWAP2 SWAP1 PUSH4 0xFFFFFFFF AND JUMP JUMPDEST PUSH1 0x1E DUP2 SWAP1 SSTORE POP PUSH2 0x2A0F JUMP JUMPDEST PUSH1 0x0 PUSH1 0x1E DUP2 SWAP1 SSTORE POP JUMPDEST PUSH1 0x19 PUSH1 0x0 SWAP1 SLOAD SWAP1 PUSH2 0x100 EXP SWAP1 DIV PUSH20 0xFFFFFFFFFFFFFFFFFFFFFFFFFFFFFFFFFFFFFFFF AND PUSH20 0xFFFFFFFFFFFFFFFFFFFFFFFFFFFFFFFFFFFFFFFF AND PUSH1 0x18 PUSH1 0x0 SWAP1 SLOAD SWAP1 PUSH2 0x100 EXP SWAP1 DIV PUSH20 0xFFFFFFFFFFFFFFFFFFFFFFFFFFFFFFFFFFFFFFFF AND PUSH20 0xFFFFFFFFFFFFFFFFFFFFFFFFFFFFFFFFFFFFFFFF AND EQ PUSH2 0x2C8D JUMPI PUSH1 0x0 PUSH1 0x18 PUSH1 0x0 SWAP1 SLOAD SWAP1 PUSH2 0x100 EXP SWAP1 DIV PUSH20 0xFFFFFFFFFFFFFFFFFFFFFFFFFFFFFFFFFFFFFFFF AND PUSH20 0xFFFFFFFFFFFFFFFFFFFFFFFFFFFFFFFFFFFFFFFF AND PUSH4 0x70A08231 ADDRESS PUSH1 0x40 MLOAD DUP3 PUSH4 0xFFFFFFFF AND PUSH1 0xE0 SHL DUP2 MSTORE PUSH1 0x4 ADD PUSH2 0x2AE3 SWAP2 SWAP1 PUSH2 0x73F5 JUMP JUMPDEST PUSH1 0x20 PUSH1 0x40 MLOAD DUP1 DUP4 SUB DUP2 DUP7 DUP1 EXTCODESIZE ISZERO DUP1 ISZERO PUSH2 0x2AFB JUMPI PUSH1 0x0 DUP1 REVERT JUMPDEST POP GAS STATICCALL ISZERO DUP1 ISZERO PUSH2 0x2B0F JUMPI RETURNDATASIZE PUSH1 0x0 DUP1 RETURNDATACOPY RETURNDATASIZE PUSH1 0x0 REVERT JUMPDEST POP POP POP POP PUSH1 0x40 MLOAD RETURNDATASIZE PUSH1 0x1F NOT PUSH1 0x1F DUP3 ADD AND DUP3 ADD DUP1 PUSH1 0x40 MSTORE POP DUP2 ADD SWAP1 PUSH2 0x2B33 SWAP2 SWAP1 PUSH2 0x6DBF JUMP JUMPDEST SWAP1 POP PUSH2 0x2BC6 DUP3 PUSH1 0xD DUP1 SLOAD DUP1 PUSH1 0x20 MUL PUSH1 0x20 ADD PUSH1 0x40 MLOAD SWAP1 DUP2 ADD PUSH1 0x40 MSTORE DUP1 SWAP3 SWAP2 SWAP1 DUP2 DUP2 MSTORE PUSH1 0x20 ADD DUP3 DUP1 SLOAD DUP1 ISZERO PUSH2 0x2BBB JUMPI PUSH1 0x20 MUL DUP3 ADD SWAP2 SWAP1 PUSH1 0x0 MSTORE PUSH1 0x20 PUSH1 0x0 KECCAK256 SWAP1 JUMPDEST DUP2 PUSH1 0x0 SWAP1 SLOAD SWAP1 PUSH2 0x100 EXP SWAP1 DIV PUSH20 0xFFFFFFFFFFFFFFFFFFFFFFFFFFFFFFFFFFFFFFFF AND PUSH20 0xFFFFFFFFFFFFFFFFFFFFFFFFFFFFFFFFFFFFFFFF AND DUP2 MSTORE PUSH1 0x20 ADD SWAP1 PUSH1 0x1 ADD SWAP1 DUP1 DUP4 GT PUSH2 0x2B71 JUMPI JUMPDEST POP POP POP POP POP ADDRESS PUSH2 0x601B JUMP JUMPDEST PUSH1 0x0 PUSH1 0x18 PUSH1 0x0 SWAP1 SLOAD SWAP1 PUSH2 0x100 EXP SWAP1 DIV PUSH20 0xFFFFFFFFFFFFFFFFFFFFFFFFFFFFFFFFFFFFFFFF AND PUSH20 0xFFFFFFFFFFFFFFFFFFFFFFFFFFFFFFFFFFFFFFFF AND PUSH4 0x70A08231 ADDRESS PUSH1 0x40 MLOAD DUP3 PUSH4 0xFFFFFFFF AND PUSH1 0xE0 SHL DUP2 MSTORE PUSH1 0x4 ADD PUSH2 0x2C23 SWAP2 SWAP1 PUSH2 0x73F5 JUMP JUMPDEST PUSH1 0x20 PUSH1 0x40 MLOAD DUP1 DUP4 SUB DUP2 DUP7 DUP1 EXTCODESIZE ISZERO DUP1 ISZERO PUSH2 0x2C3B JUMPI PUSH1 0x0 DUP1 REVERT JUMPDEST POP GAS STATICCALL ISZERO DUP1 ISZERO PUSH2 0x2C4F JUMPI RETURNDATASIZE PUSH1 0x0 DUP1 RETURNDATACOPY RETURNDATASIZE PUSH1 0x0 REVERT JUMPDEST POP POP POP POP PUSH1 0x40 MLOAD RETURNDATASIZE PUSH1 0x1F NOT PUSH1 0x1F DUP3 ADD AND DUP3 ADD DUP1 PUSH1 0x40 MSTORE POP DUP2 ADD SWAP1 PUSH2 0x2C73 SWAP2 SWAP1 PUSH2 0x6DBF JUMP JUMPDEST SWAP1 POP PUSH2 0x2C88 DUP3 DUP3 PUSH2 0x5895 SWAP1 SWAP2 SWAP1 PUSH4 0xFFFFFFFF AND JUMP JUMPDEST SWAP3 POP POP POP JUMPDEST PUSH1 0x4 PUSH1 0x0 SWAP1 SLOAD SWAP1 PUSH2 0x100 EXP SWAP1 DIV PUSH1 0xFF AND ISZERO PUSH2 0x2CFE JUMPI PUSH1 0x5 SLOAD PUSH2 0x2CBC DUP4 PUSH1 0x0 ADD SLOAD DUP4 PUSH2 0x6228 SWAP1 SWAP2 SWAP1 PUSH4 0xFFFFFFFF AND JUMP JUMPDEST GT ISZERO PUSH2 0x2CFD JUMPI PUSH1 0x40 MLOAD PUSH32 0x8C379A000000000000000000000000000000000000000000000000000000000 DUP2 MSTORE PUSH1 0x4 ADD PUSH2 0x2CF4 SWAP1 PUSH2 0x76D1 JUMP JUMPDEST PUSH1 0x40 MLOAD DUP1 SWAP2 SUB SWAP1 REVERT JUMPDEST JUMPDEST PUSH2 0x2D13 DUP2 PUSH1 0x1D SLOAD PUSH2 0x6228 SWAP1 SWAP2 SWAP1 PUSH4 0xFFFFFFFF AND JUMP JUMPDEST PUSH1 0x1D DUP2 SWAP1 SSTORE POP PUSH2 0x2D30 DUP2 DUP4 PUSH1 0x0 ADD SLOAD PUSH2 0x6228 SWAP1 SWAP2 SWAP1 PUSH4 0xFFFFFFFF AND JUMP JUMPDEST DUP3 PUSH1 0x0 ADD DUP2 SWAP1 SSTORE POP PUSH2 0x2DCB PUSH2 0x2D90 DUP4 PUSH1 0x2 ADD SLOAD PUSH2 0x2D82 PUSH1 0x17 SLOAD PUSH2 0x2D74 PUSH1 0x1C SLOAD PUSH2 0x2D66 DUP9 DUP11 PUSH1 0x0 ADD SLOAD PUSH2 0x5895 SWAP1 SWAP2 SWAP1 PUSH4 0xFFFFFFFF AND JUMP JUMPDEST PUSH2 0x5A94 SWAP1 SWAP2 SWAP1 PUSH4 0xFFFFFFFF AND JUMP JUMPDEST PUSH2 0x5AAA SWAP1 SWAP2 SWAP1 PUSH4 0xFFFFFFFF AND JUMP JUMPDEST PUSH2 0x5895 SWAP1 SWAP2 SWAP1 PUSH4 0xFFFFFFFF AND JUMP JUMPDEST PUSH2 0x2DBD PUSH1 0x17 SLOAD PUSH2 0x2DAF PUSH1 0x1C SLOAD DUP8 PUSH1 0x0 ADD SLOAD PUSH2 0x5A94 SWAP1 SWAP2 SWAP1 PUSH4 0xFFFFFFFF AND JUMP JUMPDEST PUSH2 0x5AAA SWAP1 SWAP2 SWAP1 PUSH4 0xFFFFFFFF AND JUMP JUMPDEST PUSH2 0x5895 SWAP1 SWAP2 SWAP1 PUSH4 0xFFFFFFFF AND JUMP JUMPDEST DUP3 PUSH1 0x2 ADD DUP2 SWAP1 SSTORE POP CALLER PUSH20 0xFFFFFFFFFFFFFFFFFFFFFFFFFFFFFFFFFFFFFFFF AND PUSH32 0xE1FFFCC4923D04B559F4D29A8BFC6CDA04EB5B0D3C460751C2402C5C5CC9109C DUP3 PUSH1 0x40 MLOAD PUSH2 0x2E19 SWAP2 SWAP1 PUSH2 0x7871 JUMP JUMPDEST PUSH1 0x40 MLOAD DUP1 SWAP2 SUB SWAP1 LOG2 JUMPDEST PUSH2 0x2E4F PUSH1 0x16 SLOAD PUSH2 0x2E41 PUSH1 0x1B SLOAD DUP6 PUSH1 0x0 ADD SLOAD PUSH2 0x5A94 SWAP1 SWAP2 SWAP1 PUSH4 0xFFFFFFFF AND JUMP JUMPDEST PUSH2 0x5AAA SWAP1 SWAP2 SWAP1 PUSH4 0xFFFFFFFF AND JUMP JUMPDEST DUP3 PUSH1 0x1 ADD DUP2 SWAP1 SSTORE POP POP POP JUMPDEST PUSH1 0x1 DUP1 DUP2 SWAP1 SSTORE POP JUMP JUMPDEST PUSH1 0x19 PUSH1 0x0 SWAP1 SLOAD SWAP1 PUSH2 0x100 EXP SWAP1 DIV PUSH20 0xFFFFFFFFFFFFFFFFFFFFFFFFFFFFFFFFFFFFFFFF AND DUP2 JUMP JUMPDEST PUSH2 0x2E91 PUSH2 0x588D JUMP JUMPDEST PUSH20 0xFFFFFFFFFFFFFFFFFFFFFFFFFFFFFFFFFFFFFFFF AND PUSH2 0x2EAF PUSH2 0x3726 JUMP JUMPDEST PUSH20 0xFFFFFFFFFFFFFFFFFFFFFFFFFFFFFFFFFFFFFFFF AND EQ PUSH2 0x2F05 JUMPI PUSH1 0x40 MLOAD PUSH32 0x8C379A000000000000000000000000000000000000000000000000000000000 DUP2 MSTORE PUSH1 0x4 ADD PUSH2 0x2EFC SWAP1 PUSH2 0x7651 JUMP JUMPDEST PUSH1 0x40 MLOAD DUP1 SWAP2 SUB SWAP1 REVERT JUMPDEST PUSH2 0x2F0F PUSH1 0x0 PUSH2 0x623E JUMP JUMPDEST JUMP JUMPDEST PUSH1 0x18 PUSH1 0x0 SWAP1 SLOAD SWAP1 PUSH2 0x100 EXP SWAP1 DIV PUSH20 0xFFFFFFFFFFFFFFFFFFFFFFFFFFFFFFFFFFFFFFFF AND DUP2 JUMP JUMPDEST PUSH2 0x2F3F PUSH2 0x588D JUMP JUMPDEST PUSH20 0xFFFFFFFFFFFFFFFFFFFFFFFFFFFFFFFFFFFFFFFF AND PUSH2 0x2F5D PUSH2 0x3726 JUMP JUMPDEST PUSH20 0xFFFFFFFFFFFFFFFFFFFFFFFFFFFFFFFFFFFFFFFF AND EQ PUSH2 0x2FB3 JUMPI PUSH1 0x40 MLOAD PUSH32 0x8C379A000000000000000000000000000000000000000000000000000000000 DUP2 MSTORE PUSH1 0x4 ADD PUSH2 0x2FAA SWAP1 PUSH2 0x7651 JUMP JUMPDEST PUSH1 0x40 MLOAD DUP1 SWAP2 SUB SWAP1 REVERT JUMPDEST PUSH1 0x0 PUSH1 0x6 SLOAD EQ PUSH2 0x2FF8 JUMPI PUSH1 0x40 MLOAD PUSH32 0x8C379A000000000000000000000000000000000000000000000000000000000 DUP2 MSTORE PUSH1 0x4 ADD PUSH2 0x2FEF SWAP1 PUSH2 0x74F1 JUMP JUMPDEST PUSH1 0x40 MLOAD DUP1 SWAP2 SUB SWAP1 REVERT JUMPDEST PUSH2 0x300C PUSH1 0x64 NUMBER PUSH2 0x6228 SWAP1 SWAP2 SWAP1 PUSH4 0xFFFFFFFF AND JUMP JUMPDEST PUSH1 0x6 DUP2 SWAP1 SSTORE POP PUSH2 0x3036 PUSH2 0x7080 PUSH1 0x3 SLOAD PUSH2 0x3025 SWAP2 SWAP1 PUSH2 0x7CD3 JUMP JUMPDEST PUSH1 0x6 SLOAD PUSH2 0x6228 SWAP1 SWAP2 SWAP1 PUSH4 0xFFFFFFFF AND JUMP JUMPDEST PUSH1 0x7 DUP2 SWAP1 SSTORE POP PUSH1 0x6 SLOAD PUSH1 0x9 DUP2 SWAP1 SSTORE POP PUSH32 0x7CD0AB87D19036F3DFADADB232C78AA4879DDA3F0C994A9D637532410EE2CE06 PUSH1 0x6 SLOAD PUSH1 0x7 SLOAD PUSH1 0x40 MLOAD PUSH2 0x307A SWAP3 SWAP2 SWAP1 PUSH2 0x78BC JUMP JUMPDEST PUSH1 0x40 MLOAD DUP1 SWAP2 SUB SWAP1 LOG1 JUMP JUMPDEST PUSH1 0x13 PUSH1 0x0 SWAP1 SLOAD SWAP1 PUSH2 0x100 EXP SWAP1 DIV PUSH20 0xFFFFFFFFFFFFFFFFFFFFFFFFFFFFFFFFFFFFFFFF AND DUP2 JUMP JUMPDEST PUSH2 0x30B2 PUSH2 0x588D JUMP JUMPDEST PUSH20 0xFFFFFFFFFFFFFFFFFFFFFFFFFFFFFFFFFFFFFFFF AND PUSH2 0x30D0 PUSH2 0x3726 JUMP JUMPDEST PUSH20 0xFFFFFFFFFFFFFFFFFFFFFFFFFFFFFFFFFFFFFFFF AND EQ PUSH2 0x3126 JUMPI PUSH1 0x40 MLOAD PUSH32 0x8C379A000000000000000000000000000000000000000000000000000000000 DUP2 MSTORE PUSH1 0x4 ADD PUSH2 0x311D SWAP1 PUSH2 0x7651 JUMP JUMPDEST PUSH1 0x40 MLOAD DUP1 SWAP2 SUB SWAP1 REVERT JUMPDEST PUSH1 0x0 PUSH20 0xFFFFFFFFFFFFFFFFFFFFFFFFFFFFFFFFFFFFFFFF AND DUP2 PUSH20 0xFFFFFFFFFFFFFFFFFFFFFFFFFFFFFFFFFFFFFFFF AND EQ ISZERO DUP1 PUSH2 0x31B0 JUMPI POP PUSH1 0x12 PUSH1 0x0 SWAP1 SLOAD SWAP1 PUSH2 0x100 EXP SWAP1 DIV PUSH20 0xFFFFFFFFFFFFFFFFFFFFFFFFFFFFFFFFFFFFFFFF AND PUSH20 0xFFFFFFFFFFFFFFFFFFFFFFFFFFFFFFFFFFFFFFFF AND DUP2 PUSH20 0xFFFFFFFFFFFFFFFFFFFFFFFFFFFFFFFFFFFFFFFF AND EQ ISZERO JUMPDEST PUSH2 0x31EF JUMPI PUSH1 0x40 MLOAD PUSH32 0x8C379A000000000000000000000000000000000000000000000000000000000 DUP2 MSTORE PUSH1 0x4 ADD PUSH2 0x31E6 SWAP1 PUSH2 0x7531 JUMP JUMPDEST PUSH1 0x40 MLOAD DUP1 SWAP2 SUB SWAP1 REVERT JUMPDEST DUP1 PUSH1 0x12 PUSH1 0x0 PUSH2 0x100 EXP DUP2 SLOAD DUP2 PUSH20 0xFFFFFFFFFFFFFFFFFFFFFFFFFFFFFFFFFFFFFFFF MUL NOT AND SWAP1 DUP4 PUSH20 0xFFFFFFFFFFFFFFFFFFFFFFFFFFFFFFFFFFFFFFFF AND MUL OR SWAP1 SSTORE POP PUSH32 0x6DE6DDF87FBCE1F42220B349684D9B952EAC9BFFD639FD2093096032CB1D4D4E DUP2 PUSH1 0x40 MLOAD PUSH2 0x325F SWAP2 SWAP1 PUSH2 0x73F5 JUMP JUMPDEST PUSH1 0x40 MLOAD DUP1 SWAP2 SUB SWAP1 LOG1 POP JUMP JUMPDEST PUSH2 0x3272 PUSH2 0x588D JUMP JUMPDEST PUSH20 0xFFFFFFFFFFFFFFFFFFFFFFFFFFFFFFFFFFFFFFFF AND PUSH2 0x3290 PUSH2 0x3726 JUMP JUMPDEST PUSH20 0xFFFFFFFFFFFFFFFFFFFFFFFFFFFFFFFFFFFFFFFF AND EQ PUSH2 0x32E6 JUMPI PUSH1 0x40 MLOAD PUSH32 0x8C379A000000000000000000000000000000000000000000000000000000000 DUP2 MSTORE PUSH1 0x4 ADD PUSH2 0x32DD SWAP1 PUSH2 0x7651 JUMP JUMPDEST PUSH1 0x40 MLOAD DUP1 SWAP2 SUB SWAP1 REVERT JUMPDEST NUMBER PUSH1 0x7 DUP2 SWAP1 SSTORE POP JUMP JUMPDEST PUSH1 0x1D SLOAD DUP2 JUMP JUMPDEST PUSH1 0x14 PUSH1 0x0 SWAP1 SLOAD SWAP1 PUSH2 0x100 EXP SWAP1 DIV PUSH20 0xFFFFFFFFFFFFFFFFFFFFFFFFFFFFFFFFFFFFFFFF AND PUSH20 0xFFFFFFFFFFFFFFFFFFFFFFFFFFFFFFFFFFFFFFFF AND CALLER PUSH20 0xFFFFFFFFFFFFFFFFFFFFFFFFFFFFFFFFFFFFFFFF AND EQ PUSH2 0x3385 JUMPI PUSH1 0x40 MLOAD PUSH32 0x8C379A000000000000000000000000000000000000000000000000000000000 DUP2 MSTORE PUSH1 0x4 ADD PUSH2 0x337C SWAP1 PUSH2 0x7611 JUMP JUMPDEST PUSH1 0x40 MLOAD DUP1 SWAP2 SUB SWAP1 REVERT JUMPDEST PUSH1 0x0 PUSH20 0xFFFFFFFFFFFFFFFFFFFFFFFFFFFFFFFFFFFFFFFF AND DUP3 PUSH20 0xFFFFFFFFFFFFFFFFFFFFFFFFFFFFFFFFFFFFFFFF AND EQ ISZERO DUP1 PUSH2 0x340F JUMPI POP PUSH1 0x14 PUSH1 0x0 SWAP1 SLOAD SWAP1 PUSH2 0x100 EXP SWAP1 DIV PUSH20 0xFFFFFFFFFFFFFFFFFFFFFFFFFFFFFFFFFFFFFFFF AND PUSH20 0xFFFFFFFFFFFFFFFFFFFFFFFFFFFFFFFFFFFFFFFF AND DUP3 PUSH20 0xFFFFFFFFFFFFFFFFFFFFFFFFFFFFFFFFFFFFFFFF AND EQ ISZERO JUMPDEST PUSH2 0x344E JUMPI PUSH1 0x40 MLOAD PUSH32 0x8C379A000000000000000000000000000000000000000000000000000000000 DUP2 MSTORE PUSH1 0x4 ADD PUSH2 0x3445 SWAP1 PUSH2 0x7531 JUMP JUMPDEST PUSH1 0x40 MLOAD DUP1 SWAP2 SUB SWAP1 REVERT JUMPDEST DUP2 PUSH1 0x14 PUSH1 0x0 PUSH2 0x100 EXP DUP2 SLOAD DUP2 PUSH20 0xFFFFFFFFFFFFFFFFFFFFFFFFFFFFFFFFFFFFFFFF MUL NOT AND SWAP1 DUP4 PUSH20 0xFFFFFFFFFFFFFFFFFFFFFFFFFFFFFFFFFFFFFFFF AND MUL OR SWAP1 SSTORE POP DUP1 PUSH1 0x15 DUP2 SWAP1 SSTORE POP PUSH32 0x232F2E6280D2064B1E439BF40ECDADA042D84EEFBB55039E4C49E8DC4F4C90C9 DUP3 DUP3 PUSH1 0x40 MLOAD PUSH2 0x34C7 SWAP3 SWAP2 SWAP1 PUSH2 0x7470 JUMP JUMPDEST PUSH1 0x40 MLOAD DUP1 SWAP2 SUB SWAP1 LOG1 POP POP JUMP JUMPDEST PUSH1 0x15 SLOAD DUP2 JUMP JUMPDEST PUSH1 0x17 SLOAD DUP2 JUMP JUMPDEST PUSH1 0x8 SLOAD DUP2 JUMP JUMPDEST PUSH1 0x2 PUSH1 0x1 SLOAD EQ ISZERO PUSH2 0x352B JUMPI PUSH1 0x40 MLOAD PUSH32 0x8C379A000000000000000000000000000000000000000000000000000000000 DUP2 MSTORE PUSH1 0x4 ADD PUSH2 0x3522 SWAP1 PUSH2 0x77B1 JUMP JUMPDEST PUSH1 0x40 MLOAD DUP1 SWAP2 SUB SWAP1 REVERT JUMPDEST PUSH1 0x2 PUSH1 0x1 DUP2 SWAP1 SSTORE POP PUSH1 0x0 DUP2 GT PUSH2 0x3540 JUMPI PUSH1 0x0 DUP1 REVERT JUMPDEST PUSH1 0x0 PUSH1 0x19 PUSH1 0x0 SWAP1 SLOAD SWAP1 PUSH2 0x100 EXP SWAP1 DIV PUSH20 0xFFFFFFFFFFFFFFFFFFFFFFFFFFFFFFFFFFFFFFFF AND PUSH20 0xFFFFFFFFFFFFFFFFFFFFFFFFFFFFFFFFFFFFFFFF AND PUSH4 0x70A08231 ADDRESS PUSH1 0x40 MLOAD DUP3 PUSH4 0xFFFFFFFF AND PUSH1 0xE0 SHL DUP2 MSTORE PUSH1 0x4 ADD PUSH2 0x359D SWAP2 SWAP1 PUSH2 0x73F5 JUMP JUMPDEST PUSH1 0x20 PUSH1 0x40 MLOAD DUP1 DUP4 SUB DUP2 DUP7 DUP1 EXTCODESIZE ISZERO DUP1 ISZERO PUSH2 0x35B5 JUMPI PUSH1 0x0 DUP1 REVERT JUMPDEST POP GAS STATICCALL ISZERO DUP1 ISZERO PUSH2 0x35C9 JUMPI RETURNDATASIZE PUSH1 0x0 DUP1 RETURNDATACOPY RETURNDATASIZE PUSH1 0x0 REVERT JUMPDEST POP POP POP POP PUSH1 0x40 MLOAD RETURNDATASIZE PUSH1 0x1F NOT PUSH1 0x1F DUP3 ADD AND DUP3 ADD DUP1 PUSH1 0x40 MSTORE POP DUP2 ADD SWAP1 PUSH2 0x35ED SWAP2 SWAP1 PUSH2 0x6DBF JUMP JUMPDEST SWAP1 POP PUSH2 0x363E CALLER ADDRESS DUP5 PUSH1 0x19 PUSH1 0x0 SWAP1 SLOAD SWAP1 PUSH2 0x100 EXP SWAP1 DIV PUSH20 0xFFFFFFFFFFFFFFFFFFFFFFFFFFFFFFFFFFFFFFFF AND PUSH20 0xFFFFFFFFFFFFFFFFFFFFFFFFFFFFFFFFFFFFFFFF AND PUSH2 0x6302 SWAP1 SWAP4 SWAP3 SWAP2 SWAP1 PUSH4 0xFFFFFFFF AND JUMP JUMPDEST PUSH1 0x0 PUSH1 0x19 PUSH1 0x0 SWAP1 SLOAD SWAP1 PUSH2 0x100 EXP SWAP1 DIV PUSH20 0xFFFFFFFFFFFFFFFFFFFFFFFFFFFFFFFFFFFFFFFF AND PUSH20 0xFFFFFFFFFFFFFFFFFFFFFFFFFFFFFFFFFFFFFFFF AND PUSH4 0x70A08231 ADDRESS PUSH1 0x40 MLOAD DUP3 PUSH4 0xFFFFFFFF AND PUSH1 0xE0 SHL DUP2 MSTORE PUSH1 0x4 ADD PUSH2 0x369B SWAP2 SWAP1 PUSH2 0x73F5 JUMP JUMPDEST PUSH1 0x20 PUSH1 0x40 MLOAD DUP1 DUP4 SUB DUP2 DUP7 DUP1 EXTCODESIZE ISZERO DUP1 ISZERO PUSH2 0x36B3 JUMPI PUSH1 0x0 DUP1 REVERT JUMPDEST POP GAS STATICCALL ISZERO DUP1 ISZERO PUSH2 0x36C7 JUMPI RETURNDATASIZE PUSH1 0x0 DUP1 RETURNDATACOPY RETURNDATASIZE PUSH1 0x0 REVERT JUMPDEST POP POP POP POP PUSH1 0x40 MLOAD RETURNDATASIZE PUSH1 0x1F NOT PUSH1 0x1F DUP3 ADD AND DUP3 ADD DUP1 PUSH1 0x40 MSTORE POP DUP2 ADD SWAP1 PUSH2 0x36EB SWAP2 SWAP1 PUSH2 0x6DBF JUMP JUMPDEST SWAP1 POP PUSH2 0x3714 DUP3 PUSH2 0x3706 DUP4 PUSH1 0x1E SLOAD PUSH2 0x6228 SWAP1 SWAP2 SWAP1 PUSH4 0xFFFFFFFF AND JUMP JUMPDEST PUSH2 0x5895 SWAP1 SWAP2 SWAP1 PUSH4 0xFFFFFFFF AND JUMP JUMPDEST PUSH1 0x1E DUP2 SWAP1 SSTORE POP POP POP PUSH1 0x1 DUP1 DUP2 SWAP1 SSTORE POP POP JUMP JUMPDEST PUSH1 0x0 DUP1 PUSH1 0x0 SWAP1 SLOAD SWAP1 PUSH2 0x100 EXP SWAP1 DIV PUSH20 0xFFFFFFFFFFFFFFFFFFFFFFFFFFFFFFFFFFFFFFFF AND SWAP1 POP SWAP1 JUMP JUMPDEST PUSH1 0x1B SLOAD DUP2 JUMP JUMPDEST PUSH1 0x1C SLOAD DUP2 JUMP JUMPDEST PUSH1 0x4 PUSH1 0x0 SWAP1 SLOAD SWAP1 PUSH2 0x100 EXP SWAP1 DIV PUSH1 0xFF AND DUP2 JUMP JUMPDEST PUSH1 0x0 PUSH1 0x1A PUSH1 0x0 SWAP1 SLOAD SWAP1 PUSH2 0x100 EXP SWAP1 DIV PUSH20 0xFFFFFFFFFFFFFFFFFFFFFFFFFFFFFFFFFFFFFFFF AND PUSH20 0xFFFFFFFFFFFFFFFFFFFFFFFFFFFFFFFFFFFFFFFF AND PUSH1 0x19 PUSH1 0x0 SWAP1 SLOAD SWAP1 PUSH2 0x100 EXP SWAP1 DIV PUSH20 0xFFFFFFFFFFFFFFFFFFFFFFFFFFFFFFFFFFFFFFFF AND PUSH20 0xFFFFFFFFFFFFFFFFFFFFFFFFFFFFFFFFFFFFFFFF AND EQ ISZERO PUSH2 0x37F2 JUMPI PUSH1 0x1E SLOAD SWAP1 POP PUSH2 0x394F JUMP JUMPDEST PUSH1 0x0 PUSH1 0x19 PUSH1 0x0 SWAP1 SLOAD SWAP1 PUSH2 0x100 EXP SWAP1 DIV PUSH20 0xFFFFFFFFFFFFFFFFFFFFFFFFFFFFFFFFFFFFFFFF AND PUSH20 0xFFFFFFFFFFFFFFFFFFFFFFFFFFFFFFFFFFFFFFFF AND PUSH4 0x70A08231 ADDRESS PUSH1 0x40 MLOAD DUP3 PUSH4 0xFFFFFFFF AND PUSH1 0xE0 SHL DUP2 MSTORE PUSH1 0x4 ADD PUSH2 0x384F SWAP2 SWAP1 PUSH2 0x73F5 JUMP JUMPDEST PUSH1 0x20 PUSH1 0x40 MLOAD DUP1 DUP4 SUB DUP2 DUP7 DUP1 EXTCODESIZE ISZERO DUP1 ISZERO PUSH2 0x3867 JUMPI PUSH1 0x0 DUP1 REVERT JUMPDEST POP GAS STATICCALL ISZERO DUP1 ISZERO PUSH2 0x387B JUMPI RETURNDATASIZE PUSH1 0x0 DUP1 RETURNDATACOPY RETURNDATASIZE PUSH1 0x0 REVERT JUMPDEST POP POP POP POP PUSH1 0x40 MLOAD RETURNDATASIZE PUSH1 0x1F NOT PUSH1 0x1F DUP3 ADD AND DUP3 ADD DUP1 PUSH1 0x40 MSTORE POP DUP2 ADD SWAP1 PUSH2 0x389F SWAP2 SWAP1 PUSH2 0x6DBF JUMP JUMPDEST SWAP1 POP PUSH1 0x18 PUSH1 0x0 SWAP1 SLOAD SWAP1 PUSH2 0x100 EXP SWAP1 DIV PUSH20 0xFFFFFFFFFFFFFFFFFFFFFFFFFFFFFFFFFFFFFFFF AND PUSH20 0xFFFFFFFFFFFFFFFFFFFFFFFFFFFFFFFFFFFFFFFF AND PUSH1 0x19 PUSH1 0x0 SWAP1 SLOAD SWAP1 PUSH2 0x100 EXP SWAP1 DIV PUSH20 0xFFFFFFFFFFFFFFFFFFFFFFFFFFFFFFFFFFFFFFFF AND PUSH20 0xFFFFFFFFFFFFFFFFFFFFFFFFFFFFFFFFFFFFFFFF AND EQ ISZERO PUSH2 0x394A JUMPI PUSH1 0x1D SLOAD DUP2 LT ISZERO PUSH2 0x392D JUMPI PUSH1 0x0 SWAP2 POP POP PUSH2 0x394F JUMP JUMPDEST PUSH2 0x3942 PUSH1 0x1D SLOAD DUP3 PUSH2 0x5895 SWAP1 SWAP2 SWAP1 PUSH4 0xFFFFFFFF AND JUMP JUMPDEST SWAP2 POP POP PUSH2 0x394F JUMP JUMPDEST DUP1 SWAP2 POP POP JUMPDEST SWAP1 JUMP JUMPDEST PUSH2 0x395A PUSH2 0x588D JUMP JUMPDEST PUSH20 0xFFFFFFFFFFFFFFFFFFFFFFFFFFFFFFFFFFFFFFFF AND PUSH2 0x3978 PUSH2 0x3726 JUMP JUMPDEST PUSH20 0xFFFFFFFFFFFFFFFFFFFFFFFFFFFFFFFFFFFFFFFF AND EQ PUSH2 0x39CE JUMPI PUSH1 0x40 MLOAD PUSH32 0x8C379A000000000000000000000000000000000000000000000000000000000 DUP2 MSTORE PUSH1 0x4 ADD PUSH2 0x39C5 SWAP1 PUSH2 0x7651 JUMP JUMPDEST PUSH1 0x40 MLOAD DUP1 SWAP2 SUB SWAP1 REVERT JUMPDEST PUSH1 0x4 PUSH1 0x0 SWAP1 SLOAD SWAP1 PUSH2 0x100 EXP SWAP1 DIV PUSH1 0xFF AND PUSH2 0x3A1D JUMPI PUSH1 0x40 MLOAD PUSH32 0x8C379A000000000000000000000000000000000000000000000000000000000 DUP2 MSTORE PUSH1 0x4 ADD PUSH2 0x3A14 SWAP1 PUSH2 0x7691 JUMP JUMPDEST PUSH1 0x40 MLOAD DUP1 SWAP2 SUB SWAP1 REVERT JUMPDEST DUP2 ISZERO PUSH2 0x3A73 JUMPI PUSH1 0x5 SLOAD DUP2 GT PUSH2 0x3A67 JUMPI PUSH1 0x40 MLOAD PUSH32 0x8C379A000000000000000000000000000000000000000000000000000000000 DUP2 MSTORE PUSH1 0x4 ADD PUSH2 0x3A5E SWAP1 PUSH2 0x76B1 JUMP JUMPDEST PUSH1 0x40 MLOAD DUP1 SWAP2 SUB SWAP1 REVERT JUMPDEST DUP1 PUSH1 0x5 DUP2 SWAP1 SSTORE POP PUSH2 0x3A96 JUMP JUMPDEST DUP2 PUSH1 0x4 PUSH1 0x0 PUSH2 0x100 EXP DUP2 SLOAD DUP2 PUSH1 0xFF MUL NOT AND SWAP1 DUP4 ISZERO ISZERO MUL OR SWAP1 SSTORE POP PUSH1 0x0 PUSH1 0x5 DUP2 SWAP1 SSTORE POP JUMPDEST PUSH32 0x241F67EE5F41B7A5CABF911367329BE7215900F602EBFC47F89DCE2A6BCD847C PUSH1 0x5 SLOAD PUSH1 0x40 MLOAD PUSH2 0x3AC7 SWAP2 SWAP1 PUSH2 0x7871 JUMP JUMPDEST PUSH1 0x40 MLOAD DUP1 SWAP2 SUB SWAP1 LOG1 POP POP JUMP JUMPDEST PUSH1 0x1A PUSH1 0x14 SWAP1 SLOAD SWAP1 PUSH2 0x100 EXP SWAP1 DIV PUSH1 0xFF AND DUP2 JUMP JUMPDEST PUSH1 0x9 SLOAD DUP2 JUMP JUMPDEST PUSH1 0x2 PUSH1 0x14 SWAP1 SLOAD SWAP1 PUSH2 0x100 EXP SWAP1 DIV PUSH1 0xFF AND ISZERO PUSH2 0x3B3C JUMPI PUSH1 0x40 MLOAD PUSH32 0x8C379A000000000000000000000000000000000000000000000000000000000 DUP2 MSTORE PUSH1 0x4 ADD PUSH2 0x3B33 SWAP1 PUSH2 0x7771 JUMP JUMPDEST PUSH1 0x40 MLOAD DUP1 SWAP2 SUB SWAP1 REVERT JUMPDEST PUSH1 0x2 PUSH1 0x0 SWAP1 SLOAD SWAP1 PUSH2 0x100 EXP SWAP1 DIV PUSH20 0xFFFFFFFFFFFFFFFFFFFFFFFFFFFFFFFFFFFFFFFF AND PUSH20 0xFFFFFFFFFFFFFFFFFFFFFFFFFFFFFFFFFFFFFFFF AND CALLER PUSH20 0xFFFFFFFFFFFFFFFFFFFFFFFFFFFFFFFFFFFFFFFF AND EQ PUSH2 0x3BCC JUMPI PUSH1 0x40 MLOAD PUSH32 0x8C379A000000000000000000000000000000000000000000000000000000000 DUP2 MSTORE PUSH1 0x4 ADD PUSH2 0x3BC3 SWAP1 PUSH2 0x77D1 JUMP JUMPDEST PUSH1 0x40 MLOAD DUP1 SWAP2 SUB SWAP1 REVERT JUMPDEST PUSH1 0x1 PUSH1 0x2 PUSH1 0x14 PUSH2 0x100 EXP DUP2 SLOAD DUP2 PUSH1 0xFF MUL NOT AND SWAP1 DUP4 ISZERO ISZERO MUL OR SWAP1 SSTORE POP DUP10 PUSH1 0x18 PUSH1 0x0 PUSH2 0x100 EXP DUP2 SLOAD DUP2 PUSH20 0xFFFFFFFFFFFFFFFFFFFFFFFFFFFFFFFFFFFFFFFF MUL NOT AND SWAP1 DUP4 PUSH20 0xFFFFFFFFFFFFFFFFFFFFFFFFFFFFFFFFFFFFFFFF AND MUL OR SWAP1 SSTORE POP DUP9 PUSH1 0x19 PUSH1 0x0 PUSH2 0x100 EXP DUP2 SLOAD DUP2 PUSH20 0xFFFFFFFFFFFFFFFFFFFFFFFFFFFFFFFFFFFFFFFF MUL NOT AND SWAP1 DUP4 PUSH20 0xFFFFFFFFFFFFFFFFFFFFFFFFFFFFFFFFFFFFFFFF AND MUL OR SWAP1 SSTORE POP DUP8 PUSH1 0x1A PUSH1 0x0 PUSH2 0x100 EXP DUP2 SLOAD DUP2 PUSH20 0xFFFFFFFFFFFFFFFFFFFFFFFFFFFFFFFFFFFFFFFF MUL NOT AND SWAP1 DUP4 PUSH20 0xFFFFFFFFFFFFFFFFFFFFFFFFFFFFFFFFFFFFFFFF AND MUL OR SWAP1 SSTORE POP DUP1 PUSH1 0x1A PUSH1 0x14 PUSH2 0x100 EXP DUP2 SLOAD DUP2 PUSH1 0xFF MUL NOT AND SWAP1 DUP4 ISZERO ISZERO MUL OR SWAP1 SSTORE POP DUP7 PUSH1 0x8 DUP2 SWAP1 SSTORE POP PUSH2 0x7D0 DUP7 LT PUSH2 0x3D0F JUMPI PUSH1 0x40 MLOAD PUSH32 0x8C379A000000000000000000000000000000000000000000000000000000000 DUP2 MSTORE PUSH1 0x4 ADD PUSH2 0x3D06 SWAP1 PUSH2 0x7511 JUMP JUMPDEST PUSH1 0x40 MLOAD DUP1 SWAP2 SUB SWAP1 REVERT JUMPDEST PUSH2 0x7D0 DUP6 LT PUSH2 0x3D53 JUMPI PUSH1 0x40 MLOAD PUSH32 0x8C379A000000000000000000000000000000000000000000000000000000000 DUP2 MSTORE PUSH1 0x4 ADD PUSH2 0x3D4A SWAP1 PUSH2 0x7551 JUMP JUMPDEST PUSH1 0x40 MLOAD DUP1 SWAP2 SUB SWAP1 REVERT JUMPDEST DUP6 PUSH1 0xE DUP2 SWAP1 SSTORE POP DUP5 PUSH1 0xF DUP2 SWAP1 SSTORE POP CALLER PUSH1 0x12 PUSH1 0x0 PUSH2 0x100 EXP DUP2 SLOAD DUP2 PUSH20 0xFFFFFFFFFFFFFFFFFFFFFFFFFFFFFFFFFFFFFFFF MUL NOT AND SWAP1 DUP4 PUSH20 0xFFFFFFFFFFFFFFFFFFFFFFFFFFFFFFFFFFFFFFFF AND MUL OR SWAP1 SSTORE POP PUSH1 0x0 PUSH1 0x19 PUSH1 0x0 SWAP1 SLOAD SWAP1 PUSH2 0x100 EXP SWAP1 DIV PUSH20 0xFFFFFFFFFFFFFFFFFFFFFFFFFFFFFFFFFFFFFFFF AND PUSH20 0xFFFFFFFFFFFFFFFFFFFFFFFFFFFFFFFFFFFFFFFF AND PUSH4 0x313CE567 PUSH1 0x40 MLOAD DUP2 PUSH4 0xFFFFFFFF AND PUSH1 0xE0 SHL DUP2 MSTORE PUSH1 0x4 ADD PUSH1 0x20 PUSH1 0x40 MLOAD DUP1 DUP4 SUB DUP2 DUP7 DUP1 EXTCODESIZE ISZERO DUP1 ISZERO PUSH2 0x3E0C JUMPI PUSH1 0x0 DUP1 REVERT JUMPDEST POP GAS STATICCALL ISZERO DUP1 ISZERO PUSH2 0x3E20 JUMPI RETURNDATASIZE PUSH1 0x0 DUP1 RETURNDATACOPY RETURNDATASIZE PUSH1 0x0 REVERT JUMPDEST POP POP POP POP PUSH1 0x40 MLOAD RETURNDATASIZE PUSH1 0x1F NOT PUSH1 0x1F DUP3 ADD AND DUP3 ADD DUP1 PUSH1 0x40 MSTORE POP DUP2 ADD SWAP1 PUSH2 0x3E44 SWAP2 SWAP1 PUSH2 0x6EB6 JUMP JUMPDEST PUSH1 0xFF AND SWAP1 POP PUSH1 0x1E DUP2 LT PUSH2 0x3E8C JUMPI PUSH1 0x40 MLOAD PUSH32 0x8C379A000000000000000000000000000000000000000000000000000000000 DUP2 MSTORE PUSH1 0x4 ADD PUSH2 0x3E83 SWAP1 PUSH2 0x7831 JUMP JUMPDEST PUSH1 0x40 MLOAD DUP1 SWAP2 SUB SWAP1 REVERT JUMPDEST PUSH2 0x3EA0 DUP2 PUSH1 0x28 PUSH2 0x5895 SWAP1 SWAP2 SWAP1 PUSH4 0xFFFFFFFF AND JUMP JUMPDEST PUSH1 0xA PUSH2 0x3EAC SWAP2 SWAP1 PUSH2 0x7BB5 JUMP JUMPDEST PUSH1 0x16 DUP2 SWAP1 SSTORE POP PUSH1 0x0 PUSH1 0x12 SWAP1 POP PUSH1 0x0 PUSH20 0xFFFFFFFFFFFFFFFFFFFFFFFFFFFFFFFFFFFFFFFF AND PUSH1 0x1A PUSH1 0x0 SWAP1 SLOAD SWAP1 PUSH2 0x100 EXP SWAP1 DIV PUSH20 0xFFFFFFFFFFFFFFFFFFFFFFFFFFFFFFFFFFFFFFFF AND PUSH20 0xFFFFFFFFFFFFFFFFFFFFFFFFFFFFFFFFFFFFFFFF AND EQ PUSH2 0x3FF7 JUMPI PUSH1 0x1A PUSH1 0x0 SWAP1 SLOAD SWAP1 PUSH2 0x100 EXP SWAP1 DIV PUSH20 0xFFFFFFFFFFFFFFFFFFFFFFFFFFFFFFFFFFFFFFFF AND PUSH20 0xFFFFFFFFFFFFFFFFFFFFFFFFFFFFFFFFFFFFFFFF AND PUSH4 0x313CE567 PUSH1 0x40 MLOAD DUP2 PUSH4 0xFFFFFFFF AND PUSH1 0xE0 SHL DUP2 MSTORE PUSH1 0x4 ADD PUSH1 0x20 PUSH1 0x40 MLOAD DUP1 DUP4 SUB DUP2 DUP7 DUP1 EXTCODESIZE ISZERO DUP1 ISZERO PUSH2 0x3F76 JUMPI PUSH1 0x0 DUP1 REVERT JUMPDEST POP GAS STATICCALL ISZERO DUP1 ISZERO PUSH2 0x3F8A JUMPI RETURNDATASIZE PUSH1 0x0 DUP1 RETURNDATACOPY RETURNDATASIZE PUSH1 0x0 REVERT JUMPDEST POP POP POP POP PUSH1 0x40 MLOAD RETURNDATASIZE PUSH1 0x1F NOT PUSH1 0x1F DUP3 ADD AND DUP3 ADD DUP1 PUSH1 0x40 MSTORE POP DUP2 ADD SWAP1 PUSH2 0x3FAE SWAP2 SWAP1 PUSH2 0x6EB6 JUMP JUMPDEST PUSH1 0xFF AND SWAP1 POP PUSH1 0x1E DUP2 LT PUSH2 0x3FF6 JUMPI PUSH1 0x40 MLOAD PUSH32 0x8C379A000000000000000000000000000000000000000000000000000000000 DUP2 MSTORE PUSH1 0x4 ADD PUSH2 0x3FED SWAP1 PUSH2 0x7831 JUMP JUMPDEST PUSH1 0x40 MLOAD DUP1 SWAP2 SUB SWAP1 REVERT JUMPDEST JUMPDEST PUSH2 0x400B DUP2 PUSH1 0x28 PUSH2 0x5895 SWAP1 SWAP2 SWAP1 PUSH4 0xFFFFFFFF AND JUMP JUMPDEST PUSH1 0xA PUSH2 0x4017 SWAP2 SWAP1 PUSH2 0x7BB5 JUMP JUMPDEST PUSH1 0x17 DUP2 SWAP1 SSTORE POP DUP6 PUSH1 0xB PUSH1 0x0 PUSH2 0x100 EXP DUP2 SLOAD DUP2 PUSH20 0xFFFFFFFFFFFFFFFFFFFFFFFFFFFFFFFFFFFFFFFF MUL NOT AND SWAP1 DUP4 PUSH20 0xFFFFFFFFFFFFFFFFFFFFFFFFFFFFFFFFFFFFFFFF AND MUL OR SWAP1 SSTORE POP DUP5 PUSH1 0xD SWAP1 DUP1 MLOAD SWAP1 PUSH1 0x20 ADD SWAP1 PUSH2 0x4074 SWAP3 SWAP2 SWAP1 PUSH2 0x68DC JUMP JUMPDEST POP DUP4 PUSH1 0xC SWAP1 DUP1 MLOAD SWAP1 PUSH1 0x20 ADD SWAP1 PUSH2 0x408B SWAP3 SWAP2 SWAP1 PUSH2 0x68DC JUMP JUMPDEST POP PUSH2 0x4094 PUSH2 0x5B46 JUMP JUMPDEST POP POP POP POP POP POP POP POP POP POP POP POP JUMP JUMPDEST PUSH1 0x2 PUSH1 0x1 SLOAD EQ ISZERO PUSH2 0x40E8 JUMPI PUSH1 0x40 MLOAD PUSH32 0x8C379A000000000000000000000000000000000000000000000000000000000 DUP2 MSTORE PUSH1 0x4 ADD PUSH2 0x40DF SWAP1 PUSH2 0x77B1 JUMP JUMPDEST PUSH1 0x40 MLOAD DUP1 SWAP2 SUB SWAP1 REVERT JUMPDEST PUSH1 0x2 PUSH1 0x1 DUP2 SWAP1 SSTORE POP PUSH1 0x0 DUP2 GT PUSH2 0x4133 JUMPI PUSH1 0x40 MLOAD PUSH32 0x8C379A000000000000000000000000000000000000000000000000000000000 DUP2 MSTORE PUSH1 0x4 ADD PUSH2 0x412A SWAP1 PUSH2 0x7671 JUMP JUMPDEST PUSH1 0x40 MLOAD DUP1 SWAP2 SUB SWAP1 REVERT JUMPDEST PUSH1 0x0 PUSH1 0x21 PUSH1 0x0 CALLER PUSH20 0xFFFFFFFFFFFFFFFFFFFFFFFFFFFFFFFFFFFFFFFF AND PUSH20 0xFFFFFFFFFFFFFFFFFFFFFFFFFFFFFFFFFFFFFFFF AND DUP2 MSTORE PUSH1 0x20 ADD SWAP1 DUP2 MSTORE PUSH1 0x20 ADD PUSH1 0x0 KECCAK256 SWAP1 POP PUSH1 0x4 PUSH1 0x0 SWAP1 SLOAD SWAP1 PUSH2 0x100 EXP SWAP1 DIV PUSH1 0xFF AND ISZERO PUSH2 0x41E7 JUMPI PUSH1 0x5 SLOAD PUSH2 0x41A5 DUP3 PUSH1 0x0 ADD SLOAD DUP5 PUSH2 0x6228 SWAP1 SWAP2 SWAP1 PUSH4 0xFFFFFFFF AND JUMP JUMPDEST GT ISZERO PUSH2 0x41E6 JUMPI PUSH1 0x40 MLOAD PUSH32 0x8C379A000000000000000000000000000000000000000000000000000000000 DUP2 MSTORE PUSH1 0x4 ADD PUSH2 0x41DD SWAP1 PUSH2 0x76D1 JUMP JUMPDEST PUSH1 0x40 MLOAD DUP1 SWAP2 SUB SWAP1 REVERT JUMPDEST JUMPDEST PUSH2 0x41EF PUSH2 0x58AB JUMP JUMPDEST PUSH1 0x0 DUP2 PUSH1 0x0 ADD SLOAD GT ISZERO PUSH2 0x448F JUMPI PUSH1 0x0 PUSH2 0x4241 DUP3 PUSH1 0x1 ADD SLOAD PUSH2 0x4233 PUSH1 0x16 SLOAD PUSH2 0x4225 PUSH1 0x1B SLOAD DUP8 PUSH1 0x0 ADD SLOAD PUSH2 0x5A94 SWAP1 SWAP2 SWAP1 PUSH4 0xFFFFFFFF AND JUMP JUMPDEST PUSH2 0x5AAA SWAP1 SWAP2 SWAP1 PUSH4 0xFFFFFFFF AND JUMP JUMPDEST PUSH2 0x5895 SWAP1 SWAP2 SWAP1 PUSH4 0xFFFFFFFF AND JUMP JUMPDEST SWAP1 POP PUSH1 0x0 DUP2 GT ISZERO PUSH2 0x4317 JUMPI DUP1 PUSH2 0x4255 PUSH2 0x376E JUMP JUMPDEST LT ISZERO PUSH2 0x4296 JUMPI PUSH1 0x40 MLOAD PUSH32 0x8C379A000000000000000000000000000000000000000000000000000000000 DUP2 MSTORE PUSH1 0x4 ADD PUSH2 0x428D SWAP1 PUSH2 0x7851 JUMP JUMPDEST PUSH1 0x40 MLOAD DUP1 SWAP2 SUB SWAP1 REVERT JUMPDEST PUSH2 0x42E3 CALLER DUP3 PUSH1 0x19 PUSH1 0x0 SWAP1 SLOAD SWAP1 PUSH2 0x100 EXP SWAP1 DIV PUSH20 0xFFFFFFFFFFFFFFFFFFFFFFFFFFFFFFFFFFFFFFFF AND PUSH20 0xFFFFFFFFFFFFFFFFFFFFFFFFFFFFFFFFFFFFFFFF AND PUSH2 0x5AC0 SWAP1 SWAP3 SWAP2 SWAP1 PUSH4 0xFFFFFFFF AND JUMP JUMPDEST DUP1 PUSH1 0x1E SLOAD GT ISZERO PUSH2 0x430D JUMPI PUSH2 0x4302 DUP2 PUSH1 0x1E SLOAD PUSH2 0x5895 SWAP1 SWAP2 SWAP1 PUSH4 0xFFFFFFFF AND JUMP JUMPDEST PUSH1 0x1E DUP2 SWAP1 SSTORE POP PUSH2 0x4316 JUMP JUMPDEST PUSH1 0x0 PUSH1 0x1E DUP2 SWAP1 SSTORE POP JUMPDEST JUMPDEST PUSH1 0x0 PUSH2 0x435C DUP4 PUSH1 0x2 ADD SLOAD PUSH2 0x434E PUSH1 0x17 SLOAD PUSH2 0x4340 PUSH1 0x1C SLOAD DUP9 PUSH1 0x0 ADD SLOAD PUSH2 0x5A94 SWAP1 SWAP2 SWAP1 PUSH4 0xFFFFFFFF AND JUMP JUMPDEST PUSH2 0x5AAA SWAP1 SWAP2 SWAP1 PUSH4 0xFFFFFFFF AND JUMP JUMPDEST PUSH2 0x5895 SWAP1 SWAP2 SWAP1 PUSH4 0xFFFFFFFF AND JUMP JUMPDEST SWAP1 POP PUSH1 0x0 DUP2 GT DUP1 ISZERO PUSH2 0x437A JUMPI POP PUSH1 0x1A PUSH1 0x14 SWAP1 SLOAD SWAP1 PUSH2 0x100 EXP SWAP1 DIV PUSH1 0xFF AND JUMPDEST ISZERO PUSH2 0x448C JUMPI PUSH1 0x0 PUSH20 0xFFFFFFFFFFFFFFFFFFFFFFFFFFFFFFFFFFFFFFFF AND PUSH1 0x1A PUSH1 0x0 SWAP1 SLOAD SWAP1 PUSH2 0x100 EXP SWAP1 DIV PUSH20 0xFFFFFFFFFFFFFFFFFFFFFFFFFFFFFFFFFFFFFFFF AND PUSH20 0xFFFFFFFFFFFFFFFFFFFFFFFFFFFFFFFFFFFFFFFF AND EQ ISZERO PUSH2 0x4422 JUMPI CALLER PUSH20 0xFFFFFFFFFFFFFFFFFFFFFFFFFFFFFFFFFFFFFFFF AND PUSH2 0x8FC DUP3 SWAP1 DUP2 ISZERO MUL SWAP1 PUSH1 0x40 MLOAD PUSH1 0x0 PUSH1 0x40 MLOAD DUP1 DUP4 SUB DUP2 DUP6 DUP9 DUP9 CALL SWAP4 POP POP POP POP ISZERO DUP1 ISZERO PUSH2 0x441C JUMPI RETURNDATASIZE PUSH1 0x0 DUP1 RETURNDATACOPY RETURNDATASIZE PUSH1 0x0 REVERT JUMPDEST POP PUSH2 0x4470 JUMP JUMPDEST PUSH2 0x446F CALLER DUP3 PUSH1 0x1A PUSH1 0x0 SWAP1 SLOAD SWAP1 PUSH2 0x100 EXP SWAP1 DIV PUSH20 0xFFFFFFFFFFFFFFFFFFFFFFFFFFFFFFFFFFFFFFFF AND PUSH20 0xFFFFFFFFFFFFFFFFFFFFFFFFFFFFFFFFFFFFFFFF AND PUSH2 0x5AC0 SWAP1 SWAP3 SWAP2 SWAP1 PUSH4 0xFFFFFFFF AND JUMP JUMPDEST JUMPDEST PUSH2 0x4485 DUP2 PUSH1 0x1F SLOAD PUSH2 0x5895 SWAP1 SWAP2 SWAP1 PUSH4 0xFFFFFFFF AND JUMP JUMPDEST PUSH1 0x1F DUP2 SWAP1 SSTORE POP JUMPDEST POP POP JUMPDEST PUSH1 0x0 PUSH1 0x18 PUSH1 0x0 SWAP1 SLOAD SWAP1 PUSH2 0x100 EXP SWAP1 DIV PUSH20 0xFFFFFFFFFFFFFFFFFFFFFFFFFFFFFFFFFFFFFFFF AND PUSH20 0xFFFFFFFFFFFFFFFFFFFFFFFFFFFFFFFFFFFFFFFF AND PUSH4 0x70A08231 ADDRESS PUSH1 0x40 MLOAD DUP3 PUSH4 0xFFFFFFFF AND PUSH1 0xE0 SHL DUP2 MSTORE PUSH1 0x4 ADD PUSH2 0x44EC SWAP2 SWAP1 PUSH2 0x73F5 JUMP JUMPDEST PUSH1 0x20 PUSH1 0x40 MLOAD DUP1 DUP4 SUB DUP2 DUP7 DUP1 EXTCODESIZE ISZERO DUP1 ISZERO PUSH2 0x4504 JUMPI PUSH1 0x0 DUP1 REVERT JUMPDEST POP GAS STATICCALL ISZERO DUP1 ISZERO PUSH2 0x4518 JUMPI RETURNDATASIZE PUSH1 0x0 DUP1 RETURNDATACOPY RETURNDATASIZE PUSH1 0x0 REVERT JUMPDEST POP POP POP POP PUSH1 0x40 MLOAD RETURNDATASIZE PUSH1 0x1F NOT PUSH1 0x1F DUP3 ADD AND DUP3 ADD DUP1 PUSH1 0x40 MSTORE POP DUP2 ADD SWAP1 PUSH2 0x453C SWAP2 SWAP1 PUSH2 0x6DBF JUMP JUMPDEST SWAP1 POP PUSH2 0x458D CALLER ADDRESS DUP6 PUSH1 0x18 PUSH1 0x0 SWAP1 SLOAD SWAP1 PUSH2 0x100 EXP SWAP1 DIV PUSH20 0xFFFFFFFFFFFFFFFFFFFFFFFFFFFFFFFFFFFFFFFF AND PUSH20 0xFFFFFFFFFFFFFFFFFFFFFFFFFFFFFFFFFFFFFFFF AND PUSH2 0x6302 SWAP1 SWAP4 SWAP3 SWAP2 SWAP1 PUSH4 0xFFFFFFFF AND JUMP JUMPDEST PUSH1 0x0 PUSH1 0x18 PUSH1 0x0 SWAP1 SLOAD SWAP1 PUSH2 0x100 EXP SWAP1 DIV PUSH20 0xFFFFFFFFFFFFFFFFFFFFFFFFFFFFFFFFFFFFFFFF AND PUSH20 0xFFFFFFFFFFFFFFFFFFFFFFFFFFFFFFFFFFFFFFFF AND PUSH4 0x70A08231 ADDRESS PUSH1 0x40 MLOAD DUP3 PUSH4 0xFFFFFFFF AND PUSH1 0xE0 SHL DUP2 MSTORE PUSH1 0x4 ADD PUSH2 0x45EA SWAP2 SWAP1 PUSH2 0x73F5 JUMP JUMPDEST PUSH1 0x20 PUSH1 0x40 MLOAD DUP1 DUP4 SUB DUP2 DUP7 DUP1 EXTCODESIZE ISZERO DUP1 ISZERO PUSH2 0x4602 JUMPI PUSH1 0x0 DUP1 REVERT JUMPDEST POP GAS STATICCALL ISZERO DUP1 ISZERO PUSH2 0x4616 JUMPI RETURNDATASIZE PUSH1 0x0 DUP1 RETURNDATACOPY RETURNDATASIZE PUSH1 0x0 REVERT JUMPDEST POP POP POP POP PUSH1 0x40 MLOAD RETURNDATASIZE PUSH1 0x1F NOT PUSH1 0x1F DUP3 ADD AND DUP3 ADD DUP1 PUSH1 0x40 MSTORE POP DUP2 ADD SWAP1 PUSH2 0x463A SWAP2 SWAP1 PUSH2 0x6DBF JUMP JUMPDEST SWAP1 POP PUSH1 0x0 PUSH2 0x4651 DUP4 DUP4 PUSH2 0x5895 SWAP1 SWAP2 SWAP1 PUSH4 0xFFFFFFFF AND JUMP JUMPDEST SWAP1 POP PUSH1 0x0 PUSH1 0xE SLOAD GT ISZERO PUSH2 0x471B JUMPI PUSH1 0x0 PUSH2 0x4689 PUSH2 0x2710 PUSH2 0x467B PUSH1 0xE SLOAD DUP6 PUSH2 0x5A94 SWAP1 SWAP2 SWAP1 PUSH4 0xFFFFFFFF AND JUMP JUMPDEST PUSH2 0x5AAA SWAP1 SWAP2 SWAP1 PUSH4 0xFFFFFFFF AND JUMP JUMPDEST SWAP1 POP PUSH1 0x0 DUP2 GT ISZERO PUSH2 0x4719 JUMPI PUSH2 0x4703 PUSH1 0x12 PUSH1 0x0 SWAP1 SLOAD SWAP1 PUSH2 0x100 EXP SWAP1 DIV PUSH20 0xFFFFFFFFFFFFFFFFFFFFFFFFFFFFFFFFFFFFFFFF AND DUP3 PUSH1 0x18 PUSH1 0x0 SWAP1 SLOAD SWAP1 PUSH2 0x100 EXP SWAP1 DIV PUSH20 0xFFFFFFFFFFFFFFFFFFFFFFFFFFFFFFFFFFFFFFFF AND PUSH20 0xFFFFFFFFFFFFFFFFFFFFFFFFFFFFFFFFFFFFFFFF AND PUSH2 0x5AC0 SWAP1 SWAP3 SWAP2 SWAP1 PUSH4 0xFFFFFFFF AND JUMP JUMPDEST PUSH2 0x4716 DUP2 DUP4 PUSH2 0x5895 SWAP1 SWAP2 SWAP1 PUSH4 0xFFFFFFFF AND JUMP JUMPDEST SWAP2 POP JUMPDEST POP JUMPDEST PUSH2 0x4732 DUP2 DUP6 PUSH1 0x0 ADD SLOAD PUSH2 0x6228 SWAP1 SWAP2 SWAP1 PUSH4 0xFFFFFFFF AND JUMP JUMPDEST DUP5 PUSH1 0x0 ADD DUP2 SWAP1 SSTORE POP PUSH2 0x4767 PUSH1 0x16 SLOAD PUSH2 0x4759 PUSH1 0x1B SLOAD DUP8 PUSH1 0x0 ADD SLOAD PUSH2 0x5A94 SWAP1 SWAP2 SWAP1 PUSH4 0xFFFFFFFF AND JUMP JUMPDEST PUSH2 0x5AAA SWAP1 SWAP2 SWAP1 PUSH4 0xFFFFFFFF AND JUMP JUMPDEST DUP5 PUSH1 0x1 ADD DUP2 SWAP1 SSTORE POP PUSH2 0x479C PUSH1 0x17 SLOAD PUSH2 0x478E PUSH1 0x1C SLOAD DUP8 PUSH1 0x0 ADD SLOAD PUSH2 0x5A94 SWAP1 SWAP2 SWAP1 PUSH4 0xFFFFFFFF AND JUMP JUMPDEST PUSH2 0x5AAA SWAP1 SWAP2 SWAP1 PUSH4 0xFFFFFFFF AND JUMP JUMPDEST DUP5 PUSH1 0x2 ADD DUP2 SWAP1 SSTORE POP PUSH2 0x47B9 DUP2 PUSH1 0x1D SLOAD PUSH2 0x6228 SWAP1 SWAP2 SWAP1 PUSH4 0xFFFFFFFF AND JUMP JUMPDEST PUSH1 0x1D DUP2 SWAP1 SSTORE POP CALLER PUSH20 0xFFFFFFFFFFFFFFFFFFFFFFFFFFFFFFFFFFFFFFFF AND PUSH32 0xE1FFFCC4923D04B559F4D29A8BFC6CDA04EB5B0D3C460751C2402C5C5CC9109C DUP3 PUSH1 0x40 MLOAD PUSH2 0x4805 SWAP2 SWAP1 PUSH2 0x7871 JUMP JUMPDEST PUSH1 0x40 MLOAD DUP1 SWAP2 SUB SWAP1 LOG2 POP POP POP POP PUSH1 0x1 DUP1 DUP2 SWAP1 SSTORE POP POP JUMP JUMPDEST PUSH2 0x3E3 DUP2 JUMP JUMPDEST PUSH1 0x12 PUSH1 0x0 SWAP1 SLOAD SWAP1 PUSH2 0x100 EXP SWAP1 DIV PUSH20 0xFFFFFFFFFFFFFFFFFFFFFFFFFFFFFFFFFFFFFFFF AND DUP2 JUMP JUMPDEST PUSH1 0x2 PUSH1 0x1 SLOAD EQ ISZERO PUSH2 0x488D JUMPI PUSH1 0x40 MLOAD PUSH32 0x8C379A000000000000000000000000000000000000000000000000000000000 DUP2 MSTORE PUSH1 0x4 ADD PUSH2 0x4884 SWAP1 PUSH2 0x77B1 JUMP JUMPDEST PUSH1 0x40 MLOAD DUP1 SWAP2 SUB SWAP1 REVERT JUMPDEST PUSH1 0x2 PUSH1 0x1 DUP2 SWAP1 SSTORE POP PUSH1 0x0 PUSH1 0x21 PUSH1 0x0 CALLER PUSH20 0xFFFFFFFFFFFFFFFFFFFFFFFFFFFFFFFFFFFFFFFF AND PUSH20 0xFFFFFFFFFFFFFFFFFFFFFFFFFFFFFFFFFFFFFFFF AND DUP2 MSTORE PUSH1 0x20 ADD SWAP1 DUP2 MSTORE PUSH1 0x20 ADD PUSH1 0x0 KECCAK256 SWAP1 POP PUSH2 0x48E0 PUSH2 0x5F03 JUMP JUMPDEST PUSH2 0x48E8 PUSH2 0x58AB JUMP JUMPDEST PUSH1 0x0 DUP2 PUSH1 0x0 ADD SLOAD EQ ISZERO PUSH2 0x48FB JUMPI POP PUSH2 0x4A4E JUMP JUMPDEST PUSH1 0x0 PUSH2 0x4940 DUP3 PUSH1 0x1 ADD SLOAD PUSH2 0x4932 PUSH1 0x16 SLOAD PUSH2 0x4924 PUSH1 0x1B SLOAD DUP8 PUSH1 0x0 ADD SLOAD PUSH2 0x5A94 SWAP1 SWAP2 SWAP1 PUSH4 0xFFFFFFFF AND JUMP JUMPDEST PUSH2 0x5AAA SWAP1 SWAP2 SWAP1 PUSH4 0xFFFFFFFF AND JUMP JUMPDEST PUSH2 0x5895 SWAP1 SWAP2 SWAP1 PUSH4 0xFFFFFFFF AND JUMP JUMPDEST SWAP1 POP PUSH1 0x0 DUP2 GT ISZERO PUSH2 0x4A16 JUMPI DUP1 PUSH2 0x4954 PUSH2 0x376E JUMP JUMPDEST LT ISZERO PUSH2 0x4995 JUMPI PUSH1 0x40 MLOAD PUSH32 0x8C379A000000000000000000000000000000000000000000000000000000000 DUP2 MSTORE PUSH1 0x4 ADD PUSH2 0x498C SWAP1 PUSH2 0x7851 JUMP JUMPDEST PUSH1 0x40 MLOAD DUP1 SWAP2 SUB SWAP1 REVERT JUMPDEST PUSH2 0x49E2 CALLER DUP3 PUSH1 0x19 PUSH1 0x0 SWAP1 SLOAD SWAP1 PUSH2 0x100 EXP SWAP1 DIV PUSH20 0xFFFFFFFFFFFFFFFFFFFFFFFFFFFFFFFFFFFFFFFF AND PUSH20 0xFFFFFFFFFFFFFFFFFFFFFFFFFFFFFFFFFFFFFFFF AND PUSH2 0x5AC0 SWAP1 SWAP3 SWAP2 SWAP1 PUSH4 0xFFFFFFFF AND JUMP JUMPDEST DUP1 PUSH1 0x1E SLOAD GT ISZERO PUSH2 0x4A0C JUMPI PUSH2 0x4A01 DUP2 PUSH1 0x1E SLOAD PUSH2 0x5895 SWAP1 SWAP2 SWAP1 PUSH4 0xFFFFFFFF AND JUMP JUMPDEST PUSH1 0x1E DUP2 SWAP1 SSTORE POP PUSH2 0x4A15 JUMP JUMPDEST PUSH1 0x0 PUSH1 0x1E DUP2 SWAP1 SSTORE POP JUMPDEST JUMPDEST PUSH2 0x4A43 PUSH1 0x16 SLOAD PUSH2 0x4A35 PUSH1 0x1B SLOAD DUP6 PUSH1 0x0 ADD SLOAD PUSH2 0x5A94 SWAP1 SWAP2 SWAP1 PUSH4 0xFFFFFFFF AND JUMP JUMPDEST PUSH2 0x5AAA SWAP1 SWAP2 SWAP1 PUSH4 0xFFFFFFFF AND JUMP JUMPDEST DUP3 PUSH1 0x1 ADD DUP2 SWAP1 SSTORE POP POP POP JUMPDEST PUSH1 0x1 DUP1 DUP2 SWAP1 SSTORE POP JUMP JUMPDEST PUSH2 0x7D0 DUP2 JUMP JUMPDEST PUSH1 0x0 DUP1 PUSH20 0xFFFFFFFFFFFFFFFFFFFFFFFFFFFFFFFFFFFFFFFF AND PUSH1 0x1A PUSH1 0x0 SWAP1 SLOAD SWAP1 PUSH2 0x100 EXP SWAP1 DIV PUSH20 0xFFFFFFFFFFFFFFFFFFFFFFFFFFFFFFFFFFFFFFFF AND PUSH20 0xFFFFFFFFFFFFFFFFFFFFFFFFFFFFFFFFFFFFFFFF AND EQ ISZERO PUSH2 0x4ABD JUMPI SELFBALANCE SWAP1 POP PUSH2 0x4CB9 JUMP JUMPDEST PUSH1 0x0 PUSH1 0x1A PUSH1 0x0 SWAP1 SLOAD SWAP1 PUSH2 0x100 EXP SWAP1 DIV PUSH20 0xFFFFFFFFFFFFFFFFFFFFFFFFFFFFFFFFFFFFFFFF AND PUSH20 0xFFFFFFFFFFFFFFFFFFFFFFFFFFFFFFFFFFFFFFFF AND PUSH4 0x70A08231 ADDRESS PUSH1 0x40 MLOAD DUP3 PUSH4 0xFFFFFFFF AND PUSH1 0xE0 SHL DUP2 MSTORE PUSH1 0x4 ADD PUSH2 0x4B1A SWAP2 SWAP1 PUSH2 0x73F5 JUMP JUMPDEST PUSH1 0x20 PUSH1 0x40 MLOAD DUP1 DUP4 SUB DUP2 DUP7 DUP1 EXTCODESIZE ISZERO DUP1 ISZERO PUSH2 0x4B32 JUMPI PUSH1 0x0 DUP1 REVERT JUMPDEST POP GAS STATICCALL ISZERO DUP1 ISZERO PUSH2 0x4B46 JUMPI RETURNDATASIZE PUSH1 0x0 DUP1 RETURNDATACOPY RETURNDATASIZE PUSH1 0x0 REVERT JUMPDEST POP POP POP POP PUSH1 0x40 MLOAD RETURNDATASIZE PUSH1 0x1F NOT PUSH1 0x1F DUP3 ADD AND DUP3 ADD DUP1 PUSH1 0x40 MSTORE POP DUP2 ADD SWAP1 PUSH2 0x4B6A SWAP2 SWAP1 PUSH2 0x6DBF JUMP JUMPDEST SWAP1 POP PUSH1 0x19 PUSH1 0x0 SWAP1 SLOAD SWAP1 PUSH2 0x100 EXP SWAP1 DIV PUSH20 0xFFFFFFFFFFFFFFFFFFFFFFFFFFFFFFFFFFFFFFFF AND PUSH20 0xFFFFFFFFFFFFFFFFFFFFFFFFFFFFFFFFFFFFFFFF AND PUSH1 0x1A PUSH1 0x0 SWAP1 SLOAD SWAP1 PUSH2 0x100 EXP SWAP1 DIV PUSH20 0xFFFFFFFFFFFFFFFFFFFFFFFFFFFFFFFFFFFFFFFF AND PUSH20 0xFFFFFFFFFFFFFFFFFFFFFFFFFFFFFFFFFFFFFFFF AND EQ ISZERO PUSH2 0x4C10 JUMPI PUSH1 0x1E SLOAD DUP2 LT ISZERO PUSH2 0x4BF8 JUMPI PUSH1 0x0 SWAP2 POP POP PUSH2 0x4CB9 JUMP JUMPDEST PUSH2 0x4C0D PUSH1 0x1E SLOAD DUP3 PUSH2 0x5895 SWAP1 SWAP2 SWAP1 PUSH4 0xFFFFFFFF AND JUMP JUMPDEST SWAP1 POP JUMPDEST PUSH1 0x18 PUSH1 0x0 SWAP1 SLOAD SWAP1 PUSH2 0x100 EXP SWAP1 DIV PUSH20 0xFFFFFFFFFFFFFFFFFFFFFFFFFFFFFFFFFFFFFFFF AND PUSH20 0xFFFFFFFFFFFFFFFFFFFFFFFFFFFFFFFFFFFFFFFF AND PUSH1 0x1A PUSH1 0x0 SWAP1 SLOAD SWAP1 PUSH2 0x100 EXP SWAP1 DIV PUSH20 0xFFFFFFFFFFFFFFFFFFFFFFFFFFFFFFFFFFFFFFFF AND PUSH20 0xFFFFFFFFFFFFFFFFFFFFFFFFFFFFFFFFFFFFFFFF AND EQ ISZERO PUSH2 0x4CB4 JUMPI PUSH1 0x1D SLOAD DUP2 LT ISZERO PUSH2 0x4C9C JUMPI PUSH1 0x0 SWAP2 POP POP PUSH2 0x4CB9 JUMP JUMPDEST PUSH2 0x4CB1 PUSH1 0x1D SLOAD DUP3 PUSH2 0x5895 SWAP1 SWAP2 SWAP1 PUSH4 0xFFFFFFFF AND JUMP JUMPDEST SWAP1 POP JUMPDEST DUP1 SWAP2 POP POP JUMPDEST SWAP1 JUMP JUMPDEST PUSH1 0xD DUP2 DUP2 SLOAD DUP2 LT PUSH2 0x4CCC JUMPI PUSH1 0x0 DUP1 REVERT JUMPDEST SWAP1 PUSH1 0x0 MSTORE PUSH1 0x20 PUSH1 0x0 KECCAK256 ADD PUSH1 0x0 SWAP2 POP SLOAD SWAP1 PUSH2 0x100 EXP SWAP1 DIV PUSH20 0xFFFFFFFFFFFFFFFFFFFFFFFFFFFFFFFFFFFFFFFF AND DUP2 JUMP JUMPDEST PUSH1 0x0 DUP1 PUSH1 0x21 PUSH1 0x0 DUP5 PUSH20 0xFFFFFFFFFFFFFFFFFFFFFFFFFFFFFFFFFFFFFFFF AND PUSH20 0xFFFFFFFFFFFFFFFFFFFFFFFFFFFFFFFFFFFFFFFF AND DUP2 MSTORE PUSH1 0x20 ADD SWAP1 DUP2 MSTORE PUSH1 0x20 ADD PUSH1 0x0 KECCAK256 SWAP1 POP PUSH1 0x0 PUSH1 0x1D SLOAD EQ ISZERO PUSH2 0x4D54 JUMPI PUSH1 0x0 SWAP2 POP POP PUSH2 0x4EB0 JUMP JUMPDEST PUSH1 0x0 PUSH2 0x4D5E PUSH2 0x4A5D JUMP JUMPDEST SWAP1 POP PUSH1 0x0 PUSH1 0x18 PUSH1 0x0 SWAP1 SLOAD SWAP1 PUSH2 0x100 EXP SWAP1 DIV PUSH20 0xFFFFFFFFFFFFFFFFFFFFFFFFFFFFFFFFFFFFFFFF AND PUSH20 0xFFFFFFFFFFFFFFFFFFFFFFFFFFFFFFFFFFFFFFFF AND PUSH4 0x70A08231 ADDRESS PUSH1 0x40 MLOAD DUP3 PUSH4 0xFFFFFFFF AND PUSH1 0xE0 SHL DUP2 MSTORE PUSH1 0x4 ADD PUSH2 0x4DBD SWAP2 SWAP1 PUSH2 0x73F5 JUMP JUMPDEST PUSH1 0x20 PUSH1 0x40 MLOAD DUP1 DUP4 SUB DUP2 DUP7 DUP1 EXTCODESIZE ISZERO DUP1 ISZERO PUSH2 0x4DD5 JUMPI PUSH1 0x0 DUP1 REVERT JUMPDEST POP GAS STATICCALL ISZERO DUP1 ISZERO PUSH2 0x4DE9 JUMPI RETURNDATASIZE PUSH1 0x0 DUP1 RETURNDATACOPY RETURNDATASIZE PUSH1 0x0 REVERT JUMPDEST POP POP POP POP PUSH1 0x40 MLOAD RETURNDATASIZE PUSH1 0x1F NOT PUSH1 0x1F DUP3 ADD AND DUP3 ADD DUP1 PUSH1 0x40 MSTORE POP DUP2 ADD SWAP1 PUSH2 0x4E0D SWAP2 SWAP1 PUSH2 0x6DBF JUMP JUMPDEST SWAP1 POP PUSH1 0x0 PUSH2 0x4E60 PUSH2 0x4E4F DUP4 PUSH2 0x4E41 PUSH1 0x17 SLOAD PUSH2 0x4E33 PUSH1 0x1F SLOAD DUP10 PUSH2 0x5895 SWAP1 SWAP2 SWAP1 PUSH4 0xFFFFFFFF AND JUMP JUMPDEST PUSH2 0x5A94 SWAP1 SWAP2 SWAP1 PUSH4 0xFFFFFFFF AND JUMP JUMPDEST PUSH2 0x5AAA SWAP1 SWAP2 SWAP1 PUSH4 0xFFFFFFFF AND JUMP JUMPDEST PUSH1 0x1C SLOAD PUSH2 0x6228 SWAP1 SWAP2 SWAP1 PUSH4 0xFFFFFFFF AND JUMP JUMPDEST SWAP1 POP PUSH1 0x0 PUSH2 0x4EA5 DUP6 PUSH1 0x2 ADD SLOAD PUSH2 0x4E97 PUSH1 0x17 SLOAD PUSH2 0x4E89 DUP7 DUP11 PUSH1 0x0 ADD SLOAD PUSH2 0x5A94 SWAP1 SWAP2 SWAP1 PUSH4 0xFFFFFFFF AND JUMP JUMPDEST PUSH2 0x5AAA SWAP1 SWAP2 SWAP1 PUSH4 0xFFFFFFFF AND JUMP JUMPDEST PUSH2 0x5895 SWAP1 SWAP2 SWAP1 PUSH4 0xFFFFFFFF AND JUMP JUMPDEST SWAP1 POP DUP1 SWAP6 POP POP POP POP POP POP JUMPDEST SWAP2 SWAP1 POP JUMP JUMPDEST PUSH1 0x16 SLOAD DUP2 JUMP JUMPDEST PUSH2 0x4EC3 PUSH2 0x588D JUMP JUMPDEST PUSH20 0xFFFFFFFFFFFFFFFFFFFFFFFFFFFFFFFFFFFFFFFF AND PUSH2 0x4EE1 PUSH2 0x3726 JUMP JUMPDEST PUSH20 0xFFFFFFFFFFFFFFFFFFFFFFFFFFFFFFFFFFFFFFFF AND EQ PUSH2 0x4F37 JUMPI PUSH1 0x40 MLOAD PUSH32 0x8C379A000000000000000000000000000000000000000000000000000000000 DUP2 MSTORE PUSH1 0x4 ADD PUSH2 0x4F2E SWAP1 PUSH2 0x7651 JUMP JUMPDEST PUSH1 0x40 MLOAD DUP1 SWAP2 SUB SWAP1 REVERT JUMPDEST PUSH1 0x0 PUSH20 0xFFFFFFFFFFFFFFFFFFFFFFFFFFFFFFFFFFFFFFFF AND DUP2 PUSH20 0xFFFFFFFFFFFFFFFFFFFFFFFFFFFFFFFFFFFFFFFF AND EQ ISZERO DUP1 PUSH2 0x4FC1 JUMPI POP PUSH1 0x13 PUSH1 0x0 SWAP1 SLOAD SWAP1 PUSH2 0x100 EXP SWAP1 DIV PUSH20 0xFFFFFFFFFFFFFFFFFFFFFFFFFFFFFFFFFFFFFFFF AND PUSH20 0xFFFFFFFFFFFFFFFFFFFFFFFFFFFFFFFFFFFFFFFF AND DUP2 PUSH20 0xFFFFFFFFFFFFFFFFFFFFFFFFFFFFFFFFFFFFFFFF AND EQ ISZERO JUMPDEST PUSH2 0x5000 JUMPI PUSH1 0x40 MLOAD PUSH32 0x8C379A000000000000000000000000000000000000000000000000000000000 DUP2 MSTORE PUSH1 0x4 ADD PUSH2 0x4FF7 SWAP1 PUSH2 0x7531 JUMP JUMPDEST PUSH1 0x40 MLOAD DUP1 SWAP2 SUB SWAP1 REVERT JUMPDEST DUP1 PUSH1 0x13 PUSH1 0x0 PUSH2 0x100 EXP DUP2 SLOAD DUP2 PUSH20 0xFFFFFFFFFFFFFFFFFFFFFFFFFFFFFFFFFFFFFFFF MUL NOT AND SWAP1 DUP4 PUSH20 0xFFFFFFFFFFFFFFFFFFFFFFFFFFFFFFFFFFFFFFFF AND MUL OR SWAP1 SSTORE POP PUSH32 0x8A9B7FB782D8CD36CF5AD685904B90CA468E92438523CF13EA97450249E41C2A DUP2 PUSH1 0x40 MLOAD PUSH2 0x5070 SWAP2 SWAP1 PUSH2 0x73F5 JUMP JUMPDEST PUSH1 0x40 MLOAD DUP1 SWAP2 SUB SWAP1 LOG1 POP JUMP JUMPDEST PUSH1 0x2 PUSH1 0x0 SWAP1 SLOAD SWAP1 PUSH2 0x100 EXP SWAP1 DIV PUSH20 0xFFFFFFFFFFFFFFFFFFFFFFFFFFFFFFFFFFFFFFFF AND DUP2 JUMP JUMPDEST PUSH1 0x2 PUSH1 0x1 SLOAD EQ ISZERO PUSH2 0x50E7 JUMPI PUSH1 0x40 MLOAD PUSH32 0x8C379A000000000000000000000000000000000000000000000000000000000 DUP2 MSTORE PUSH1 0x4 ADD PUSH2 0x50DE SWAP1 PUSH2 0x77B1 JUMP JUMPDEST PUSH1 0x40 MLOAD DUP1 SWAP2 SUB SWAP1 REVERT JUMPDEST PUSH1 0x2 PUSH1 0x1 DUP2 SWAP1 SSTORE POP PUSH1 0x0 PUSH1 0x21 PUSH1 0x0 CALLER PUSH20 0xFFFFFFFFFFFFFFFFFFFFFFFFFFFFFFFFFFFFFFFF AND PUSH20 0xFFFFFFFFFFFFFFFFFFFFFFFFFFFFFFFFFFFFFFFF AND DUP2 MSTORE PUSH1 0x20 ADD SWAP1 DUP2 MSTORE PUSH1 0x20 ADD PUSH1 0x0 KECCAK256 SWAP1 POP PUSH1 0x0 DUP2 PUSH1 0x0 ADD SLOAD SWAP1 POP PUSH1 0x0 DUP3 PUSH1 0x0 ADD DUP2 SWAP1 SSTORE POP PUSH1 0x0 DUP3 PUSH1 0x1 ADD DUP2 SWAP1 SSTORE POP PUSH1 0x0 DUP3 PUSH1 0x2 ADD DUP2 SWAP1 SSTORE POP PUSH1 0x0 DUP2 GT ISZERO PUSH2 0x51CB JUMPI PUSH2 0x51AF CALLER DUP3 PUSH1 0x18 PUSH1 0x0 SWAP1 SLOAD SWAP1 PUSH2 0x100 EXP SWAP1 DIV PUSH20 0xFFFFFFFFFFFFFFFFFFFFFFFFFFFFFFFFFFFFFFFF AND PUSH20 0xFFFFFFFFFFFFFFFFFFFFFFFFFFFFFFFFFFFFFFFF AND PUSH2 0x5AC0 SWAP1 SWAP3 SWAP2 SWAP1 PUSH4 0xFFFFFFFF AND JUMP JUMPDEST PUSH2 0x51C4 DUP2 PUSH1 0x1D SLOAD PUSH2 0x5895 SWAP1 SWAP2 SWAP1 PUSH4 0xFFFFFFFF AND JUMP JUMPDEST PUSH1 0x1D DUP2 SWAP1 SSTORE POP JUMPDEST CALLER PUSH20 0xFFFFFFFFFFFFFFFFFFFFFFFFFFFFFFFFFFFFFFFF AND PUSH32 0x5FAFA99D0643513820BE26656B45130B01E1C03062E1266BF36F88CBD3BD9695 DUP4 PUSH1 0x0 ADD SLOAD PUSH1 0x40 MLOAD PUSH2 0x5215 SWAP2 SWAP1 PUSH2 0x7871 JUMP JUMPDEST PUSH1 0x40 MLOAD DUP1 SWAP2 SUB SWAP1 LOG2 POP POP PUSH1 0x1 DUP1 DUP2 SWAP1 SSTORE POP JUMP JUMPDEST PUSH1 0x11 SLOAD DUP2 JUMP JUMPDEST PUSH1 0xF SLOAD DUP2 JUMP JUMPDEST PUSH1 0x2 PUSH1 0x1 SLOAD EQ ISZERO PUSH2 0x527A JUMPI PUSH1 0x40 MLOAD PUSH32 0x8C379A000000000000000000000000000000000000000000000000000000000 DUP2 MSTORE PUSH1 0x4 ADD PUSH2 0x5271 SWAP1 PUSH2 0x77B1 JUMP JUMPDEST PUSH1 0x40 MLOAD DUP1 SWAP2 SUB SWAP1 REVERT JUMPDEST PUSH1 0x2 PUSH1 0x1 DUP2 SWAP1 SSTORE POP PUSH1 0x1 ISZERO ISZERO PUSH1 0x1A PUSH1 0x14 SWAP1 SLOAD SWAP1 PUSH2 0x100 EXP SWAP1 DIV PUSH1 0xFF AND ISZERO ISZERO EQ PUSH2 0x52D8 JUMPI PUSH1 0x40 MLOAD PUSH32 0x8C379A000000000000000000000000000000000000000000000000000000000 DUP2 MSTORE PUSH1 0x4 ADD PUSH2 0x52CF SWAP1 PUSH2 0x7811 JUMP JUMPDEST PUSH1 0x40 MLOAD DUP1 SWAP2 SUB SWAP1 REVERT JUMPDEST PUSH1 0x0 PUSH1 0x21 PUSH1 0x0 CALLER PUSH20 0xFFFFFFFFFFFFFFFFFFFFFFFFFFFFFFFFFFFFFFFF AND PUSH20 0xFFFFFFFFFFFFFFFFFFFFFFFFFFFFFFFFFFFFFFFF AND DUP2 MSTORE PUSH1 0x20 ADD SWAP1 DUP2 MSTORE PUSH1 0x20 ADD PUSH1 0x0 KECCAK256 SWAP1 POP PUSH2 0x5323 PUSH2 0x5F03 JUMP JUMPDEST PUSH2 0x532B PUSH2 0x58AB JUMP JUMPDEST PUSH1 0x0 DUP2 PUSH1 0x0 ADD SLOAD EQ ISZERO PUSH2 0x533E JUMPI POP PUSH2 0x54D3 JUMP JUMPDEST PUSH1 0x0 PUSH2 0x5383 DUP3 PUSH1 0x2 ADD SLOAD PUSH2 0x5375 PUSH1 0x17 SLOAD PUSH2 0x5367 PUSH1 0x1C SLOAD DUP8 PUSH1 0x0 ADD SLOAD PUSH2 0x5A94 SWAP1 SWAP2 SWAP1 PUSH4 0xFFFFFFFF AND JUMP JUMPDEST PUSH2 0x5AAA SWAP1 SWAP2 SWAP1 PUSH4 0xFFFFFFFF AND JUMP JUMPDEST PUSH2 0x5895 SWAP1 SWAP2 SWAP1 PUSH4 0xFFFFFFFF AND JUMP JUMPDEST SWAP1 POP PUSH1 0x0 DUP2 GT ISZERO PUSH2 0x549B JUMPI PUSH1 0x0 PUSH20 0xFFFFFFFFFFFFFFFFFFFFFFFFFFFFFFFFFFFFFFFF AND PUSH1 0x1A PUSH1 0x0 SWAP1 SLOAD SWAP1 PUSH2 0x100 EXP SWAP1 DIV PUSH20 0xFFFFFFFFFFFFFFFFFFFFFFFFFFFFFFFFFFFFFFFF AND PUSH20 0xFFFFFFFFFFFFFFFFFFFFFFFFFFFFFFFFFFFFFFFF AND EQ ISZERO PUSH2 0x5431 JUMPI CALLER PUSH20 0xFFFFFFFFFFFFFFFFFFFFFFFFFFFFFFFFFFFFFFFF AND PUSH2 0x8FC DUP3 SWAP1 DUP2 ISZERO MUL SWAP1 PUSH1 0x40 MLOAD PUSH1 0x0 PUSH1 0x40 MLOAD DUP1 DUP4 SUB DUP2 DUP6 DUP9 DUP9 CALL SWAP4 POP POP POP POP ISZERO DUP1 ISZERO PUSH2 0x542B JUMPI RETURNDATASIZE PUSH1 0x0 DUP1 RETURNDATACOPY RETURNDATASIZE PUSH1 0x0 REVERT JUMPDEST POP PUSH2 0x547F JUMP JUMPDEST PUSH2 0x547E CALLER DUP3 PUSH1 0x1A PUSH1 0x0 SWAP1 SLOAD SWAP1 PUSH2 0x100 EXP SWAP1 DIV PUSH20 0xFFFFFFFFFFFFFFFFFFFFFFFFFFFFFFFFFFFFFFFF AND PUSH20 0xFFFFFFFFFFFFFFFFFFFFFFFFFFFFFFFFFFFFFFFF AND PUSH2 0x5AC0 SWAP1 SWAP3 SWAP2 SWAP1 PUSH4 0xFFFFFFFF AND JUMP JUMPDEST JUMPDEST PUSH2 0x5494 DUP2 PUSH1 0x1F SLOAD PUSH2 0x5895 SWAP1 SWAP2 SWAP1 PUSH4 0xFFFFFFFF AND JUMP JUMPDEST PUSH1 0x1F DUP2 SWAP1 SSTORE POP JUMPDEST PUSH2 0x54C8 PUSH1 0x17 SLOAD PUSH2 0x54BA PUSH1 0x1C SLOAD DUP6 PUSH1 0x0 ADD SLOAD PUSH2 0x5A94 SWAP1 SWAP2 SWAP1 PUSH4 0xFFFFFFFF AND JUMP JUMPDEST PUSH2 0x5AAA SWAP1 SWAP2 SWAP1 PUSH4 0xFFFFFFFF AND JUMP JUMPDEST DUP3 PUSH1 0x2 ADD DUP2 SWAP1 SSTORE POP POP POP JUMPDEST PUSH1 0x1 DUP1 DUP2 SWAP1 SSTORE POP JUMP JUMPDEST PUSH2 0x54E4 PUSH2 0x588D JUMP JUMPDEST PUSH20 0xFFFFFFFFFFFFFFFFFFFFFFFFFFFFFFFFFFFFFFFF AND PUSH2 0x5502 PUSH2 0x3726 JUMP JUMPDEST PUSH20 0xFFFFFFFFFFFFFFFFFFFFFFFFFFFFFFFFFFFFFFFF AND EQ PUSH2 0x5558 JUMPI PUSH1 0x40 MLOAD PUSH32 0x8C379A000000000000000000000000000000000000000000000000000000000 DUP2 MSTORE PUSH1 0x4 ADD PUSH2 0x554F SWAP1 PUSH2 0x7651 JUMP JUMPDEST PUSH1 0x40 MLOAD DUP1 SWAP2 SUB SWAP1 REVERT JUMPDEST PUSH1 0x0 PUSH20 0xFFFFFFFFFFFFFFFFFFFFFFFFFFFFFFFFFFFFFFFF AND DUP2 PUSH20 0xFFFFFFFFFFFFFFFFFFFFFFFFFFFFFFFFFFFFFFFF AND EQ ISZERO PUSH2 0x55C8 JUMPI PUSH1 0x40 MLOAD PUSH32 0x8C379A000000000000000000000000000000000000000000000000000000000 DUP2 MSTORE PUSH1 0x4 ADD PUSH2 0x55BF SWAP1 PUSH2 0x7571 JUMP JUMPDEST PUSH1 0x40 MLOAD DUP1 SWAP2 SUB SWAP1 REVERT JUMPDEST PUSH2 0x55D1 DUP2 PUSH2 0x623E JUMP JUMPDEST POP JUMP JUMPDEST PUSH1 0x0 DUP1 PUSH1 0x21 PUSH1 0x0 DUP5 PUSH20 0xFFFFFFFFFFFFFFFFFFFFFFFFFFFFFFFFFFFFFFFF AND PUSH20 0xFFFFFFFFFFFFFFFFFFFFFFFFFFFFFFFFFFFFFFFF AND DUP2 MSTORE PUSH1 0x20 ADD SWAP1 DUP2 MSTORE PUSH1 0x20 ADD PUSH1 0x0 KECCAK256 SWAP1 POP PUSH1 0x9 SLOAD NUMBER GT DUP1 ISZERO PUSH2 0x562C JUMPI POP PUSH1 0x0 PUSH1 0x1D SLOAD EQ ISZERO JUMPDEST DUP1 ISZERO PUSH2 0x563A JUMPI POP PUSH1 0x0 PUSH1 0x9 SLOAD GT JUMPDEST ISZERO PUSH2 0x56F5 JUMPI PUSH1 0x0 PUSH2 0x564D PUSH1 0x9 SLOAD NUMBER PUSH2 0x638B JUMP JUMPDEST SWAP1 POP PUSH1 0x0 PUSH2 0x5666 PUSH1 0x8 SLOAD DUP4 PUSH2 0x5A94 SWAP1 SWAP2 SWAP1 PUSH4 0xFFFFFFFF AND JUMP JUMPDEST SWAP1 POP PUSH1 0x0 PUSH2 0x56A7 PUSH2 0x5696 PUSH1 0x1D SLOAD PUSH2 0x5688 PUSH1 0x16 SLOAD DUP7 PUSH2 0x5A94 SWAP1 SWAP2 SWAP1 PUSH4 0xFFFFFFFF AND JUMP JUMPDEST PUSH2 0x5AAA SWAP1 SWAP2 SWAP1 PUSH4 0xFFFFFFFF AND JUMP JUMPDEST PUSH1 0x1B SLOAD PUSH2 0x6228 SWAP1 SWAP2 SWAP1 PUSH4 0xFFFFFFFF AND JUMP JUMPDEST SWAP1 POP PUSH2 0x56EA DUP5 PUSH1 0x1 ADD SLOAD PUSH2 0x56DC PUSH1 0x16 SLOAD PUSH2 0x56CE DUP6 DUP10 PUSH1 0x0 ADD SLOAD PUSH2 0x5A94 SWAP1 SWAP2 SWAP1 PUSH4 0xFFFFFFFF AND JUMP JUMPDEST PUSH2 0x5AAA SWAP1 SWAP2 SWAP1 PUSH4 0xFFFFFFFF AND JUMP JUMPDEST PUSH2 0x5895 SWAP1 SWAP2 SWAP1 PUSH4 0xFFFFFFFF AND JUMP JUMPDEST SWAP5 POP POP POP POP POP PUSH2 0x573C JUMP JUMPDEST PUSH2 0x5738 DUP2 PUSH1 0x1 ADD SLOAD PUSH2 0x572A PUSH1 0x16 SLOAD PUSH2 0x571C PUSH1 0x1B SLOAD DUP7 PUSH1 0x0 ADD SLOAD PUSH2 0x5A94 SWAP1 SWAP2 SWAP1 PUSH4 0xFFFFFFFF AND JUMP JUMPDEST PUSH2 0x5AAA SWAP1 SWAP2 SWAP1 PUSH4 0xFFFFFFFF AND JUMP JUMPDEST PUSH2 0x5895 SWAP1 SWAP2 SWAP1 PUSH4 0xFFFFFFFF AND JUMP JUMPDEST SWAP2 POP POP JUMPDEST SWAP2 SWAP1 POP JUMP JUMPDEST PUSH2 0x5749 PUSH2 0x588D JUMP JUMPDEST PUSH20 0xFFFFFFFFFFFFFFFFFFFFFFFFFFFFFFFFFFFFFFFF AND PUSH2 0x5767 PUSH2 0x3726 JUMP JUMPDEST PUSH20 0xFFFFFFFFFFFFFFFFFFFFFFFFFFFFFFFFFFFFFFFF AND EQ PUSH2 0x57BD JUMPI PUSH1 0x40 MLOAD PUSH32 0x8C379A000000000000000000000000000000000000000000000000000000000 DUP2 MSTORE PUSH1 0x4 ADD PUSH2 0x57B4 SWAP1 PUSH2 0x7651 JUMP JUMPDEST PUSH1 0x40 MLOAD DUP1 SWAP2 SUB SWAP1 REVERT JUMPDEST PUSH1 0x0 PUSH1 0x6 SLOAD EQ PUSH2 0x5802 JUMPI PUSH1 0x40 MLOAD PUSH32 0x8C379A000000000000000000000000000000000000000000000000000000000 DUP2 MSTORE PUSH1 0x4 ADD PUSH2 0x57F9 SWAP1 PUSH2 0x74F1 JUMP JUMPDEST PUSH1 0x40 MLOAD DUP1 SWAP2 SUB SWAP1 REVERT JUMPDEST PUSH1 0x1E DUP2 LT ISZERO PUSH2 0x5846 JUMPI PUSH1 0x40 MLOAD PUSH32 0x8C379A000000000000000000000000000000000000000000000000000000000 DUP2 MSTORE PUSH1 0x4 ADD PUSH2 0x583D SWAP1 PUSH2 0x7591 JUMP JUMPDEST PUSH1 0x40 MLOAD DUP1 SWAP2 SUB SWAP1 REVERT JUMPDEST DUP1 PUSH1 0x3 DUP2 SWAP1 SSTORE POP PUSH32 0x91ABCC2D6823E3A3F11D31B208DD3065D2C6A791F1C7C9FE96A42CE12897EAC5 DUP2 PUSH1 0x40 MLOAD PUSH2 0x587C SWAP2 SWAP1 PUSH2 0x7871 JUMP JUMPDEST PUSH1 0x40 MLOAD DUP1 SWAP2 SUB SWAP1 LOG1 POP JUMP JUMPDEST PUSH1 0xA SLOAD DUP2 JUMP JUMPDEST PUSH1 0x0 CALLER SWAP1 POP SWAP1 JUMP JUMPDEST PUSH1 0x0 DUP2 DUP4 PUSH2 0x58A3 SWAP2 SWAP1 PUSH2 0x7D2D JUMP JUMPDEST SWAP1 POP SWAP3 SWAP2 POP POP JUMP JUMPDEST PUSH1 0x0 PUSH1 0x1D SLOAD GT DUP1 ISZERO PUSH2 0x58C9 JUMPI POP PUSH1 0x1A PUSH1 0x14 SWAP1 SLOAD SWAP1 PUSH2 0x100 EXP SWAP1 DIV PUSH1 0xFF AND JUMPDEST ISZERO PUSH2 0x59E8 JUMPI PUSH1 0x0 PUSH2 0x58D8 PUSH2 0x4A5D JUMP JUMPDEST SWAP1 POP PUSH1 0x0 PUSH1 0x18 PUSH1 0x0 SWAP1 SLOAD SWAP1 PUSH2 0x100 EXP SWAP1 DIV PUSH20 0xFFFFFFFFFFFFFFFFFFFFFFFFFFFFFFFFFFFFFFFF AND PUSH20 0xFFFFFFFFFFFFFFFFFFFFFFFFFFFFFFFFFFFFFFFF AND PUSH4 0x70A08231 ADDRESS PUSH1 0x40 MLOAD DUP3 PUSH4 0xFFFFFFFF AND PUSH1 0xE0 SHL DUP2 MSTORE PUSH1 0x4 ADD PUSH2 0x5937 SWAP2 SWAP1 PUSH2 0x73F5 JUMP JUMPDEST PUSH1 0x20 PUSH1 0x40 MLOAD DUP1 DUP4 SUB DUP2 DUP7 DUP1 EXTCODESIZE ISZERO DUP1 ISZERO PUSH2 0x594F JUMPI PUSH1 0x0 DUP1 REVERT JUMPDEST POP GAS STATICCALL ISZERO DUP1 ISZERO PUSH2 0x5963 JUMPI RETURNDATASIZE PUSH1 0x0 DUP1 RETURNDATACOPY RETURNDATASIZE PUSH1 0x0 REVERT JUMPDEST POP POP POP POP PUSH1 0x40 MLOAD RETURNDATASIZE PUSH1 0x1F NOT PUSH1 0x1F DUP3 ADD AND DUP3 ADD DUP1 PUSH1 0x40 MSTORE POP DUP2 ADD SWAP1 PUSH2 0x5987 SWAP2 SWAP1 PUSH2 0x6DBF JUMP JUMPDEST SWAP1 POP PUSH2 0x59D8 PUSH2 0x59C7 DUP3 PUSH2 0x59B9 PUSH1 0x17 SLOAD PUSH2 0x59AB PUSH1 0x1F SLOAD DUP9 PUSH2 0x5895 SWAP1 SWAP2 SWAP1 PUSH4 0xFFFFFFFF AND JUMP JUMPDEST PUSH2 0x5A94 SWAP1 SWAP2 SWAP1 PUSH4 0xFFFFFFFF AND JUMP JUMPDEST PUSH2 0x5AAA SWAP1 SWAP2 SWAP1 PUSH4 0xFFFFFFFF AND JUMP JUMPDEST PUSH1 0x1C SLOAD PUSH2 0x6228 SWAP1 SWAP2 SWAP1 PUSH4 0xFFFFFFFF AND JUMP JUMPDEST PUSH1 0x1C DUP2 SWAP1 SSTORE POP DUP2 PUSH1 0x1F DUP2 SWAP1 SSTORE POP POP POP JUMPDEST PUSH1 0x9 SLOAD NUMBER GT ISZERO DUP1 PUSH2 0x59FB JUMPI POP PUSH1 0x0 PUSH1 0x9 SLOAD EQ JUMPDEST ISZERO PUSH2 0x5A05 JUMPI PUSH2 0x5A92 JUMP JUMPDEST PUSH1 0x0 PUSH1 0x1D SLOAD EQ ISZERO PUSH2 0x5A1C JUMPI NUMBER PUSH1 0x9 DUP2 SWAP1 SSTORE POP PUSH2 0x5A92 JUMP JUMPDEST PUSH1 0x0 PUSH2 0x5A2A PUSH1 0x9 SLOAD NUMBER PUSH2 0x638B JUMP JUMPDEST SWAP1 POP PUSH1 0x0 PUSH2 0x5A43 PUSH1 0x8 SLOAD DUP4 PUSH2 0x5A94 SWAP1 SWAP2 SWAP1 PUSH4 0xFFFFFFFF AND JUMP JUMPDEST SWAP1 POP PUSH2 0x5A82 PUSH2 0x5A71 PUSH1 0x1D SLOAD PUSH2 0x5A63 PUSH1 0x16 SLOAD DUP6 PUSH2 0x5A94 SWAP1 SWAP2 SWAP1 PUSH4 0xFFFFFFFF AND JUMP JUMPDEST PUSH2 0x5AAA SWAP1 SWAP2 SWAP1 PUSH4 0xFFFFFFFF AND JUMP JUMPDEST PUSH1 0x1B SLOAD PUSH2 0x6228 SWAP1 SWAP2 SWAP1 PUSH4 0xFFFFFFFF AND JUMP JUMPDEST PUSH1 0x1B DUP2 SWAP1 SSTORE POP NUMBER PUSH1 0x9 DUP2 SWAP1 SSTORE POP POP POP JUMPDEST JUMP JUMPDEST PUSH1 0x0 DUP2 DUP4 PUSH2 0x5AA2 SWAP2 SWAP1 PUSH2 0x7CD3 JUMP JUMPDEST SWAP1 POP SWAP3 SWAP2 POP POP JUMP JUMPDEST PUSH1 0x0 DUP2 DUP4 PUSH2 0x5AB8 SWAP2 SWAP1 PUSH2 0x7B31 JUMP JUMPDEST SWAP1 POP SWAP3 SWAP2 POP POP JUMP JUMPDEST PUSH2 0x5B41 DUP4 PUSH4 0xA9059CBB PUSH1 0xE0 SHL DUP5 DUP5 PUSH1 0x40 MLOAD PUSH1 0x24 ADD PUSH2 0x5ADF SWAP3 SWAP2 SWAP1 PUSH2 0x7470 JUMP JUMPDEST PUSH1 0x40 MLOAD PUSH1 0x20 DUP2 DUP4 SUB SUB DUP2 MSTORE SWAP1 PUSH1 0x40 MSTORE SWAP1 PUSH28 0xFFFFFFFFFFFFFFFFFFFFFFFFFFFFFFFFFFFFFFFFFFFFFFFFFFFFFFFF NOT AND PUSH1 0x20 DUP3 ADD DUP1 MLOAD PUSH28 0xFFFFFFFFFFFFFFFFFFFFFFFFFFFFFFFFFFFFFFFFFFFFFFFFFFFFFFFF DUP4 DUP2 DUP4 AND OR DUP4 MSTORE POP POP POP POP PUSH2 0x63E0 JUMP JUMPDEST POP POP POP JUMP JUMPDEST PUSH2 0x5BB6 PUSH1 0xB PUSH1 0x0 SWAP1 SLOAD SWAP1 PUSH2 0x100 EXP SWAP1 DIV PUSH20 0xFFFFFFFFFFFFFFFFFFFFFFFFFFFFFFFFFFFFFFFF AND PUSH1 0x0 PUSH1 0x19 PUSH1 0x0 SWAP1 SLOAD SWAP1 PUSH2 0x100 EXP SWAP1 DIV PUSH20 0xFFFFFFFFFFFFFFFFFFFFFFFFFFFFFFFFFFFFFFFF AND PUSH20 0xFFFFFFFFFFFFFFFFFFFFFFFFFFFFFFFFFFFFFFFF AND PUSH2 0x64A7 SWAP1 SWAP3 SWAP2 SWAP1 PUSH4 0xFFFFFFFF AND JUMP JUMPDEST PUSH2 0x5C45 PUSH1 0xB PUSH1 0x0 SWAP1 SLOAD SWAP1 PUSH2 0x100 EXP SWAP1 DIV PUSH20 0xFFFFFFFFFFFFFFFFFFFFFFFFFFFFFFFFFFFFFFFF AND PUSH32 0xFFFFFFFFFFFFFFFFFFFFFFFFFFFFFFFFFFFFFFFFFFFFFFFFFFFFFFFFFFFFFFFF PUSH1 0x19 PUSH1 0x0 SWAP1 SLOAD SWAP1 PUSH2 0x100 EXP SWAP1 DIV PUSH20 0xFFFFFFFFFFFFFFFFFFFFFFFFFFFFFFFFFFFFFFFF AND PUSH20 0xFFFFFFFFFFFFFFFFFFFFFFFFFFFFFFFFFFFFFFFF AND PUSH2 0x6605 SWAP1 SWAP3 SWAP2 SWAP1 PUSH4 0xFFFFFFFF AND JUMP JUMPDEST PUSH1 0x0 PUSH20 0xFFFFFFFFFFFFFFFFFFFFFFFFFFFFFFFFFFFFFFFF AND PUSH1 0x1A PUSH1 0x0 SWAP1 SLOAD SWAP1 PUSH2 0x100 EXP SWAP1 DIV PUSH20 0xFFFFFFFFFFFFFFFFFFFFFFFFFFFFFFFFFFFFFFFF AND PUSH20 0xFFFFFFFFFFFFFFFFFFFFFFFFFFFFFFFFFFFFFFFF AND EQ ISZERO PUSH2 0x5E01 JUMPI PUSH1 0x0 PUSH1 0xB PUSH1 0x0 SWAP1 SLOAD SWAP1 PUSH2 0x100 EXP SWAP1 DIV PUSH20 0xFFFFFFFFFFFFFFFFFFFFFFFFFFFFFFFFFFFFFFFF AND PUSH20 0xFFFFFFFFFFFFFFFFFFFFFFFFFFFFFFFFFFFFFFFF AND PUSH4 0xAD5C4648 PUSH1 0x40 MLOAD DUP2 PUSH4 0xFFFFFFFF AND PUSH1 0xE0 SHL DUP2 MSTORE PUSH1 0x4 ADD PUSH1 0x20 PUSH1 0x40 MLOAD DUP1 DUP4 SUB DUP2 DUP7 DUP1 EXTCODESIZE ISZERO DUP1 ISZERO PUSH2 0x5D06 JUMPI PUSH1 0x0 DUP1 REVERT JUMPDEST POP GAS STATICCALL ISZERO DUP1 ISZERO PUSH2 0x5D1A JUMPI RETURNDATASIZE PUSH1 0x0 DUP1 RETURNDATACOPY RETURNDATASIZE PUSH1 0x0 REVERT JUMPDEST POP POP POP POP PUSH1 0x40 MLOAD RETURNDATASIZE PUSH1 0x1F NOT PUSH1 0x1F DUP3 ADD AND DUP3 ADD DUP1 PUSH1 0x40 MSTORE POP DUP2 ADD SWAP1 PUSH2 0x5D3E SWAP2 SWAP1 PUSH2 0x6B80 JUMP JUMPDEST SWAP1 POP PUSH2 0x5D8E PUSH1 0xB PUSH1 0x0 SWAP1 SLOAD SWAP1 PUSH2 0x100 EXP SWAP1 DIV PUSH20 0xFFFFFFFFFFFFFFFFFFFFFFFFFFFFFFFFFFFFFFFF AND PUSH1 0x0 DUP4 PUSH20 0xFFFFFFFFFFFFFFFFFFFFFFFFFFFFFFFFFFFFFFFF AND PUSH2 0x64A7 SWAP1 SWAP3 SWAP2 SWAP1 PUSH4 0xFFFFFFFF AND JUMP JUMPDEST PUSH2 0x5DFB PUSH1 0xB PUSH1 0x0 SWAP1 SLOAD SWAP1 PUSH2 0x100 EXP SWAP1 DIV PUSH20 0xFFFFFFFFFFFFFFFFFFFFFFFFFFFFFFFFFFFFFFFF AND PUSH32 0xFFFFFFFFFFFFFFFFFFFFFFFFFFFFFFFFFFFFFFFFFFFFFFFFFFFFFFFFFFFFFFFF DUP4 PUSH20 0xFFFFFFFFFFFFFFFFFFFFFFFFFFFFFFFFFFFFFFFF AND PUSH2 0x6605 SWAP1 SWAP3 SWAP2 SWAP1 PUSH4 0xFFFFFFFF AND JUMP JUMPDEST POP PUSH2 0x5F01 JUMP JUMPDEST PUSH2 0x5E71 PUSH1 0xB PUSH1 0x0 SWAP1 SLOAD SWAP1 PUSH2 0x100 EXP SWAP1 DIV PUSH20 0xFFFFFFFFFFFFFFFFFFFFFFFFFFFFFFFFFFFFFFFF AND PUSH1 0x0 PUSH1 0x1A PUSH1 0x0 SWAP1 SLOAD SWAP1 PUSH2 0x100 EXP SWAP1 DIV PUSH20 0xFFFFFFFFFFFFFFFFFFFFFFFFFFFFFFFFFFFFFFFF AND PUSH20 0xFFFFFFFFFFFFFFFFFFFFFFFFFFFFFFFFFFFFFFFF AND PUSH2 0x64A7 SWAP1 SWAP3 SWAP2 SWAP1 PUSH4 0xFFFFFFFF AND JUMP JUMPDEST PUSH2 0x5F00 PUSH1 0xB PUSH1 0x0 SWAP1 SLOAD SWAP1 PUSH2 0x100 EXP SWAP1 DIV PUSH20 0xFFFFFFFFFFFFFFFFFFFFFFFFFFFFFFFFFFFFFFFF AND PUSH32 0xFFFFFFFFFFFFFFFFFFFFFFFFFFFFFFFFFFFFFFFFFFFFFFFFFFFFFFFFFFFFFFFF PUSH1 0x1A PUSH1 0x0 SWAP1 SLOAD SWAP1 PUSH2 0x100 EXP SWAP1 DIV PUSH20 0xFFFFFFFFFFFFFFFFFFFFFFFFFFFFFFFFFFFFFFFF AND PUSH20 0xFFFFFFFFFFFFFFFFFFFFFFFFFFFFFFFFFFFFFFFF AND PUSH2 0x6605 SWAP1 SWAP3 SWAP2 SWAP1 PUSH4 0xFFFFFFFF AND JUMP JUMPDEST JUMPDEST JUMP JUMPDEST PUSH1 0x15 SLOAD CALLVALUE LT ISZERO PUSH2 0x5F48 JUMPI PUSH1 0x40 MLOAD PUSH32 0x8C379A000000000000000000000000000000000000000000000000000000000 DUP2 MSTORE PUSH1 0x4 ADD PUSH2 0x5F3F SWAP1 PUSH2 0x76F1 JUMP JUMPDEST PUSH1 0x40 MLOAD DUP1 SWAP2 SUB SWAP1 REVERT JUMPDEST PUSH1 0x14 PUSH1 0x0 SWAP1 SLOAD SWAP1 PUSH2 0x100 EXP SWAP1 DIV PUSH20 0xFFFFFFFFFFFFFFFFFFFFFFFFFFFFFFFFFFFFFFFF AND PUSH20 0xFFFFFFFFFFFFFFFFFFFFFFFFFFFFFFFFFFFFFFFF AND PUSH2 0x8FC PUSH1 0x15 SLOAD SWAP1 DUP2 ISZERO MUL SWAP1 PUSH1 0x40 MLOAD PUSH1 0x0 PUSH1 0x40 MLOAD DUP1 DUP4 SUB DUP2 DUP6 DUP9 DUP9 CALL SWAP4 POP POP POP POP ISZERO DUP1 ISZERO PUSH2 0x5FB2 JUMPI RETURNDATASIZE PUSH1 0x0 DUP1 RETURNDATACOPY RETURNDATASIZE PUSH1 0x0 REVERT JUMPDEST POP PUSH1 0x15 SLOAD CALLVALUE GT ISZERO PUSH2 0x6019 JUMPI CALLER PUSH20 0xFFFFFFFFFFFFFFFFFFFFFFFFFFFFFFFFFFFFFFFF AND PUSH2 0x8FC PUSH2 0x5FEC PUSH1 0x15 SLOAD CALLVALUE PUSH2 0x5895 SWAP1 SWAP2 SWAP1 PUSH4 0xFFFFFFFF AND JUMP JUMPDEST SWAP1 DUP2 ISZERO MUL SWAP1 PUSH1 0x40 MLOAD PUSH1 0x0 PUSH1 0x40 MLOAD DUP1 DUP4 SUB DUP2 DUP6 DUP9 DUP9 CALL SWAP4 POP POP POP POP ISZERO DUP1 ISZERO PUSH2 0x6017 JUMPI RETURNDATASIZE PUSH1 0x0 DUP1 RETURNDATACOPY RETURNDATASIZE PUSH1 0x0 REVERT JUMPDEST POP JUMPDEST JUMP JUMPDEST PUSH1 0x0 PUSH1 0xB PUSH1 0x0 SWAP1 SLOAD SWAP1 PUSH2 0x100 EXP SWAP1 DIV PUSH20 0xFFFFFFFFFFFFFFFFFFFFFFFFFFFFFFFFFFFFFFFF AND PUSH20 0xFFFFFFFFFFFFFFFFFFFFFFFFFFFFFFFFFFFFFFFF AND PUSH4 0xD06CA61F DUP6 DUP6 PUSH1 0x40 MLOAD DUP4 PUSH4 0xFFFFFFFF AND PUSH1 0xE0 SHL DUP2 MSTORE PUSH1 0x4 ADD PUSH2 0x607A SWAP3 SWAP2 SWAP1 PUSH2 0x788C JUMP JUMPDEST PUSH1 0x0 PUSH1 0x40 MLOAD DUP1 DUP4 SUB DUP2 DUP7 DUP1 EXTCODESIZE ISZERO DUP1 ISZERO PUSH2 0x6092 JUMPI PUSH1 0x0 DUP1 REVERT JUMPDEST POP GAS STATICCALL ISZERO DUP1 ISZERO PUSH2 0x60A6 JUMPI RETURNDATASIZE PUSH1 0x0 DUP1 RETURNDATACOPY RETURNDATASIZE PUSH1 0x0 REVERT JUMPDEST POP POP POP POP PUSH1 0x40 MLOAD RETURNDATASIZE PUSH1 0x0 DUP3 RETURNDATACOPY RETURNDATASIZE PUSH1 0x1F NOT PUSH1 0x1F DUP3 ADD AND DUP3 ADD DUP1 PUSH1 0x40 MSTORE POP DUP2 ADD SWAP1 PUSH2 0x60CF SWAP2 SWAP1 PUSH2 0x6BE5 JUMP JUMPDEST SWAP1 POP PUSH1 0x0 DUP2 PUSH2 0x60E9 PUSH1 0x1 DUP5 MLOAD PUSH2 0x5895 SWAP1 SWAP2 SWAP1 PUSH4 0xFFFFFFFF AND JUMP JUMPDEST DUP2 MLOAD DUP2 LT PUSH2 0x6120 JUMPI PUSH32 0x4E487B7100000000000000000000000000000000000000000000000000000000 PUSH1 0x0 MSTORE PUSH1 0x32 PUSH1 0x4 MSTORE PUSH1 0x24 PUSH1 0x0 REVERT JUMPDEST PUSH1 0x20 MUL PUSH1 0x20 ADD ADD MLOAD SWAP1 POP PUSH1 0xB PUSH1 0x0 SWAP1 SLOAD SWAP1 PUSH2 0x100 EXP SWAP1 DIV PUSH20 0xFFFFFFFFFFFFFFFFFFFFFFFFFFFFFFFFFFFFFFFF AND PUSH20 0xFFFFFFFFFFFFFFFFFFFFFFFFFFFFFFFFFFFFFFFF AND PUSH4 0x38ED1739 DUP7 PUSH2 0x6192 PUSH2 0x3E8 PUSH2 0x6184 PUSH1 0xA SLOAD DUP8 PUSH2 0x5A94 SWAP1 SWAP2 SWAP1 PUSH4 0xFFFFFFFF AND JUMP JUMPDEST PUSH2 0x5AAA SWAP1 SWAP2 SWAP1 PUSH4 0xFFFFFFFF AND JUMP JUMPDEST DUP8 DUP8 PUSH2 0x61A9 PUSH2 0x258 TIMESTAMP PUSH2 0x6228 SWAP1 SWAP2 SWAP1 PUSH4 0xFFFFFFFF AND JUMP JUMPDEST PUSH1 0x40 MLOAD DUP7 PUSH4 0xFFFFFFFF AND PUSH1 0xE0 SHL DUP2 MSTORE PUSH1 0x4 ADD PUSH2 0x61C9 SWAP6 SWAP5 SWAP4 SWAP3 SWAP2 SWAP1 PUSH2 0x78E5 JUMP JUMPDEST PUSH1 0x0 PUSH1 0x40 MLOAD DUP1 DUP4 SUB DUP2 PUSH1 0x0 DUP8 DUP1 EXTCODESIZE ISZERO DUP1 ISZERO PUSH2 0x61E3 JUMPI PUSH1 0x0 DUP1 REVERT JUMPDEST POP GAS CALL ISZERO DUP1 ISZERO PUSH2 0x61F7 JUMPI RETURNDATASIZE PUSH1 0x0 DUP1 RETURNDATACOPY RETURNDATASIZE PUSH1 0x0 REVERT JUMPDEST POP POP POP POP PUSH1 0x40 MLOAD RETURNDATASIZE PUSH1 0x0 DUP3 RETURNDATACOPY RETURNDATASIZE PUSH1 0x1F NOT PUSH1 0x1F DUP3 ADD AND DUP3 ADD DUP1 PUSH1 0x40 MSTORE POP DUP2 ADD SWAP1 PUSH2 0x6220 SWAP2 SWAP1 PUSH2 0x6BE5 JUMP JUMPDEST POP POP POP POP POP POP JUMP JUMPDEST PUSH1 0x0 DUP2 DUP4 PUSH2 0x6236 SWAP2 SWAP1 PUSH2 0x7ADB JUMP JUMPDEST SWAP1 POP SWAP3 SWAP2 POP POP JUMP JUMPDEST PUSH1 0x0 DUP1 PUSH1 0x0 SWAP1 SLOAD SWAP1 PUSH2 0x100 EXP SWAP1 DIV PUSH20 0xFFFFFFFFFFFFFFFFFFFFFFFFFFFFFFFFFFFFFFFF AND SWAP1 POP DUP2 PUSH1 0x0 DUP1 PUSH2 0x100 EXP DUP2 SLOAD DUP2 PUSH20 0xFFFFFFFFFFFFFFFFFFFFFFFFFFFFFFFFFFFFFFFF MUL NOT AND SWAP1 DUP4 PUSH20 0xFFFFFFFFFFFFFFFFFFFFFFFFFFFFFFFFFFFFFFFF AND MUL OR SWAP1 SSTORE POP DUP2 PUSH20 0xFFFFFFFFFFFFFFFFFFFFFFFFFFFFFFFFFFFFFFFF AND DUP2 PUSH20 0xFFFFFFFFFFFFFFFFFFFFFFFFFFFFFFFFFFFFFFFF AND PUSH32 0x8BE0079C531659141344CD1FD0A4F28419497F9722A3DAAFE3B4186F6B6457E0 PUSH1 0x40 MLOAD PUSH1 0x40 MLOAD DUP1 SWAP2 SUB SWAP1 LOG3 POP POP JUMP JUMPDEST PUSH2 0x6385 DUP5 PUSH4 0x23B872DD PUSH1 0xE0 SHL DUP6 DUP6 DUP6 PUSH1 0x40 MLOAD PUSH1 0x24 ADD PUSH2 0x6323 SWAP4 SWAP3 SWAP2 SWAP1 PUSH2 0x7439 JUMP JUMPDEST PUSH1 0x40 MLOAD PUSH1 0x20 DUP2 DUP4 SUB SUB DUP2 MSTORE SWAP1 PUSH1 0x40 MSTORE SWAP1 PUSH28 0xFFFFFFFFFFFFFFFFFFFFFFFFFFFFFFFFFFFFFFFFFFFFFFFFFFFFFFFF NOT AND PUSH1 0x20 DUP3 ADD DUP1 MLOAD PUSH28 0xFFFFFFFFFFFFFFFFFFFFFFFFFFFFFFFFFFFFFFFFFFFFFFFFFFFFFFFF DUP4 DUP2 DUP4 AND OR DUP4 MSTORE POP POP POP POP PUSH2 0x63E0 JUMP JUMPDEST POP POP POP POP JUMP JUMPDEST PUSH1 0x0 PUSH1 0x7 SLOAD DUP3 GT PUSH2 0x63B0 JUMPI PUSH2 0x63A9 DUP4 DUP4 PUSH2 0x5895 SWAP1 SWAP2 SWAP1 PUSH4 0xFFFFFFFF AND JUMP JUMPDEST SWAP1 POP PUSH2 0x63DA JUMP JUMPDEST PUSH1 0x7 SLOAD DUP4 LT PUSH2 0x63C2 JUMPI PUSH1 0x0 SWAP1 POP PUSH2 0x63DA JUMP JUMPDEST PUSH2 0x63D7 DUP4 PUSH1 0x7 SLOAD PUSH2 0x5895 SWAP1 SWAP2 SWAP1 PUSH4 0xFFFFFFFF AND JUMP JUMPDEST SWAP1 POP JUMPDEST SWAP3 SWAP2 POP POP JUMP JUMPDEST PUSH1 0x0 PUSH2 0x6442 DUP3 PUSH1 0x40 MLOAD DUP1 PUSH1 0x40 ADD PUSH1 0x40 MSTORE DUP1 PUSH1 0x20 DUP2 MSTORE PUSH1 0x20 ADD PUSH32 0x5361666545524332303A206C6F772D6C6576656C2063616C6C206661696C6564 DUP2 MSTORE POP DUP6 PUSH20 0xFFFFFFFFFFFFFFFFFFFFFFFFFFFFFFFFFFFFFFFF AND PUSH2 0x6726 SWAP1 SWAP3 SWAP2 SWAP1 PUSH4 0xFFFFFFFF AND JUMP JUMPDEST SWAP1 POP PUSH1 0x0 DUP2 MLOAD GT ISZERO PUSH2 0x64A2 JUMPI DUP1 DUP1 PUSH1 0x20 ADD SWAP1 MLOAD DUP2 ADD SWAP1 PUSH2 0x6462 SWAP2 SWAP1 PUSH2 0x6C26 JUMP JUMPDEST PUSH2 0x64A1 JUMPI PUSH1 0x40 MLOAD PUSH32 0x8C379A000000000000000000000000000000000000000000000000000000000 DUP2 MSTORE PUSH1 0x4 ADD PUSH2 0x6498 SWAP1 PUSH2 0x7791 JUMP JUMPDEST PUSH1 0x40 MLOAD DUP1 SWAP2 SUB SWAP1 REVERT JUMPDEST JUMPDEST POP POP POP JUMP JUMPDEST PUSH1 0x0 DUP2 EQ DUP1 PUSH2 0x6540 JUMPI POP PUSH1 0x0 DUP4 PUSH20 0xFFFFFFFFFFFFFFFFFFFFFFFFFFFFFFFFFFFFFFFF AND PUSH4 0xDD62ED3E ADDRESS DUP6 PUSH1 0x40 MLOAD DUP4 PUSH4 0xFFFFFFFF AND PUSH1 0xE0 SHL DUP2 MSTORE PUSH1 0x4 ADD PUSH2 0x64EE SWAP3 SWAP2 SWAP1 PUSH2 0x7410 JUMP JUMPDEST PUSH1 0x20 PUSH1 0x40 MLOAD DUP1 DUP4 SUB DUP2 DUP7 DUP1 EXTCODESIZE ISZERO DUP1 ISZERO PUSH2 0x6506 JUMPI PUSH1 0x0 DUP1 REVERT JUMPDEST POP GAS STATICCALL ISZERO DUP1 ISZERO PUSH2 0x651A JUMPI RETURNDATASIZE PUSH1 0x0 DUP1 RETURNDATACOPY RETURNDATASIZE PUSH1 0x0 REVERT JUMPDEST POP POP POP POP PUSH1 0x40 MLOAD RETURNDATASIZE PUSH1 0x1F NOT PUSH1 0x1F DUP3 ADD AND DUP3 ADD DUP1 PUSH1 0x40 MSTORE POP DUP2 ADD SWAP1 PUSH2 0x653E SWAP2 SWAP1 PUSH2 0x6DBF JUMP JUMPDEST EQ JUMPDEST PUSH2 0x657F JUMPI PUSH1 0x40 MLOAD PUSH32 0x8C379A000000000000000000000000000000000000000000000000000000000 DUP2 MSTORE PUSH1 0x4 ADD PUSH2 0x6576 SWAP1 PUSH2 0x77F1 JUMP JUMPDEST PUSH1 0x40 MLOAD DUP1 SWAP2 SUB SWAP1 REVERT JUMPDEST PUSH2 0x6600 DUP4 PUSH4 0x95EA7B3 PUSH1 0xE0 SHL DUP5 DUP5 PUSH1 0x40 MLOAD PUSH1 0x24 ADD PUSH2 0x659E SWAP3 SWAP2 SWAP1 PUSH2 0x7470 JUMP JUMPDEST PUSH1 0x40 MLOAD PUSH1 0x20 DUP2 DUP4 SUB SUB DUP2 MSTORE SWAP1 PUSH1 0x40 MSTORE SWAP1 PUSH28 0xFFFFFFFFFFFFFFFFFFFFFFFFFFFFFFFFFFFFFFFFFFFFFFFFFFFFFFFF NOT AND PUSH1 0x20 DUP3 ADD DUP1 MLOAD PUSH28 0xFFFFFFFFFFFFFFFFFFFFFFFFFFFFFFFFFFFFFFFFFFFFFFFFFFFFFFFF DUP4 DUP2 DUP4 AND OR DUP4 MSTORE POP POP POP POP PUSH2 0x63E0 JUMP JUMPDEST POP POP POP JUMP JUMPDEST PUSH1 0x0 DUP2 DUP5 PUSH20 0xFFFFFFFFFFFFFFFFFFFFFFFFFFFFFFFFFFFFFFFF AND PUSH4 0xDD62ED3E ADDRESS DUP7 PUSH1 0x40 MLOAD DUP4 PUSH4 0xFFFFFFFF AND PUSH1 0xE0 SHL DUP2 MSTORE PUSH1 0x4 ADD PUSH2 0x6643 SWAP3 SWAP2 SWAP1 PUSH2 0x7410 JUMP JUMPDEST PUSH1 0x20 PUSH1 0x40 MLOAD DUP1 DUP4 SUB DUP2 DUP7 DUP1 EXTCODESIZE ISZERO DUP1 ISZERO PUSH2 0x665B JUMPI PUSH1 0x0 DUP1 REVERT JUMPDEST POP GAS STATICCALL ISZERO DUP1 ISZERO PUSH2 0x666F JUMPI RETURNDATASIZE PUSH1 0x0 DUP1 RETURNDATACOPY RETURNDATASIZE PUSH1 0x0 REVERT JUMPDEST POP POP POP POP PUSH1 0x40 MLOAD RETURNDATASIZE PUSH1 0x1F NOT PUSH1 0x1F DUP3 ADD AND DUP3 ADD DUP1 PUSH1 0x40 MSTORE POP DUP2 ADD SWAP1 PUSH2 0x6693 SWAP2 SWAP1 PUSH2 0x6DBF JUMP JUMPDEST PUSH2 0x669D SWAP2 SWAP1 PUSH2 0x7ADB JUMP JUMPDEST SWAP1 POP PUSH2 0x6720 DUP5 PUSH4 0x95EA7B3 PUSH1 0xE0 SHL DUP6 DUP5 PUSH1 0x40 MLOAD PUSH1 0x24 ADD PUSH2 0x66BE SWAP3 SWAP2 SWAP1 PUSH2 0x7470 JUMP JUMPDEST PUSH1 0x40 MLOAD PUSH1 0x20 DUP2 DUP4 SUB SUB DUP2 MSTORE SWAP1 PUSH1 0x40 MSTORE SWAP1 PUSH28 0xFFFFFFFFFFFFFFFFFFFFFFFFFFFFFFFFFFFFFFFFFFFFFFFFFFFFFFFF NOT AND PUSH1 0x20 DUP3 ADD DUP1 MLOAD PUSH28 0xFFFFFFFFFFFFFFFFFFFFFFFFFFFFFFFFFFFFFFFFFFFFFFFFFFFFFFFF DUP4 DUP2 DUP4 AND OR DUP4 MSTORE POP POP POP POP PUSH2 0x63E0 JUMP JUMPDEST POP POP POP POP JUMP JUMPDEST PUSH1 0x60 PUSH2 0x6735 DUP5 DUP5 PUSH1 0x0 DUP6 PUSH2 0x673E JUMP JUMPDEST SWAP1 POP SWAP4 SWAP3 POP POP POP JUMP JUMPDEST PUSH1 0x60 DUP3 SELFBALANCE LT ISZERO PUSH2 0x6783 JUMPI PUSH1 0x40 MLOAD PUSH32 0x8C379A000000000000000000000000000000000000000000000000000000000 DUP2 MSTORE PUSH1 0x4 ADD PUSH2 0x677A SWAP1 PUSH2 0x75F1 JUMP JUMPDEST PUSH1 0x40 MLOAD DUP1 SWAP2 SUB SWAP1 REVERT JUMPDEST PUSH2 0x678C DUP6 PUSH2 0x6852 JUMP JUMPDEST PUSH2 0x67CB JUMPI PUSH1 0x40 MLOAD PUSH32 0x8C379A000000000000000000000000000000000000000000000000000000000 DUP2 MSTORE PUSH1 0x4 ADD PUSH2 0x67C2 SWAP1 PUSH2 0x7751 JUMP JUMPDEST PUSH1 0x40 MLOAD DUP1 SWAP2 SUB SWAP1 REVERT JUMPDEST PUSH1 0x0 DUP1 DUP7 PUSH20 0xFFFFFFFFFFFFFFFFFFFFFFFFFFFFFFFFFFFFFFFF AND DUP6 DUP8 PUSH1 0x40 MLOAD PUSH2 0x67F4 SWAP2 SWAP1 PUSH2 0x73DE JUMP JUMPDEST PUSH1 0x0 PUSH1 0x40 MLOAD DUP1 DUP4 SUB DUP2 DUP6 DUP8 GAS CALL SWAP3 POP POP POP RETURNDATASIZE DUP1 PUSH1 0x0 DUP2 EQ PUSH2 0x6831 JUMPI PUSH1 0x40 MLOAD SWAP2 POP PUSH1 0x1F NOT PUSH1 0x3F RETURNDATASIZE ADD AND DUP3 ADD PUSH1 0x40 MSTORE RETURNDATASIZE DUP3 MSTORE RETURNDATASIZE PUSH1 0x0 PUSH1 0x20 DUP5 ADD RETURNDATACOPY PUSH2 0x6836 JUMP JUMPDEST PUSH1 0x60 SWAP2 POP JUMPDEST POP SWAP2 POP SWAP2 POP PUSH2 0x6846 DUP3 DUP3 DUP7 PUSH2 0x6875 JUMP JUMPDEST SWAP3 POP POP POP SWAP5 SWAP4 POP POP POP POP JUMP JUMPDEST PUSH1 0x0 DUP1 DUP3 PUSH20 0xFFFFFFFFFFFFFFFFFFFFFFFFFFFFFFFFFFFFFFFF AND EXTCODESIZE GT SWAP1 POP SWAP2 SWAP1 POP JUMP JUMPDEST PUSH1 0x60 DUP4 ISZERO PUSH2 0x6885 JUMPI DUP3 SWAP1 POP PUSH2 0x68D5 JUMP JUMPDEST PUSH1 0x0 DUP4 MLOAD GT ISZERO PUSH2 0x6898 JUMPI DUP3 MLOAD DUP1 DUP5 PUSH1 0x20 ADD REVERT JUMPDEST DUP2 PUSH1 0x40 MLOAD PUSH32 0x8C379A000000000000000000000000000000000000000000000000000000000 DUP2 MSTORE PUSH1 0x4 ADD PUSH2 0x68CC SWAP2 SWAP1 PUSH2 0x74CF JUMP JUMPDEST PUSH1 0x40 MLOAD DUP1 SWAP2 SUB SWAP1 REVERT JUMPDEST SWAP4 SWAP3 POP POP POP JUMP JUMPDEST DUP3 DUP1 SLOAD DUP3 DUP3 SSTORE SWAP1 PUSH1 0x0 MSTORE PUSH1 0x20 PUSH1 0x0 KECCAK256 SWAP1 DUP2 ADD SWAP3 DUP3 ISZERO PUSH2 0x6955 JUMPI SWAP2 PUSH1 0x20 MUL DUP3 ADD JUMPDEST DUP3 DUP2 GT ISZERO PUSH2 0x6954 JUMPI DUP3 MLOAD DUP3 PUSH1 0x0 PUSH2 0x100 EXP DUP2 SLOAD DUP2 PUSH20 0xFFFFFFFFFFFFFFFFFFFFFFFFFFFFFFFFFFFFFFFF MUL NOT AND SWAP1 DUP4 PUSH20 0xFFFFFFFFFFFFFFFFFFFFFFFFFFFFFFFFFFFFFFFF AND MUL OR SWAP1 SSTORE POP SWAP2 PUSH1 0x20 ADD SWAP2 SWAP1 PUSH1 0x1 ADD SWAP1 PUSH2 0x68FC JUMP JUMPDEST JUMPDEST POP SWAP1 POP PUSH2 0x6962 SWAP2 SWAP1 PUSH2 0x6966 JUMP JUMPDEST POP SWAP1 JUMP JUMPDEST JUMPDEST DUP1 DUP3 GT ISZERO PUSH2 0x697F JUMPI PUSH1 0x0 DUP2 PUSH1 0x0 SWAP1 SSTORE POP PUSH1 0x1 ADD PUSH2 0x6967 JUMP JUMPDEST POP SWAP1 JUMP JUMPDEST PUSH1 0x0 PUSH2 0x6996 PUSH2 0x6991 DUP5 PUSH2 0x7A18 JUMP JUMPDEST PUSH2 0x79F3 JUMP JUMPDEST SWAP1 POP DUP1 DUP4 DUP3 MSTORE PUSH1 0x20 DUP3 ADD SWAP1 POP DUP3 DUP6 PUSH1 0x20 DUP7 MUL DUP3 ADD GT ISZERO PUSH2 0x69B5 JUMPI PUSH1 0x0 DUP1 REVERT JUMPDEST PUSH1 0x0 JUMPDEST DUP6 DUP2 LT ISZERO PUSH2 0x69E5 JUMPI DUP2 PUSH2 0x69CB DUP9 DUP3 PUSH2 0x6A5B JUMP JUMPDEST DUP5 MSTORE PUSH1 0x20 DUP5 ADD SWAP4 POP PUSH1 0x20 DUP4 ADD SWAP3 POP POP PUSH1 0x1 DUP2 ADD SWAP1 POP PUSH2 0x69B8 JUMP JUMPDEST POP POP POP SWAP4 SWAP3 POP POP POP JUMP JUMPDEST PUSH1 0x0 PUSH2 0x6A02 PUSH2 0x69FD DUP5 PUSH2 0x7A44 JUMP JUMPDEST PUSH2 0x79F3 JUMP JUMPDEST SWAP1 POP DUP1 DUP4 DUP3 MSTORE PUSH1 0x20 DUP3 ADD SWAP1 POP DUP3 DUP6 PUSH1 0x20 DUP7 MUL DUP3 ADD GT ISZERO PUSH2 0x6A21 JUMPI PUSH1 0x0 DUP1 REVERT JUMPDEST PUSH1 0x0 JUMPDEST DUP6 DUP2 LT ISZERO PUSH2 0x6A51 JUMPI DUP2 PUSH2 0x6A37 DUP9 DUP3 PUSH2 0x6B2D JUMP JUMPDEST DUP5 MSTORE PUSH1 0x20 DUP5 ADD SWAP4 POP PUSH1 0x20 DUP4 ADD SWAP3 POP POP PUSH1 0x1 DUP2 ADD SWAP1 POP PUSH2 0x6A24 JUMP JUMPDEST POP POP POP SWAP4 SWAP3 POP POP POP JUMP JUMPDEST PUSH1 0x0 DUP2 CALLDATALOAD SWAP1 POP PUSH2 0x6A6A DUP2 PUSH2 0x8435 JUMP JUMPDEST SWAP3 SWAP2 POP POP JUMP JUMPDEST PUSH1 0x0 DUP2 MLOAD SWAP1 POP PUSH2 0x6A7F DUP2 PUSH2 0x8435 JUMP JUMPDEST SWAP3 SWAP2 POP POP JUMP JUMPDEST PUSH1 0x0 DUP3 PUSH1 0x1F DUP4 ADD SLT PUSH2 0x6A96 JUMPI PUSH1 0x0 DUP1 REVERT JUMPDEST DUP2 CALLDATALOAD PUSH2 0x6AA6 DUP5 DUP3 PUSH1 0x20 DUP7 ADD PUSH2 0x6983 JUMP JUMPDEST SWAP2 POP POP SWAP3 SWAP2 POP POP JUMP JUMPDEST PUSH1 0x0 DUP3 PUSH1 0x1F DUP4 ADD SLT PUSH2 0x6AC0 JUMPI PUSH1 0x0 DUP1 REVERT JUMPDEST DUP2 MLOAD PUSH2 0x6AD0 DUP5 DUP3 PUSH1 0x20 DUP7 ADD PUSH2 0x69EF JUMP JUMPDEST SWAP2 POP POP SWAP3 SWAP2 POP POP JUMP JUMPDEST PUSH1 0x0 DUP2 CALLDATALOAD SWAP1 POP PUSH2 0x6AE8 DUP2 PUSH2 0x844C JUMP JUMPDEST SWAP3 SWAP2 POP POP JUMP JUMPDEST PUSH1 0x0 DUP2 MLOAD SWAP1 POP PUSH2 0x6AFD DUP2 PUSH2 0x844C JUMP JUMPDEST SWAP3 SWAP2 POP POP JUMP JUMPDEST PUSH1 0x0 DUP2 CALLDATALOAD SWAP1 POP PUSH2 0x6B12 DUP2 PUSH2 0x8463 JUMP JUMPDEST SWAP3 SWAP2 POP POP JUMP JUMPDEST PUSH1 0x0 DUP2 CALLDATALOAD SWAP1 POP PUSH2 0x6B27 DUP2 PUSH2 0x847A JUMP JUMPDEST SWAP3 SWAP2 POP POP JUMP JUMPDEST PUSH1 0x0 DUP2 MLOAD SWAP1 POP PUSH2 0x6B3C DUP2 PUSH2 0x847A JUMP JUMPDEST SWAP3 SWAP2 POP POP JUMP JUMPDEST PUSH1 0x0 DUP2 MLOAD SWAP1 POP PUSH2 0x6B51 DUP2 PUSH2 0x8491 JUMP JUMPDEST SWAP3 SWAP2 POP POP JUMP JUMPDEST PUSH1 0x0 PUSH1 0x20 DUP3 DUP5 SUB SLT ISZERO PUSH2 0x6B69 JUMPI PUSH1 0x0 DUP1 REVERT JUMPDEST PUSH1 0x0 PUSH2 0x6B77 DUP5 DUP3 DUP6 ADD PUSH2 0x6A5B JUMP JUMPDEST SWAP2 POP POP SWAP3 SWAP2 POP POP JUMP JUMPDEST PUSH1 0x0 PUSH1 0x20 DUP3 DUP5 SUB SLT ISZERO PUSH2 0x6B92 JUMPI PUSH1 0x0 DUP1 REVERT JUMPDEST PUSH1 0x0 PUSH2 0x6BA0 DUP5 DUP3 DUP6 ADD PUSH2 0x6A70 JUMP JUMPDEST SWAP2 POP POP SWAP3 SWAP2 POP POP JUMP JUMPDEST PUSH1 0x0 DUP1 PUSH1 0x40 DUP4 DUP6 SUB SLT ISZERO PUSH2 0x6BBC JUMPI PUSH1 0x0 DUP1 REVERT JUMPDEST PUSH1 0x0 PUSH2 0x6BCA DUP6 DUP3 DUP7 ADD PUSH2 0x6A5B JUMP JUMPDEST SWAP3 POP POP PUSH1 0x20 PUSH2 0x6BDB DUP6 DUP3 DUP7 ADD PUSH2 0x6B18 JUMP JUMPDEST SWAP2 POP POP SWAP3 POP SWAP3 SWAP1 POP JUMP JUMPDEST PUSH1 0x0 PUSH1 0x20 DUP3 DUP5 SUB SLT ISZERO PUSH2 0x6BF7 JUMPI PUSH1 0x0 DUP1 REVERT JUMPDEST PUSH1 0x0 DUP3 ADD MLOAD PUSH8 0xFFFFFFFFFFFFFFFF DUP2 GT ISZERO PUSH2 0x6C11 JUMPI PUSH1 0x0 DUP1 REVERT JUMPDEST PUSH2 0x6C1D DUP5 DUP3 DUP6 ADD PUSH2 0x6AAF JUMP JUMPDEST SWAP2 POP POP SWAP3 SWAP2 POP POP JUMP JUMPDEST PUSH1 0x0 PUSH1 0x20 DUP3 DUP5 SUB SLT ISZERO PUSH2 0x6C38 JUMPI PUSH1 0x0 DUP1 REVERT JUMPDEST PUSH1 0x0 PUSH2 0x6C46 DUP5 DUP3 DUP6 ADD PUSH2 0x6AEE JUMP JUMPDEST SWAP2 POP POP SWAP3 SWAP2 POP POP JUMP JUMPDEST PUSH1 0x0 DUP1 PUSH1 0x40 DUP4 DUP6 SUB SLT ISZERO PUSH2 0x6C62 JUMPI PUSH1 0x0 DUP1 REVERT JUMPDEST PUSH1 0x0 PUSH2 0x6C70 DUP6 DUP3 DUP7 ADD PUSH2 0x6AD9 JUMP JUMPDEST SWAP3 POP POP PUSH1 0x20 PUSH2 0x6C81 DUP6 DUP3 DUP7 ADD PUSH2 0x6B18 JUMP JUMPDEST SWAP2 POP POP SWAP3 POP SWAP3 SWAP1 POP JUMP JUMPDEST PUSH1 0x0 DUP1 PUSH1 0x0 DUP1 PUSH1 0x0 DUP1 PUSH1 0x0 DUP1 PUSH1 0x0 DUP1 PUSH2 0x140 DUP12 DUP14 SUB SLT ISZERO PUSH2 0x6CAB JUMPI PUSH1 0x0 DUP1 REVERT JUMPDEST PUSH1 0x0 PUSH2 0x6CB9 DUP14 DUP3 DUP15 ADD PUSH2 0x6B03 JUMP JUMPDEST SWAP11 POP POP PUSH1 0x20 PUSH2 0x6CCA DUP14 DUP3 DUP15 ADD PUSH2 0x6B03 JUMP JUMPDEST SWAP10 POP POP PUSH1 0x40 PUSH2 0x6CDB DUP14 DUP3 DUP15 ADD PUSH2 0x6A5B JUMP JUMPDEST SWAP9 POP POP PUSH1 0x60 PUSH2 0x6CEC DUP14 DUP3 DUP15 ADD PUSH2 0x6B18 JUMP JUMPDEST SWAP8 POP POP PUSH1 0x80 PUSH2 0x6CFD DUP14 DUP3 DUP15 ADD PUSH2 0x6B18 JUMP JUMPDEST SWAP7 POP POP PUSH1 0xA0 PUSH2 0x6D0E DUP14 DUP3 DUP15 ADD PUSH2 0x6B18 JUMP JUMPDEST SWAP6 POP POP PUSH1 0xC0 PUSH2 0x6D1F DUP14 DUP3 DUP15 ADD PUSH2 0x6A5B JUMP JUMPDEST SWAP5 POP POP PUSH1 0xE0 DUP12 ADD CALLDATALOAD PUSH8 0xFFFFFFFFFFFFFFFF DUP2 GT ISZERO PUSH2 0x6D3C JUMPI PUSH1 0x0 DUP1 REVERT JUMPDEST PUSH2 0x6D48 DUP14 DUP3 DUP15 ADD PUSH2 0x6A85 JUMP JUMPDEST SWAP4 POP POP PUSH2 0x100 DUP12 ADD CALLDATALOAD PUSH8 0xFFFFFFFFFFFFFFFF DUP2 GT ISZERO PUSH2 0x6D66 JUMPI PUSH1 0x0 DUP1 REVERT JUMPDEST PUSH2 0x6D72 DUP14 DUP3 DUP15 ADD PUSH2 0x6A85 JUMP JUMPDEST SWAP3 POP POP PUSH2 0x120 PUSH2 0x6D84 DUP14 DUP3 DUP15 ADD PUSH2 0x6AD9 JUMP JUMPDEST SWAP2 POP POP SWAP3 SWAP6 SWAP9 SWAP12 SWAP2 SWAP5 SWAP8 SWAP11 POP SWAP3 SWAP6 SWAP9 POP JUMP JUMPDEST PUSH1 0x0 PUSH1 0x20 DUP3 DUP5 SUB SLT ISZERO PUSH2 0x6DA8 JUMPI PUSH1 0x0 DUP1 REVERT JUMPDEST PUSH1 0x0 PUSH2 0x6DB6 DUP5 DUP3 DUP6 ADD PUSH2 0x6B18 JUMP JUMPDEST SWAP2 POP POP SWAP3 SWAP2 POP POP JUMP JUMPDEST PUSH1 0x0 PUSH1 0x20 DUP3 DUP5 SUB SLT ISZERO PUSH2 0x6DD1 JUMPI PUSH1 0x0 DUP1 REVERT JUMPDEST PUSH1 0x0 PUSH2 0x6DDF DUP5 DUP3 DUP6 ADD PUSH2 0x6B2D JUMP JUMPDEST SWAP2 POP POP SWAP3 SWAP2 POP POP JUMP JUMPDEST PUSH1 0x0 DUP1 PUSH1 0x0 DUP1 PUSH1 0x0 DUP1 PUSH1 0x0 PUSH1 0xE0 DUP9 DUP11 SUB SLT ISZERO PUSH2 0x6E03 JUMPI PUSH1 0x0 DUP1 REVERT JUMPDEST PUSH1 0x0 PUSH2 0x6E11 DUP11 DUP3 DUP12 ADD PUSH2 0x6B18 JUMP JUMPDEST SWAP8 POP POP PUSH1 0x20 PUSH2 0x6E22 DUP11 DUP3 DUP12 ADD PUSH2 0x6B18 JUMP JUMPDEST SWAP7 POP POP PUSH1 0x40 PUSH2 0x6E33 DUP11 DUP3 DUP12 ADD PUSH2 0x6B18 JUMP JUMPDEST SWAP6 POP POP PUSH1 0x60 PUSH2 0x6E44 DUP11 DUP3 DUP12 ADD PUSH2 0x6B18 JUMP JUMPDEST SWAP5 POP POP PUSH1 0x80 PUSH2 0x6E55 DUP11 DUP3 DUP12 ADD PUSH2 0x6A5B JUMP JUMPDEST SWAP4 POP POP PUSH1 0xA0 DUP9 ADD CALLDATALOAD PUSH8 0xFFFFFFFFFFFFFFFF DUP2 GT ISZERO PUSH2 0x6E72 JUMPI PUSH1 0x0 DUP1 REVERT JUMPDEST PUSH2 0x6E7E DUP11 DUP3 DUP12 ADD PUSH2 0x6A85 JUMP JUMPDEST SWAP3 POP POP PUSH1 0xC0 DUP9 ADD CALLDATALOAD PUSH8 0xFFFFFFFFFFFFFFFF DUP2 GT ISZERO PUSH2 0x6E9B JUMPI PUSH1 0x0 DUP1 REVERT JUMPDEST PUSH2 0x6EA7 DUP11 DUP3 DUP12 ADD PUSH2 0x6A85 JUMP JUMPDEST SWAP2 POP POP SWAP3 SWAP6 SWAP9 SWAP2 SWAP5 SWAP8 POP SWAP3 SWAP6 POP JUMP JUMPDEST PUSH1 0x0 PUSH1 0x20 DUP3 DUP5 SUB SLT ISZERO PUSH2 0x6EC8 JUMPI PUSH1 0x0 DUP1 REVERT JUMPDEST PUSH1 0x0 PUSH2 0x6ED6 DUP5 DUP3 DUP6 ADD PUSH2 0x6B42 JUMP JUMPDEST SWAP2 POP POP SWAP3 SWAP2 POP POP JUMP JUMPDEST PUSH1 0x0 PUSH2 0x6EEB DUP4 DUP4 PUSH2 0x6EF7 JUMP JUMPDEST PUSH1 0x20 DUP4 ADD SWAP1 POP SWAP3 SWAP2 POP POP JUMP JUMPDEST PUSH2 0x6F00 DUP2 PUSH2 0x7D61 JUMP JUMPDEST DUP3 MSTORE POP POP JUMP JUMPDEST PUSH2 0x6F0F DUP2 PUSH2 0x7D61 JUMP JUMPDEST DUP3 MSTORE POP POP JUMP JUMPDEST PUSH1 0x0 PUSH2 0x6F20 DUP3 PUSH2 0x7A80 JUMP JUMPDEST PUSH2 0x6F2A DUP2 DUP6 PUSH2 0x7AAE JUMP JUMPDEST SWAP4 POP PUSH2 0x6F35 DUP4 PUSH2 0x7A70 JUMP JUMPDEST DUP1 PUSH1 0x0 JUMPDEST DUP4 DUP2 LT ISZERO PUSH2 0x6F66 JUMPI DUP2 MLOAD PUSH2 0x6F4D DUP9 DUP3 PUSH2 0x6EDF JUMP JUMPDEST SWAP8 POP PUSH2 0x6F58 DUP4 PUSH2 0x7AA1 JUMP JUMPDEST SWAP3 POP POP PUSH1 0x1 DUP2 ADD SWAP1 POP PUSH2 0x6F39 JUMP JUMPDEST POP DUP6 SWAP4 POP POP POP POP SWAP3 SWAP2 POP POP JUMP JUMPDEST PUSH2 0x6F7C DUP2 PUSH2 0x7D73 JUMP JUMPDEST DUP3 MSTORE POP POP JUMP JUMPDEST PUSH1 0x0 PUSH2 0x6F8D DUP3 PUSH2 0x7A8B JUMP JUMPDEST PUSH2 0x6F97 DUP2 DUP6 PUSH2 0x7ABF JUMP JUMPDEST SWAP4 POP PUSH2 0x6FA7 DUP2 DUP6 PUSH1 0x20 DUP7 ADD PUSH2 0x7DEC JUMP JUMPDEST DUP1 DUP5 ADD SWAP2 POP POP SWAP3 SWAP2 POP POP JUMP JUMPDEST PUSH2 0x6FBC DUP2 PUSH2 0x7DC8 JUMP JUMPDEST DUP3 MSTORE POP POP JUMP JUMPDEST PUSH1 0x0 PUSH2 0x6FCD DUP3 PUSH2 0x7A96 JUMP JUMPDEST PUSH2 0x6FD7 DUP2 DUP6 PUSH2 0x7ACA JUMP JUMPDEST SWAP4 POP PUSH2 0x6FE7 DUP2 DUP6 PUSH1 0x20 DUP7 ADD PUSH2 0x7DEC JUMP JUMPDEST PUSH2 0x6FF0 DUP2 PUSH2 0x7EDD JUMP JUMPDEST DUP5 ADD SWAP2 POP POP SWAP3 SWAP2 POP POP JUMP JUMPDEST PUSH1 0x0 PUSH2 0x7008 PUSH1 0x18 DUP4 PUSH2 0x7ACA JUMP JUMPDEST SWAP2 POP PUSH2 0x7013 DUP3 PUSH2 0x7EFB JUMP JUMPDEST PUSH1 0x20 DUP3 ADD SWAP1 POP SWAP2 SWAP1 POP JUMP JUMPDEST PUSH1 0x0 PUSH2 0x702B PUSH1 0x13 DUP4 PUSH2 0x7ACA JUMP JUMPDEST SWAP2 POP PUSH2 0x7036 DUP3 PUSH2 0x7F24 JUMP JUMPDEST PUSH1 0x20 DUP3 ADD SWAP1 POP SWAP2 SWAP1 POP JUMP JUMPDEST PUSH1 0x0 PUSH2 0x704E PUSH1 0xF DUP4 PUSH2 0x7ACA JUMP JUMPDEST SWAP2 POP PUSH2 0x7059 DUP3 PUSH2 0x7F4D JUMP JUMPDEST PUSH1 0x20 DUP3 ADD SWAP1 POP SWAP2 SWAP1 POP JUMP JUMPDEST PUSH1 0x0 PUSH2 0x7071 PUSH1 0x14 DUP4 PUSH2 0x7ACA JUMP JUMPDEST SWAP2 POP PUSH2 0x707C DUP3 PUSH2 0x7F76 JUMP JUMPDEST PUSH1 0x20 DUP3 ADD SWAP1 POP SWAP2 SWAP1 POP JUMP JUMPDEST PUSH1 0x0 PUSH2 0x7094 PUSH1 0x26 DUP4 PUSH2 0x7ACA JUMP JUMPDEST SWAP2 POP PUSH2 0x709F DUP3 PUSH2 0x7F9F JUMP JUMPDEST PUSH1 0x40 DUP3 ADD SWAP1 POP SWAP2 SWAP1 POP JUMP JUMPDEST PUSH1 0x0 PUSH2 0x70B7 PUSH1 0x13 DUP4 PUSH2 0x7ACA JUMP JUMPDEST SWAP2 POP PUSH2 0x70C2 DUP3 PUSH2 0x7FEE JUMP JUMPDEST PUSH1 0x20 DUP3 ADD SWAP1 POP SWAP2 SWAP1 POP JUMP JUMPDEST PUSH1 0x0 PUSH2 0x70DA PUSH1 0x14 DUP4 PUSH2 0x7ACA JUMP JUMPDEST SWAP2 POP PUSH2 0x70E5 DUP3 PUSH2 0x8017 JUMP JUMPDEST PUSH1 0x20 DUP3 ADD SWAP1 POP SWAP2 SWAP1 POP JUMP JUMPDEST PUSH1 0x0 PUSH2 0x70FD PUSH1 0x18 DUP4 PUSH2 0x7ACA JUMP JUMPDEST SWAP2 POP PUSH2 0x7108 DUP3 PUSH2 0x8040 JUMP JUMPDEST PUSH1 0x20 DUP3 ADD SWAP1 POP SWAP2 SWAP1 POP JUMP JUMPDEST PUSH1 0x0 PUSH2 0x7120 PUSH1 0x26 DUP4 PUSH2 0x7ACA JUMP JUMPDEST SWAP2 POP PUSH2 0x712B DUP3 PUSH2 0x8069 JUMP JUMPDEST PUSH1 0x40 DUP3 ADD SWAP1 POP SWAP2 SWAP1 POP JUMP JUMPDEST PUSH1 0x0 PUSH2 0x7143 PUSH1 0x19 DUP4 PUSH2 0x7ACA JUMP JUMPDEST SWAP2 POP PUSH2 0x714E DUP3 PUSH2 0x80B8 JUMP JUMPDEST PUSH1 0x20 DUP3 ADD SWAP1 POP SWAP2 SWAP1 POP JUMP JUMPDEST PUSH1 0x0 PUSH2 0x7166 PUSH1 0xF DUP4 PUSH2 0x7ACA JUMP JUMPDEST SWAP2 POP PUSH2 0x7171 DUP3 PUSH2 0x80E1 JUMP JUMPDEST PUSH1 0x20 DUP3 ADD SWAP1 POP SWAP2 SWAP1 POP JUMP JUMPDEST PUSH1 0x0 PUSH2 0x7189 PUSH1 0x20 DUP4 PUSH2 0x7ACA JUMP JUMPDEST SWAP2 POP PUSH2 0x7194 DUP3 PUSH2 0x810A JUMP JUMPDEST PUSH1 0x20 DUP3 ADD SWAP1 POP SWAP2 SWAP1 POP JUMP JUMPDEST PUSH1 0x0 PUSH2 0x71AC PUSH1 0x1F DUP4 PUSH2 0x7ACA JUMP JUMPDEST SWAP2 POP PUSH2 0x71B7 DUP3 PUSH2 0x8133 JUMP JUMPDEST PUSH1 0x20 DUP3 ADD SWAP1 POP SWAP2 SWAP1 POP JUMP JUMPDEST PUSH1 0x0 PUSH2 0x71CF PUSH1 0xB DUP4 PUSH2 0x7ACA JUMP JUMPDEST SWAP2 POP PUSH2 0x71DA DUP3 PUSH2 0x815C JUMP JUMPDEST PUSH1 0x20 DUP3 ADD SWAP1 POP SWAP2 SWAP1 POP JUMP JUMPDEST PUSH1 0x0 PUSH2 0x71F2 PUSH1 0x18 DUP4 PUSH2 0x7ACA JUMP JUMPDEST SWAP2 POP PUSH2 0x71FD DUP3 PUSH2 0x8185 JUMP JUMPDEST PUSH1 0x20 DUP3 ADD SWAP1 POP SWAP2 SWAP1 POP JUMP JUMPDEST PUSH1 0x0 PUSH2 0x7215 PUSH1 0x17 DUP4 PUSH2 0x7ACA JUMP JUMPDEST SWAP2 POP PUSH2 0x7220 DUP3 PUSH2 0x81AE JUMP JUMPDEST PUSH1 0x20 DUP3 ADD SWAP1 POP SWAP2 SWAP1 POP JUMP JUMPDEST PUSH1 0x0 PUSH2 0x7238 PUSH1 0x2B DUP4 PUSH2 0x7ACA JUMP JUMPDEST SWAP2 POP PUSH2 0x7243 DUP3 PUSH2 0x81D7 JUMP JUMPDEST PUSH1 0x40 DUP3 ADD SWAP1 POP SWAP2 SWAP1 POP JUMP JUMPDEST PUSH1 0x0 PUSH2 0x725B PUSH1 0x16 DUP4 PUSH2 0x7ACA JUMP JUMPDEST SWAP2 POP PUSH2 0x7266 DUP3 PUSH2 0x8226 JUMP JUMPDEST PUSH1 0x20 DUP3 ADD SWAP1 POP SWAP2 SWAP1 POP JUMP JUMPDEST PUSH1 0x0 PUSH2 0x727E PUSH1 0x1B DUP4 PUSH2 0x7ACA JUMP JUMPDEST SWAP2 POP PUSH2 0x7289 DUP3 PUSH2 0x824F JUMP JUMPDEST PUSH1 0x20 DUP3 ADD SWAP1 POP SWAP2 SWAP1 POP JUMP JUMPDEST PUSH1 0x0 PUSH2 0x72A1 PUSH1 0x1D DUP4 PUSH2 0x7ACA JUMP JUMPDEST SWAP2 POP PUSH2 0x72AC DUP3 PUSH2 0x8278 JUMP JUMPDEST PUSH1 0x20 DUP3 ADD SWAP1 POP SWAP2 SWAP1 POP JUMP JUMPDEST PUSH1 0x0 PUSH2 0x72C4 PUSH1 0x13 DUP4 PUSH2 0x7ACA JUMP JUMPDEST SWAP2 POP PUSH2 0x72CF DUP3 PUSH2 0x82A1 JUMP JUMPDEST PUSH1 0x20 DUP3 ADD SWAP1 POP SWAP2 SWAP1 POP JUMP JUMPDEST PUSH1 0x0 PUSH2 0x72E7 PUSH1 0x2A DUP4 PUSH2 0x7ACA JUMP JUMPDEST SWAP2 POP PUSH2 0x72F2 DUP3 PUSH2 0x82CA JUMP JUMPDEST PUSH1 0x40 DUP3 ADD SWAP1 POP SWAP2 SWAP1 POP JUMP JUMPDEST PUSH1 0x0 PUSH2 0x730A PUSH1 0x1F DUP4 PUSH2 0x7ACA JUMP JUMPDEST SWAP2 POP PUSH2 0x7315 DUP3 PUSH2 0x8319 JUMP JUMPDEST PUSH1 0x20 DUP3 ADD SWAP1 POP SWAP2 SWAP1 POP JUMP JUMPDEST PUSH1 0x0 PUSH2 0x732D PUSH1 0xB DUP4 PUSH2 0x7ACA JUMP JUMPDEST SWAP2 POP PUSH2 0x7338 DUP3 PUSH2 0x8342 JUMP JUMPDEST PUSH1 0x20 DUP3 ADD SWAP1 POP SWAP2 SWAP1 POP JUMP JUMPDEST PUSH1 0x0 PUSH2 0x7350 PUSH1 0x36 DUP4 PUSH2 0x7ACA JUMP JUMPDEST SWAP2 POP PUSH2 0x735B DUP3 PUSH2 0x836B JUMP JUMPDEST PUSH1 0x40 DUP3 ADD SWAP1 POP SWAP2 SWAP1 POP JUMP JUMPDEST PUSH1 0x0 PUSH2 0x7373 PUSH1 0xE DUP4 PUSH2 0x7ACA JUMP JUMPDEST SWAP2 POP PUSH2 0x737E DUP3 PUSH2 0x83BA JUMP JUMPDEST PUSH1 0x20 DUP3 ADD SWAP1 POP SWAP2 SWAP1 POP JUMP JUMPDEST PUSH1 0x0 PUSH2 0x7396 PUSH1 0x16 DUP4 PUSH2 0x7ACA JUMP JUMPDEST SWAP2 POP PUSH2 0x73A1 DUP3 PUSH2 0x83E3 JUMP JUMPDEST PUSH1 0x20 DUP3 ADD SWAP1 POP SWAP2 SWAP1 POP JUMP JUMPDEST PUSH1 0x0 PUSH2 0x73B9 PUSH1 0x1A DUP4 PUSH2 0x7ACA JUMP JUMPDEST SWAP2 POP PUSH2 0x73C4 DUP3 PUSH2 0x840C JUMP JUMPDEST PUSH1 0x20 DUP3 ADD SWAP1 POP SWAP2 SWAP1 POP JUMP JUMPDEST PUSH2 0x73D8 DUP2 PUSH2 0x7DB1 JUMP JUMPDEST DUP3 MSTORE POP POP JUMP JUMPDEST PUSH1 0x0 PUSH2 0x73EA DUP3 DUP5 PUSH2 0x6F82 JUMP JUMPDEST SWAP2 POP DUP2 SWAP1 POP SWAP3 SWAP2 POP POP JUMP JUMPDEST PUSH1 0x0 PUSH1 0x20 DUP3 ADD SWAP1 POP PUSH2 0x740A PUSH1 0x0 DUP4 ADD DUP5 PUSH2 0x6F06 JUMP JUMPDEST SWAP3 SWAP2 POP POP JUMP JUMPDEST PUSH1 0x0 PUSH1 0x40 DUP3 ADD SWAP1 POP PUSH2 0x7425 PUSH1 0x0 DUP4 ADD DUP6 PUSH2 0x6F06 JUMP JUMPDEST PUSH2 0x7432 PUSH1 0x20 DUP4 ADD DUP5 PUSH2 0x6F06 JUMP JUMPDEST SWAP4 SWAP3 POP POP POP JUMP JUMPDEST PUSH1 0x0 PUSH1 0x60 DUP3 ADD SWAP1 POP PUSH2 0x744E PUSH1 0x0 DUP4 ADD DUP7 PUSH2 0x6F06 JUMP JUMPDEST PUSH2 0x745B PUSH1 0x20 DUP4 ADD DUP6 PUSH2 0x6F06 JUMP JUMPDEST PUSH2 0x7468 PUSH1 0x40 DUP4 ADD DUP5 PUSH2 0x73CF JUMP JUMPDEST SWAP5 SWAP4 POP POP POP POP JUMP JUMPDEST PUSH1 0x0 PUSH1 0x40 DUP3 ADD SWAP1 POP PUSH2 0x7485 PUSH1 0x0 DUP4 ADD DUP6 PUSH2 0x6F06 JUMP JUMPDEST PUSH2 0x7492 PUSH1 0x20 DUP4 ADD DUP5 PUSH2 0x73CF JUMP JUMPDEST SWAP4 SWAP3 POP POP POP JUMP JUMPDEST PUSH1 0x0 PUSH1 0x20 DUP3 ADD SWAP1 POP PUSH2 0x74AE PUSH1 0x0 DUP4 ADD DUP5 PUSH2 0x6F73 JUMP JUMPDEST SWAP3 SWAP2 POP POP JUMP JUMPDEST PUSH1 0x0 PUSH1 0x20 DUP3 ADD SWAP1 POP PUSH2 0x74C9 PUSH1 0x0 DUP4 ADD DUP5 PUSH2 0x6FB3 JUMP JUMPDEST SWAP3 SWAP2 POP POP JUMP JUMPDEST PUSH1 0x0 PUSH1 0x20 DUP3 ADD SWAP1 POP DUP2 DUP2 SUB PUSH1 0x0 DUP4 ADD MSTORE PUSH2 0x74E9 DUP2 DUP5 PUSH2 0x6FC2 JUMP JUMPDEST SWAP1 POP SWAP3 SWAP2 POP POP JUMP JUMPDEST PUSH1 0x0 PUSH1 0x20 DUP3 ADD SWAP1 POP DUP2 DUP2 SUB PUSH1 0x0 DUP4 ADD MSTORE PUSH2 0x750A DUP2 PUSH2 0x6FFB JUMP JUMPDEST SWAP1 POP SWAP2 SWAP1 POP JUMP JUMPDEST PUSH1 0x0 PUSH1 0x20 DUP3 ADD SWAP1 POP DUP2 DUP2 SUB PUSH1 0x0 DUP4 ADD MSTORE PUSH2 0x752A DUP2 PUSH2 0x701E JUMP JUMPDEST SWAP1 POP SWAP2 SWAP1 POP JUMP JUMPDEST PUSH1 0x0 PUSH1 0x20 DUP3 ADD SWAP1 POP DUP2 DUP2 SUB PUSH1 0x0 DUP4 ADD MSTORE PUSH2 0x754A DUP2 PUSH2 0x7041 JUMP JUMPDEST SWAP1 POP SWAP2 SWAP1 POP JUMP JUMPDEST PUSH1 0x0 PUSH1 0x20 DUP3 ADD SWAP1 POP DUP2 DUP2 SUB PUSH1 0x0 DUP4 ADD MSTORE PUSH2 0x756A DUP2 PUSH2 0x7064 JUMP JUMPDEST SWAP1 POP SWAP2 SWAP1 POP JUMP JUMPDEST PUSH1 0x0 PUSH1 0x20 DUP3 ADD SWAP1 POP DUP2 DUP2 SUB PUSH1 0x0 DUP4 ADD MSTORE PUSH2 0x758A DUP2 PUSH2 0x7087 JUMP JUMPDEST SWAP1 POP SWAP2 SWAP1 POP JUMP JUMPDEST PUSH1 0x0 PUSH1 0x20 DUP3 ADD SWAP1 POP DUP2 DUP2 SUB PUSH1 0x0 DUP4 ADD MSTORE PUSH2 0x75AA DUP2 PUSH2 0x70AA JUMP JUMPDEST SWAP1 POP SWAP2 SWAP1 POP JUMP JUMPDEST PUSH1 0x0 PUSH1 0x20 DUP3 ADD SWAP1 POP DUP2 DUP2 SUB PUSH1 0x0 DUP4 ADD MSTORE PUSH2 0x75CA DUP2 PUSH2 0x70CD JUMP JUMPDEST SWAP1 POP SWAP2 SWAP1 POP JUMP JUMPDEST PUSH1 0x0 PUSH1 0x20 DUP3 ADD SWAP1 POP DUP2 DUP2 SUB PUSH1 0x0 DUP4 ADD MSTORE PUSH2 0x75EA DUP2 PUSH2 0x70F0 JUMP JUMPDEST SWAP1 POP SWAP2 SWAP1 POP JUMP JUMPDEST PUSH1 0x0 PUSH1 0x20 DUP3 ADD SWAP1 POP DUP2 DUP2 SUB PUSH1 0x0 DUP4 ADD MSTORE PUSH2 0x760A DUP2 PUSH2 0x7113 JUMP JUMPDEST SWAP1 POP SWAP2 SWAP1 POP JUMP JUMPDEST PUSH1 0x0 PUSH1 0x20 DUP3 ADD SWAP1 POP DUP2 DUP2 SUB PUSH1 0x0 DUP4 ADD MSTORE PUSH2 0x762A DUP2 PUSH2 0x7136 JUMP JUMPDEST SWAP1 POP SWAP2 SWAP1 POP JUMP JUMPDEST PUSH1 0x0 PUSH1 0x20 DUP3 ADD SWAP1 POP DUP2 DUP2 SUB PUSH1 0x0 DUP4 ADD MSTORE PUSH2 0x764A DUP2 PUSH2 0x7159 JUMP JUMPDEST SWAP1 POP SWAP2 SWAP1 POP JUMP JUMPDEST PUSH1 0x0 PUSH1 0x20 DUP3 ADD SWAP1 POP DUP2 DUP2 SUB PUSH1 0x0 DUP4 ADD MSTORE PUSH2 0x766A DUP2 PUSH2 0x717C JUMP JUMPDEST SWAP1 POP SWAP2 SWAP1 POP JUMP JUMPDEST PUSH1 0x0 PUSH1 0x20 DUP3 ADD SWAP1 POP DUP2 DUP2 SUB PUSH1 0x0 DUP4 ADD MSTORE PUSH2 0x768A DUP2 PUSH2 0x719F JUMP JUMPDEST SWAP1 POP SWAP2 SWAP1 POP JUMP JUMPDEST PUSH1 0x0 PUSH1 0x20 DUP3 ADD SWAP1 POP DUP2 DUP2 SUB PUSH1 0x0 DUP4 ADD MSTORE PUSH2 0x76AA DUP2 PUSH2 0x71C2 JUMP JUMPDEST SWAP1 POP SWAP2 SWAP1 POP JUMP JUMPDEST PUSH1 0x0 PUSH1 0x20 DUP3 ADD SWAP1 POP DUP2 DUP2 SUB PUSH1 0x0 DUP4 ADD MSTORE PUSH2 0x76CA DUP2 PUSH2 0x71E5 JUMP JUMPDEST SWAP1 POP SWAP2 SWAP1 POP JUMP JUMPDEST PUSH1 0x0 PUSH1 0x20 DUP3 ADD SWAP1 POP DUP2 DUP2 SUB PUSH1 0x0 DUP4 ADD MSTORE PUSH2 0x76EA DUP2 PUSH2 0x7208 JUMP JUMPDEST SWAP1 POP SWAP2 SWAP1 POP JUMP JUMPDEST PUSH1 0x0 PUSH1 0x20 DUP3 ADD SWAP1 POP DUP2 DUP2 SUB PUSH1 0x0 DUP4 ADD MSTORE PUSH2 0x770A DUP2 PUSH2 0x722B JUMP JUMPDEST SWAP1 POP SWAP2 SWAP1 POP JUMP JUMPDEST PUSH1 0x0 PUSH1 0x20 DUP3 ADD SWAP1 POP DUP2 DUP2 SUB PUSH1 0x0 DUP4 ADD MSTORE PUSH2 0x772A DUP2 PUSH2 0x724E JUMP JUMPDEST SWAP1 POP SWAP2 SWAP1 POP JUMP JUMPDEST PUSH1 0x0 PUSH1 0x20 DUP3 ADD SWAP1 POP DUP2 DUP2 SUB PUSH1 0x0 DUP4 ADD MSTORE PUSH2 0x774A DUP2 PUSH2 0x7271 JUMP JUMPDEST SWAP1 POP SWAP2 SWAP1 POP JUMP JUMPDEST PUSH1 0x0 PUSH1 0x20 DUP3 ADD SWAP1 POP DUP2 DUP2 SUB PUSH1 0x0 DUP4 ADD MSTORE PUSH2 0x776A DUP2 PUSH2 0x7294 JUMP JUMPDEST SWAP1 POP SWAP2 SWAP1 POP JUMP JUMPDEST PUSH1 0x0 PUSH1 0x20 DUP3 ADD SWAP1 POP DUP2 DUP2 SUB PUSH1 0x0 DUP4 ADD MSTORE PUSH2 0x778A DUP2 PUSH2 0x72B7 JUMP JUMPDEST SWAP1 POP SWAP2 SWAP1 POP JUMP JUMPDEST PUSH1 0x0 PUSH1 0x20 DUP3 ADD SWAP1 POP DUP2 DUP2 SUB PUSH1 0x0 DUP4 ADD MSTORE PUSH2 0x77AA DUP2 PUSH2 0x72DA JUMP JUMPDEST SWAP1 POP SWAP2 SWAP1 POP JUMP JUMPDEST PUSH1 0x0 PUSH1 0x20 DUP3 ADD SWAP1 POP DUP2 DUP2 SUB PUSH1 0x0 DUP4 ADD MSTORE PUSH2 0x77CA DUP2 PUSH2 0x72FD JUMP JUMPDEST SWAP1 POP SWAP2 SWAP1 POP JUMP JUMPDEST PUSH1 0x0 PUSH1 0x20 DUP3 ADD SWAP1 POP DUP2 DUP2 SUB PUSH1 0x0 DUP4 ADD MSTORE PUSH2 0x77EA DUP2 PUSH2 0x7320 JUMP JUMPDEST SWAP1 POP SWAP2 SWAP1 POP JUMP JUMPDEST PUSH1 0x0 PUSH1 0x20 DUP3 ADD SWAP1 POP DUP2 DUP2 SUB PUSH1 0x0 DUP4 ADD MSTORE PUSH2 0x780A DUP2 PUSH2 0x7343 JUMP JUMPDEST SWAP1 POP SWAP2 SWAP1 POP JUMP JUMPDEST PUSH1 0x0 PUSH1 0x20 DUP3 ADD SWAP1 POP DUP2 DUP2 SUB PUSH1 0x0 DUP4 ADD MSTORE PUSH2 0x782A DUP2 PUSH2 0x7366 JUMP JUMPDEST SWAP1 POP SWAP2 SWAP1 POP JUMP JUMPDEST PUSH1 0x0 PUSH1 0x20 DUP3 ADD SWAP1 POP DUP2 DUP2 SUB PUSH1 0x0 DUP4 ADD MSTORE PUSH2 0x784A DUP2 PUSH2 0x7389 JUMP JUMPDEST SWAP1 POP SWAP2 SWAP1 POP JUMP JUMPDEST PUSH1 0x0 PUSH1 0x20 DUP3 ADD SWAP1 POP DUP2 DUP2 SUB PUSH1 0x0 DUP4 ADD MSTORE PUSH2 0x786A DUP2 PUSH2 0x73AC JUMP JUMPDEST SWAP1 POP SWAP2 SWAP1 POP JUMP JUMPDEST PUSH1 0x0 PUSH1 0x20 DUP3 ADD SWAP1 POP PUSH2 0x7886 PUSH1 0x0 DUP4 ADD DUP5 PUSH2 0x73CF JUMP JUMPDEST SWAP3 SWAP2 POP POP JUMP JUMPDEST PUSH1 0x0 PUSH1 0x40 DUP3 ADD SWAP1 POP PUSH2 0x78A1 PUSH1 0x0 DUP4 ADD DUP6 PUSH2 0x73CF JUMP JUMPDEST DUP2 DUP2 SUB PUSH1 0x20 DUP4 ADD MSTORE PUSH2 0x78B3 DUP2 DUP5 PUSH2 0x6F15 JUMP JUMPDEST SWAP1 POP SWAP4 SWAP3 POP POP POP JUMP JUMPDEST PUSH1 0x0 PUSH1 0x40 DUP3 ADD SWAP1 POP PUSH2 0x78D1 PUSH1 0x0 DUP4 ADD DUP6 PUSH2 0x73CF JUMP JUMPDEST PUSH2 0x78DE PUSH1 0x20 DUP4 ADD DUP5 PUSH2 0x73CF JUMP JUMPDEST SWAP4 SWAP3 POP POP POP JUMP JUMPDEST PUSH1 0x0 PUSH1 0xA0 DUP3 ADD SWAP1 POP PUSH2 0x78FA PUSH1 0x0 DUP4 ADD DUP9 PUSH2 0x73CF JUMP JUMPDEST PUSH2 0x7907 PUSH1 0x20 DUP4 ADD DUP8 PUSH2 0x73CF JUMP JUMPDEST DUP2 DUP2 SUB PUSH1 0x40 DUP4 ADD MSTORE PUSH2 0x7919 DUP2 DUP7 PUSH2 0x6F15 JUMP JUMPDEST SWAP1 POP PUSH2 0x7928 PUSH1 0x60 DUP4 ADD DUP6 PUSH2 0x6F06 JUMP JUMPDEST PUSH2 0x7935 PUSH1 0x80 DUP4 ADD DUP5 PUSH2 0x73CF JUMP JUMPDEST SWAP7 SWAP6 POP POP POP POP POP POP JUMP JUMPDEST PUSH1 0x0 PUSH1 0x60 DUP3 ADD SWAP1 POP PUSH2 0x7954 PUSH1 0x0 DUP4 ADD DUP7 PUSH2 0x73CF JUMP JUMPDEST PUSH2 0x7961 PUSH1 0x20 DUP4 ADD DUP6 PUSH2 0x73CF JUMP JUMPDEST PUSH2 0x796E PUSH1 0x40 DUP4 ADD DUP5 PUSH2 0x73CF JUMP JUMPDEST SWAP5 SWAP4 POP POP POP POP JUMP JUMPDEST PUSH1 0x0 PUSH1 0xE0 DUP3 ADD SWAP1 POP PUSH2 0x798B PUSH1 0x0 DUP4 ADD DUP11 PUSH2 0x73CF JUMP JUMPDEST PUSH2 0x7998 PUSH1 0x20 DUP4 ADD DUP10 PUSH2 0x73CF JUMP JUMPDEST PUSH2 0x79A5 PUSH1 0x40 DUP4 ADD DUP9 PUSH2 0x73CF JUMP JUMPDEST PUSH2 0x79B2 PUSH1 0x60 DUP4 ADD DUP8 PUSH2 0x73CF JUMP JUMPDEST PUSH2 0x79BF PUSH1 0x80 DUP4 ADD DUP7 PUSH2 0x6F06 JUMP JUMPDEST DUP2 DUP2 SUB PUSH1 0xA0 DUP4 ADD MSTORE PUSH2 0x79D1 DUP2 DUP6 PUSH2 0x6F15 JUMP JUMPDEST SWAP1 POP DUP2 DUP2 SUB PUSH1 0xC0 DUP4 ADD MSTORE PUSH2 0x79E5 DUP2 DUP5 PUSH2 0x6F15 JUMP JUMPDEST SWAP1 POP SWAP9 SWAP8 POP POP POP POP POP POP POP POP JUMP JUMPDEST PUSH1 0x0 PUSH2 0x79FD PUSH2 0x7A0E JUMP JUMPDEST SWAP1 POP PUSH2 0x7A09 DUP3 DUP3 PUSH2 0x7E1F JUMP JUMPDEST SWAP2 SWAP1 POP JUMP JUMPDEST PUSH1 0x0 PUSH1 0x40 MLOAD SWAP1 POP SWAP1 JUMP JUMPDEST PUSH1 0x0 PUSH8 0xFFFFFFFFFFFFFFFF DUP3 GT ISZERO PUSH2 0x7A33 JUMPI PUSH2 0x7A32 PUSH2 0x7EAE JUMP JUMPDEST JUMPDEST PUSH1 0x20 DUP3 MUL SWAP1 POP PUSH1 0x20 DUP2 ADD SWAP1 POP SWAP2 SWAP1 POP JUMP JUMPDEST PUSH1 0x0 PUSH8 0xFFFFFFFFFFFFFFFF DUP3 GT ISZERO PUSH2 0x7A5F JUMPI PUSH2 0x7A5E PUSH2 0x7EAE JUMP JUMPDEST JUMPDEST PUSH1 0x20 DUP3 MUL SWAP1 POP PUSH1 0x20 DUP2 ADD SWAP1 POP SWAP2 SWAP1 POP JUMP JUMPDEST PUSH1 0x0 DUP2 SWAP1 POP PUSH1 0x20 DUP3 ADD SWAP1 POP SWAP2 SWAP1 POP JUMP JUMPDEST PUSH1 0x0 DUP2 MLOAD SWAP1 POP SWAP2 SWAP1 POP JUMP JUMPDEST PUSH1 0x0 DUP2 MLOAD SWAP1 POP SWAP2 SWAP1 POP JUMP JUMPDEST PUSH1 0x0 DUP2 MLOAD SWAP1 POP SWAP2 SWAP1 POP JUMP JUMPDEST PUSH1 0x0 PUSH1 0x20 DUP3 ADD SWAP1 POP SWAP2 SWAP1 POP JUMP JUMPDEST PUSH1 0x0 DUP3 DUP3 MSTORE PUSH1 0x20 DUP3 ADD SWAP1 POP SWAP3 SWAP2 POP POP JUMP JUMPDEST PUSH1 0x0 DUP2 SWAP1 POP SWAP3 SWAP2 POP POP JUMP JUMPDEST PUSH1 0x0 DUP3 DUP3 MSTORE PUSH1 0x20 DUP3 ADD SWAP1 POP SWAP3 SWAP2 POP POP JUMP JUMPDEST PUSH1 0x0 PUSH2 0x7AE6 DUP3 PUSH2 0x7DB1 JUMP JUMPDEST SWAP2 POP PUSH2 0x7AF1 DUP4 PUSH2 0x7DB1 JUMP JUMPDEST SWAP3 POP DUP3 PUSH32 0xFFFFFFFFFFFFFFFFFFFFFFFFFFFFFFFFFFFFFFFFFFFFFFFFFFFFFFFFFFFFFFFF SUB DUP3 GT ISZERO PUSH2 0x7B26 JUMPI PUSH2 0x7B25 PUSH2 0x7E50 JUMP JUMPDEST JUMPDEST DUP3 DUP3 ADD SWAP1 POP SWAP3 SWAP2 POP POP JUMP JUMPDEST PUSH1 0x0 PUSH2 0x7B3C DUP3 PUSH2 0x7DB1 JUMP JUMPDEST SWAP2 POP PUSH2 0x7B47 DUP4 PUSH2 0x7DB1 JUMP JUMPDEST SWAP3 POP DUP3 PUSH2 0x7B57 JUMPI PUSH2 0x7B56 PUSH2 0x7E7F JUMP JUMPDEST JUMPDEST DUP3 DUP3 DIV SWAP1 POP SWAP3 SWAP2 POP POP JUMP JUMPDEST PUSH1 0x0 DUP1 DUP3 SWAP2 POP DUP4 SWAP1 POP JUMPDEST PUSH1 0x1 DUP6 GT ISZERO PUSH2 0x7BAC JUMPI DUP1 DUP7 DIV DUP2 GT ISZERO PUSH2 0x7B88 JUMPI PUSH2 0x7B87 PUSH2 0x7E50 JUMP JUMPDEST JUMPDEST PUSH1 0x1 DUP6 AND ISZERO PUSH2 0x7B97 JUMPI DUP1 DUP3 MUL SWAP2 POP JUMPDEST DUP1 DUP2 MUL SWAP1 POP PUSH2 0x7BA5 DUP6 PUSH2 0x7EEE JUMP JUMPDEST SWAP5 POP PUSH2 0x7B6C JUMP JUMPDEST SWAP5 POP SWAP5 SWAP3 POP POP POP JUMP JUMPDEST PUSH1 0x0 PUSH2 0x7BC0 DUP3 PUSH2 0x7DB1 JUMP JUMPDEST SWAP2 POP PUSH2 0x7BCB DUP4 PUSH2 0x7DB1 JUMP JUMPDEST SWAP3 POP PUSH2 0x7BF8 PUSH32 0xFFFFFFFFFFFFFFFFFFFFFFFFFFFFFFFFFFFFFFFFFFFFFFFFFFFFFFFFFFFFFFFF DUP5 DUP5 PUSH2 0x7C00 JUMP JUMPDEST SWAP1 POP SWAP3 SWAP2 POP POP JUMP JUMPDEST PUSH1 0x0 DUP3 PUSH2 0x7C10 JUMPI PUSH1 0x1 SWAP1 POP PUSH2 0x7CCC JUMP JUMPDEST DUP2 PUSH2 0x7C1E JUMPI PUSH1 0x0 SWAP1 POP PUSH2 0x7CCC JUMP JUMPDEST DUP2 PUSH1 0x1 DUP2 EQ PUSH2 0x7C34 JUMPI PUSH1 0x2 DUP2 EQ PUSH2 0x7C3E JUMPI PUSH2 0x7C6D JUMP JUMPDEST PUSH1 0x1 SWAP2 POP POP PUSH2 0x7CCC JUMP JUMPDEST PUSH1 0xFF DUP5 GT ISZERO PUSH2 0x7C50 JUMPI PUSH2 0x7C4F PUSH2 0x7E50 JUMP JUMPDEST JUMPDEST DUP4 PUSH1 0x2 EXP SWAP2 POP DUP5 DUP3 GT ISZERO PUSH2 0x7C67 JUMPI PUSH2 0x7C66 PUSH2 0x7E50 JUMP JUMPDEST JUMPDEST POP PUSH2 0x7CCC JUMP JUMPDEST POP PUSH1 0x20 DUP4 LT PUSH2 0x133 DUP4 LT AND PUSH1 0x4E DUP5 LT PUSH1 0xB DUP5 LT AND OR ISZERO PUSH2 0x7CA2 JUMPI DUP3 DUP3 EXP SWAP1 POP DUP4 DUP2 GT ISZERO PUSH2 0x7C9D JUMPI PUSH2 0x7C9C PUSH2 0x7E50 JUMP JUMPDEST JUMPDEST PUSH2 0x7CCC JUMP JUMPDEST PUSH2 0x7CAF DUP5 DUP5 DUP5 PUSH1 0x1 PUSH2 0x7B62 JUMP JUMPDEST SWAP3 POP SWAP1 POP DUP2 DUP5 DIV DUP2 GT ISZERO PUSH2 0x7CC6 JUMPI PUSH2 0x7CC5 PUSH2 0x7E50 JUMP JUMPDEST JUMPDEST DUP2 DUP2 MUL SWAP1 POP JUMPDEST SWAP4 SWAP3 POP POP POP JUMP JUMPDEST PUSH1 0x0 PUSH2 0x7CDE DUP3 PUSH2 0x7DB1 JUMP JUMPDEST SWAP2 POP PUSH2 0x7CE9 DUP4 PUSH2 0x7DB1 JUMP JUMPDEST SWAP3 POP DUP2 PUSH32 0xFFFFFFFFFFFFFFFFFFFFFFFFFFFFFFFFFFFFFFFFFFFFFFFFFFFFFFFFFFFFFFFF DIV DUP4 GT DUP3 ISZERO ISZERO AND ISZERO PUSH2 0x7D22 JUMPI PUSH2 0x7D21 PUSH2 0x7E50 JUMP JUMPDEST JUMPDEST DUP3 DUP3 MUL SWAP1 POP SWAP3 SWAP2 POP POP JUMP JUMPDEST PUSH1 0x0 PUSH2 0x7D38 DUP3 PUSH2 0x7DB1 JUMP JUMPDEST SWAP2 POP PUSH2 0x7D43 DUP4 PUSH2 0x7DB1 JUMP JUMPDEST SWAP3 POP DUP3 DUP3 LT ISZERO PUSH2 0x7D56 JUMPI PUSH2 0x7D55 PUSH2 0x7E50 JUMP JUMPDEST JUMPDEST DUP3 DUP3 SUB SWAP1 POP SWAP3 SWAP2 POP POP JUMP JUMPDEST PUSH1 0x0 PUSH2 0x7D6C DUP3 PUSH2 0x7D91 JUMP JUMPDEST SWAP1 POP SWAP2 SWAP1 POP JUMP JUMPDEST PUSH1 0x0 DUP2 ISZERO ISZERO SWAP1 POP SWAP2 SWAP1 POP JUMP JUMPDEST PUSH1 0x0 PUSH2 0x7D8A DUP3 PUSH2 0x7D61 JUMP JUMPDEST SWAP1 POP SWAP2 SWAP1 POP JUMP JUMPDEST PUSH1 0x0 PUSH20 0xFFFFFFFFFFFFFFFFFFFFFFFFFFFFFFFFFFFFFFFF DUP3 AND SWAP1 POP SWAP2 SWAP1 POP JUMP JUMPDEST PUSH1 0x0 DUP2 SWAP1 POP SWAP2 SWAP1 POP JUMP JUMPDEST PUSH1 0x0 PUSH1 0xFF DUP3 AND SWAP1 POP SWAP2 SWAP1 POP JUMP JUMPDEST PUSH1 0x0 PUSH2 0x7DD3 DUP3 PUSH2 0x7DDA JUMP JUMPDEST SWAP1 POP SWAP2 SWAP1 POP JUMP JUMPDEST PUSH1 0x0 PUSH2 0x7DE5 DUP3 PUSH2 0x7D91 JUMP JUMPDEST SWAP1 POP SWAP2 SWAP1 POP JUMP JUMPDEST PUSH1 0x0 JUMPDEST DUP4 DUP2 LT ISZERO PUSH2 0x7E0A JUMPI DUP1 DUP3 ADD MLOAD DUP2 DUP5 ADD MSTORE PUSH1 0x20 DUP2 ADD SWAP1 POP PUSH2 0x7DEF JUMP JUMPDEST DUP4 DUP2 GT ISZERO PUSH2 0x7E19 JUMPI PUSH1 0x0 DUP5 DUP5 ADD MSTORE JUMPDEST POP POP POP POP JUMP JUMPDEST PUSH2 0x7E28 DUP3 PUSH2 0x7EDD JUMP JUMPDEST DUP2 ADD DUP2 DUP2 LT PUSH8 0xFFFFFFFFFFFFFFFF DUP3 GT OR ISZERO PUSH2 0x7E47 JUMPI PUSH2 0x7E46 PUSH2 0x7EAE JUMP JUMPDEST JUMPDEST DUP1 PUSH1 0x40 MSTORE POP POP POP JUMP JUMPDEST PUSH32 0x4E487B7100000000000000000000000000000000000000000000000000000000 PUSH1 0x0 MSTORE PUSH1 0x11 PUSH1 0x4 MSTORE PUSH1 0x24 PUSH1 0x0 REVERT JUMPDEST PUSH32 0x4E487B7100000000000000000000000000000000000000000000000000000000 PUSH1 0x0 MSTORE PUSH1 0x12 PUSH1 0x4 MSTORE PUSH1 0x24 PUSH1 0x0 REVERT JUMPDEST PUSH32 0x4E487B7100000000000000000000000000000000000000000000000000000000 PUSH1 0x0 MSTORE PUSH1 0x41 PUSH1 0x4 MSTORE PUSH1 0x24 PUSH1 0x0 REVERT JUMPDEST PUSH1 0x0 PUSH1 0x1F NOT PUSH1 0x1F DUP4 ADD AND SWAP1 POP SWAP2 SWAP1 POP JUMP JUMPDEST PUSH1 0x0 DUP2 PUSH1 0x1 SHR SWAP1 POP SWAP2 SWAP1 POP JUMP JUMPDEST PUSH32 0x506F6F6C2077617320616C726561647920737461727465640000000000000000 PUSH1 0x0 DUP3 ADD MSTORE POP JUMP JUMPDEST PUSH32 0x496E76616C6964206465706F7369742066656500000000000000000000000000 PUSH1 0x0 DUP3 ADD MSTORE POP JUMP JUMPDEST PUSH32 0x496E76616C696420616464726573730000000000000000000000000000000000 PUSH1 0x0 DUP3 ADD MSTORE POP JUMP JUMPDEST PUSH32 0x496E76616C696420776974686472617720666565000000000000000000000000 PUSH1 0x0 DUP3 ADD MSTORE POP JUMP JUMPDEST PUSH32 0x4F776E61626C653A206E6577206F776E657220697320746865207A65726F2061 PUSH1 0x0 DUP3 ADD MSTORE PUSH32 0x6464726573730000000000000000000000000000000000000000000000000000 PUSH1 0x20 DUP3 ADD MSTORE POP JUMP JUMPDEST PUSH32 0x6C6F776572206C696D6974207265616368656400000000000000000000000000 PUSH1 0x0 DUP3 ADD MSTORE POP JUMP JUMPDEST PUSH32 0x496E73756666696369656E742062616C616E6365000000000000000000000000 PUSH1 0x0 DUP3 ADD MSTORE POP JUMP JUMPDEST PUSH32 0x5F736C697070616765466163746F7220746F6F20686967680000000000000000 PUSH1 0x0 DUP3 ADD MSTORE POP JUMP JUMPDEST PUSH32 0x416464726573733A20696E73756666696369656E742062616C616E636520666F PUSH1 0x0 DUP3 ADD MSTORE PUSH32 0x722063616C6C0000000000000000000000000000000000000000000000000000 PUSH1 0x20 DUP3 ADD MSTORE POP JUMP JUMPDEST PUSH32 0x73657453657276696365496E666F3A20464F5242494444454E00000000000000 PUSH1 0x0 DUP3 ADD MSTORE POP JUMP JUMPDEST PUSH32 0x506F6F6C2069732072756E6E696E670000000000000000000000000000000000 PUSH1 0x0 DUP3 ADD MSTORE POP JUMP JUMPDEST PUSH32 0x4F776E61626C653A2063616C6C6572206973206E6F7420746865206F776E6572 PUSH1 0x0 DUP3 ADD MSTORE POP JUMP JUMPDEST PUSH32 0x416D6F756E742073686F756C642062652067726561746F72207468616E203000 PUSH1 0x0 DUP3 ADD MSTORE POP JUMP JUMPDEST PUSH32 0x4D75737420626520736574000000000000000000000000000000000000000000 PUSH1 0x0 DUP3 ADD MSTORE POP JUMP JUMPDEST PUSH32 0x4E6577206C696D6974206D757374206265206869676865720000000000000000 PUSH1 0x0 DUP3 ADD MSTORE POP JUMP JUMPDEST PUSH32 0x5573657220616D6F756E742061626F7665206C696D6974000000000000000000 PUSH1 0x0 DUP3 ADD MSTORE POP JUMP JUMPDEST PUSH32 0x73686F756C642070617920736D616C6C2067617320746F20636F6D706F756E64 PUSH1 0x0 DUP3 ADD MSTORE PUSH32 0x206F722068617276657374000000000000000000000000000000000000000000 PUSH1 0x20 DUP3 ADD MSTORE POP JUMP JUMPDEST PUSH32 0x43616E6E6F742062652072657761726420746F6B656E00000000000000000000 PUSH1 0x0 DUP3 ADD MSTORE POP JUMP JUMPDEST PUSH32 0x416D6F756E7420746F20776974686472617720746F6F20686967680000000000 PUSH1 0x0 DUP3 ADD MSTORE POP JUMP JUMPDEST PUSH32 0x416464726573733A2063616C6C20746F206E6F6E2D636F6E7472616374000000 PUSH1 0x0 DUP3 ADD MSTORE POP JUMP JUMPDEST PUSH32 0x416C726561647920696E697469616C697A656400000000000000000000000000 PUSH1 0x0 DUP3 ADD MSTORE POP JUMP JUMPDEST PUSH32 0x5361666545524332303A204552433230206F7065726174696F6E20646964206E PUSH1 0x0 DUP3 ADD MSTORE PUSH32 0x6F74207375636365656400000000000000000000000000000000000000000000 PUSH1 0x20 DUP3 ADD MSTORE POP JUMP JUMPDEST PUSH32 0x5265656E7472616E637947756172643A207265656E7472616E742063616C6C00 PUSH1 0x0 DUP3 ADD MSTORE POP JUMP JUMPDEST PUSH32 0x4E6F7420666163746F7279000000000000000000000000000000000000000000 PUSH1 0x0 DUP3 ADD MSTORE POP JUMP JUMPDEST PUSH32 0x5361666545524332303A20617070726F76652066726F6D206E6F6E2D7A65726F PUSH1 0x0 DUP3 ADD MSTORE PUSH32 0x20746F206E6F6E2D7A65726F20616C6C6F77616E636500000000000000000000 PUSH1 0x20 DUP3 ADD MSTORE POP JUMP JUMPDEST PUSH32 0x4E6F207265666C656374696F6E73000000000000000000000000000000000000 PUSH1 0x0 DUP3 ADD MSTORE POP JUMP JUMPDEST PUSH32 0x4D75737420626520696E666572696F7220746F20333000000000000000000000 PUSH1 0x0 DUP3 ADD MSTORE POP JUMP JUMPDEST PUSH32 0x496E73756666696369656E742072657761726420746F6B656E73000000000000 PUSH1 0x0 DUP3 ADD MSTORE POP JUMP JUMPDEST PUSH2 0x843E DUP2 PUSH2 0x7D61 JUMP JUMPDEST DUP2 EQ PUSH2 0x8449 JUMPI PUSH1 0x0 DUP1 REVERT JUMPDEST POP JUMP JUMPDEST PUSH2 0x8455 DUP2 PUSH2 0x7D73 JUMP JUMPDEST DUP2 EQ PUSH2 0x8460 JUMPI PUSH1 0x0 DUP1 REVERT JUMPDEST POP JUMP JUMPDEST PUSH2 0x846C DUP2 PUSH2 0x7D7F JUMP JUMPDEST DUP2 EQ PUSH2 0x8477 JUMPI PUSH1 0x0 DUP1 REVERT JUMPDEST POP JUMP JUMPDEST PUSH2 0x8483 DUP2 PUSH2 0x7DB1 JUMP JUMPDEST DUP2 EQ PUSH2 0x848E JUMPI PUSH1 0x0 DUP1 REVERT JUMPDEST POP JUMP JUMPDEST PUSH2 0x849A DUP2 PUSH2 0x7DBB JUMP JUMPDEST DUP2 EQ PUSH2 0x84A5 JUMPI PUSH1 0x0 DUP1 REVERT JUMPDEST POP JUMP INVALID LOG2 PUSH5 0x6970667358 0x22 SLT KECCAK256 SUB MOD 0xCF CODECOPY 0xF9 SHL 0xBA DUP7 0xCF SWAP3 0xA6 SWAP13 PUSH29 0xCF4C53FCAAB4E5D8BC00484AF245E65F07537164736F6C634300080200 CALLER "
		},
		"gasEstimates": {
			"creation": {
				"codeDepositCost": "6802800",
				"executionCost": "infinite",
				"totalCost": "infinite"
			},
			"external": {
				"MAX_FEE()": "419",
				"POOL_FACTORY()": "1347",
				"PRECISION_FACTOR()": "1218",
				"PRECISION_FACTOR_REFLECTION()": "1198",
				"accDividendPerShare()": "1241",
				"accTokenPerShare()": "1219",
				"availableRewardTokens()": "infinite",
				"availabledividendTokens()": "infinite",
				"bonusEndBlock()": "1198",
				"buyBackAddress()": "1326",
				"buyBackRate()": "1242",
				"buyBackWallet()": "1305",
				"claimDividend()": "infinite",
				"claimReward()": "infinite",
				"compoundDividend()": "infinite",
				"compoundReward()": "infinite",
				"deposit(uint256)": "infinite",
				"depositFee()": "1264",
				"depositRewards(uint256)": "infinite",
				"dividendToken()": "1283",
				"duration()": "1243",
				"earnedToStakedPath(uint256)": "2490",
				"earnedToken()": "1369",
				"emergencyRewardWithdraw(uint256)": "infinite",
				"emergencyWithdraw()": "infinite",
				"harvest()": "infinite",
				"hasDividend()": "1333",
				"hasUserLimit()": "1305",
				"initialize(address,address,address,uint256,uint256,uint256,address,address[],address[],bool)": "infinite",
				"isInitialized()": "1311",
				"lastRewardBlock()": "1263",
				"owner()": "1290",
				"pendingDividends(address)": "infinite",
				"pendingReward(address)": "infinite",
				"performanceFee()": "1262",
				"poolLimitPerUser()": "1242",
				"recoverWrongTokens(address,uint256)": "infinite",
				"reflectionToStakedPath(uint256)": "2447",
				"renounceOwnership()": "24508",
				"resetAllowances()": "infinite",
				"rewardPerBlock()": "1220",
				"setDuration(uint256)": "infinite",
				"setServiceInfo(address,uint256)": "infinite",
				"setSettings(uint256,uint256,uint256,uint256,address,address[],address[])": "infinite",
				"slippageFactor()": "1261",
				"slippageFactorUL()": "440",
				"stakingToken()": "1325",
				"startBlock()": "1198",
				"startReward()": "infinite",
				"stopReward()": "21164",
				"totalStaked()": "1218",
				"transferOwnership(address)": "24789",
				"uniRouterAddress()": "1282",
				"updateBuybackAddr(address)": "infinite",
				"updatePoolLimitPerUser(bool,uint256)": "infinite",
				"updateRewardPerBlock(uint256)": "infinite",
				"updateWalletA(address)": "infinite",
				"userInfo(address)": "infinite",
				"walletA()": "1347",
				"walletARate()": "1218",
				"withdraw(uint256)": "infinite",
				"withdrawFee()": "1240"
			},
			"internal": {
				"_getMultiplier(uint256,uint256)": "infinite",
				"_resetAllowances()": "infinite",
				"_safeSwap(uint256,address[] memory,address)": "infinite",
				"_transferPerformanceFee()": "infinite",
				"_updatePool()": "infinite"
			}
		},
		"methodIdentifiers": {
			"MAX_FEE()": "bc063e1a",
			"POOL_FACTORY()": "d8e31608",
			"PRECISION_FACTOR()": "ccd34cd5",
			"PRECISION_FACTOR_REFLECTION()": "88bbb0c1",
			"accDividendPerShare()": "92b46e5b",
			"accTokenPerShare()": "8f662915",
			"availableRewardTokens()": "9f94e272",
			"availabledividendTokens()": "bd01ac4e",
			"bonusEndBlock()": "1aed6553",
			"buyBackAddress()": "783478ad",
			"buyBackRate()": "178a8d07",
			"buyBackWallet()": "1cd348c0",
			"claimDividend()": "f0fc6bca",
			"claimReward()": "b88a802f",
			"compoundDividend()": "4de8ff21",
			"compoundReward()": "6d971a10",
			"deposit(uint256)": "b6b55f25",
			"depositFee()": "67a52793",
			"depositRewards(uint256)": "8bdf67f2",
			"dividendToken()": "1582358e",
			"duration()": "0fb5a6b4",
			"earnedToStakedPath(uint256)": "c1e22a65",
			"earnedToken()": "6e707b73",
			"emergencyRewardWithdraw(uint256)": "3279beab",
			"emergencyWithdraw()": "db2e21bc",
			"harvest()": "4641257d",
			"hasDividend()": "a5bfd0f2",
			"hasUserLimit()": "92e8990e",
			"initialize(address,address,address,uint256,uint256,uint256,address,address[],address[],bool)": "b1722d9e",
			"isInitialized()": "392e53cd",
			"lastRewardBlock()": "a9f8d181",
			"owner()": "8da5cb5b",
			"pendingDividends(address)": "c7926458",
			"pendingReward(address)": "f40f0f52",
			"performanceFee()": "87788782",
			"poolLimitPerUser()": "66fe9f8a",
			"recoverWrongTokens(address,uint256)": "3f138d4b",
			"reflectionToStakedPath(uint256)": "167d2dbe",
			"renounceOwnership()": "715018a6",
			"resetAllowances()": "3505b09f",
			"rewardPerBlock()": "8ae39cac",
			"setDuration(uint256)": "f6be71d1",
			"setServiceInfo(address,uint256)": "81b61948",
			"setSettings(uint256,uint256,uint256,uint256,address,address[],address[])": "00722765",
			"slippageFactor()": "ffbd3b1f",
			"slippageFactorUL()": "b74cd242",
			"stakingToken()": "72f702f3",
			"startBlock()": "48cd4cb1",
			"startReward()": "746c8ae1",
			"stopReward()": "80dc0672",
			"totalStaked()": "817b1cd2",
			"transferOwnership(address)": "f2fde38b",
			"uniRouterAddress()": "693a090b",
			"updateBuybackAddr(address)": "ce8b6061",
			"updatePoolLimitPerUser(bool,uint256)": "a0b40905",
			"updateRewardPerBlock(uint256)": "01f8a976",
			"updateWalletA(address)": "7972271b",
			"userInfo(address)": "1959a002",
			"walletA()": "b77e7da0",
			"walletARate()": "e4eceff0",
			"withdraw(uint256)": "2e1a7d4d",
			"withdrawFee()": "e941fa78"
		}
	},
	"abi": [
		{
			"inputs": [],
			"stateMutability": "nonpayable",
			"type": "constructor"
		},
		{
			"anonymous": false,
			"inputs": [
				{
					"indexed": false,
					"internalType": "address",
					"name": "tokenRecovered",
					"type": "address"
				},
				{
					"indexed": false,
					"internalType": "uint256",
					"name": "amount",
					"type": "uint256"
				}
			],
			"name": "AdminTokenRecovered",
			"type": "event"
		},
		{
			"anonymous": false,
			"inputs": [
				{
					"indexed": false,
					"internalType": "address",
					"name": "_addr",
					"type": "address"
				}
			],
			"name": "BuybackAddressUpadted",
			"type": "event"
		},
		{
			"anonymous": false,
			"inputs": [
				{
					"indexed": true,
					"internalType": "address",
					"name": "user",
					"type": "address"
				},
				{
					"indexed": false,
					"internalType": "uint256",
					"name": "amount",
					"type": "uint256"
				}
			],
			"name": "Deposit",
			"type": "event"
		},
		{
			"anonymous": false,
			"inputs": [
				{
					"indexed": false,
					"internalType": "uint256",
					"name": "_duration",
					"type": "uint256"
				}
			],
			"name": "DurationUpdated",
			"type": "event"
		},
		{
			"anonymous": false,
			"inputs": [
				{
					"indexed": true,
					"internalType": "address",
					"name": "user",
					"type": "address"
				},
				{
					"indexed": false,
					"internalType": "uint256",
					"name": "amount",
					"type": "uint256"
				}
			],
			"name": "EmergencyWithdraw",
			"type": "event"
		},
		{
			"anonymous": false,
			"inputs": [
				{
					"indexed": false,
					"internalType": "uint256",
					"name": "poolLimitPerUser",
					"type": "uint256"
				}
			],
			"name": "NewPoolLimit",
			"type": "event"
		},
		{
			"anonymous": false,
			"inputs": [
				{
					"indexed": false,
					"internalType": "uint256",
					"name": "rewardPerBlock",
					"type": "uint256"
				}
			],
			"name": "NewRewardPerBlock",
			"type": "event"
		},
		{
			"anonymous": false,
			"inputs": [
				{
					"indexed": false,
					"internalType": "uint256",
					"name": "startBlock",
					"type": "uint256"
				},
				{
					"indexed": false,
					"internalType": "uint256",
					"name": "endBlock",
					"type": "uint256"
				}
			],
			"name": "NewStartAndEndBlocks",
			"type": "event"
		},
		{
			"anonymous": false,
			"inputs": [
				{
					"indexed": true,
					"internalType": "address",
					"name": "previousOwner",
					"type": "address"
				},
				{
					"indexed": true,
					"internalType": "address",
					"name": "newOwner",
					"type": "address"
				}
			],
			"name": "OwnershipTransferred",
			"type": "event"
		},
		{
			"anonymous": false,
			"inputs": [
				{
					"indexed": false,
					"internalType": "uint256",
					"name": "blockNumber",
					"type": "uint256"
				}
			],
			"name": "RewardsStop",
			"type": "event"
		},
		{
			"anonymous": false,
			"inputs": [
				{
					"indexed": false,
					"internalType": "address",
					"name": "_addr",
					"type": "address"
				},
				{
					"indexed": false,
					"internalType": "uint256",
					"name": "_fee",
					"type": "uint256"
				}
			],
			"name": "ServiceInfoUpadted",
			"type": "event"
		},
		{
			"anonymous": false,
			"inputs": [
				{
					"indexed": false,
					"internalType": "uint256",
					"name": "_depositFee",
					"type": "uint256"
				},
				{
					"indexed": false,
					"internalType": "uint256",
					"name": "_withdrawFee",
					"type": "uint256"
				},
				{
					"indexed": false,
					"internalType": "uint256",
					"name": "_walletARate",
					"type": "uint256"
				},
				{
					"indexed": false,
					"internalType": "uint256",
					"name": "_slippageFactor",
					"type": "uint256"
				},
				{
					"indexed": false,
					"internalType": "address",
					"name": "_uniRouter",
					"type": "address"
				},
				{
					"indexed": false,
					"internalType": "address[]",
					"name": "_path0",
					"type": "address[]"
				},
				{
					"indexed": false,
					"internalType": "address[]",
					"name": "_path1",
					"type": "address[]"
				}
			],
			"name": "SetSettings",
			"type": "event"
		},
		{
			"anonymous": false,
			"inputs": [
				{
					"indexed": false,
					"internalType": "address",
					"name": "_addr",
					"type": "address"
				}
			],
			"name": "WalletAUpdated",
			"type": "event"
		},
		{
			"anonymous": false,
			"inputs": [
				{
					"indexed": true,
					"internalType": "address",
					"name": "user",
					"type": "address"
				},
				{
					"indexed": false,
					"internalType": "uint256",
					"name": "amount",
					"type": "uint256"
				}
			],
			"name": "Withdraw",
			"type": "event"
		},
		{
			"inputs": [],
			"name": "MAX_FEE",
			"outputs": [
				{
					"internalType": "uint256",
					"name": "",
					"type": "uint256"
				}
			],
			"stateMutability": "view",
			"type": "function"
		},
		{
			"inputs": [],
			"name": "POOL_FACTORY",
			"outputs": [
				{
					"internalType": "address",
					"name": "",
					"type": "address"
				}
			],
			"stateMutability": "view",
			"type": "function"
		},
		{
			"inputs": [],
			"name": "PRECISION_FACTOR",
			"outputs": [
				{
					"internalType": "uint256",
					"name": "",
					"type": "uint256"
				}
			],
			"stateMutability": "view",
			"type": "function"
		},
		{
			"inputs": [],
			"name": "PRECISION_FACTOR_REFLECTION",
			"outputs": [
				{
					"internalType": "uint256",
					"name": "",
					"type": "uint256"
				}
			],
			"stateMutability": "view",
			"type": "function"
		},
		{
			"inputs": [],
			"name": "accDividendPerShare",
			"outputs": [
				{
					"internalType": "uint256",
					"name": "",
					"type": "uint256"
				}
			],
			"stateMutability": "view",
			"type": "function"
		},
		{
			"inputs": [],
			"name": "accTokenPerShare",
			"outputs": [
				{
					"internalType": "uint256",
					"name": "",
					"type": "uint256"
				}
			],
			"stateMutability": "view",
			"type": "function"
		},
		{
			"inputs": [],
			"name": "availableRewardTokens",
			"outputs": [
				{
					"internalType": "uint256",
					"name": "",
					"type": "uint256"
				}
			],
			"stateMutability": "view",
			"type": "function"
		},
		{
			"inputs": [],
			"name": "availabledividendTokens",
			"outputs": [
				{
					"internalType": "uint256",
					"name": "",
					"type": "uint256"
				}
			],
			"stateMutability": "view",
			"type": "function"
		},
		{
			"inputs": [],
			"name": "bonusEndBlock",
			"outputs": [
				{
					"internalType": "uint256",
					"name": "",
					"type": "uint256"
				}
			],
			"stateMutability": "view",
			"type": "function"
		},
		{
			"inputs": [],
			"name": "buyBackAddress",
			"outputs": [
				{
					"internalType": "address",
					"name": "",
					"type": "address"
				}
			],
			"stateMutability": "view",
			"type": "function"
		},
		{
			"inputs": [],
			"name": "buyBackRate",
			"outputs": [
				{
					"internalType": "uint256",
					"name": "",
					"type": "uint256"
				}
			],
			"stateMutability": "view",
			"type": "function"
		},
		{
			"inputs": [],
			"name": "buyBackWallet",
			"outputs": [
				{
					"internalType": "address",
					"name": "",
					"type": "address"
				}
			],
			"stateMutability": "view",
			"type": "function"
		},
		{
			"inputs": [],
			"name": "claimDividend",
			"outputs": [],
			"stateMutability": "payable",
			"type": "function"
		},
		{
			"inputs": [],
			"name": "claimReward",
			"outputs": [],
			"stateMutability": "payable",
			"type": "function"
		},
		{
			"inputs": [],
			"name": "compoundDividend",
			"outputs": [],
			"stateMutability": "payable",
			"type": "function"
		},
		{
			"inputs": [],
			"name": "compoundReward",
			"outputs": [],
			"stateMutability": "payable",
			"type": "function"
		},
		{
			"inputs": [
				{
					"internalType": "uint256",
					"name": "_amount",
					"type": "uint256"
				}
			],
			"name": "deposit",
			"outputs": [],
			"stateMutability": "nonpayable",
			"type": "function"
		},
		{
			"inputs": [],
			"name": "depositFee",
			"outputs": [
				{
					"internalType": "uint256",
					"name": "",
					"type": "uint256"
				}
			],
			"stateMutability": "view",
			"type": "function"
		},
		{
			"inputs": [
				{
					"internalType": "uint256",
					"name": "_amount",
					"type": "uint256"
				}
			],
			"name": "depositRewards",
			"outputs": [],
			"stateMutability": "nonpayable",
			"type": "function"
		},
		{
			"inputs": [],
			"name": "dividendToken",
			"outputs": [
				{
					"internalType": "address",
					"name": "",
					"type": "address"
				}
			],
			"stateMutability": "view",
			"type": "function"
		},
		{
			"inputs": [],
			"name": "duration",
			"outputs": [
				{
					"internalType": "uint256",
					"name": "",
					"type": "uint256"
				}
			],
			"stateMutability": "view",
			"type": "function"
		},
		{
			"inputs": [
				{
					"internalType": "uint256",
					"name": "",
					"type": "uint256"
				}
			],
			"name": "earnedToStakedPath",
			"outputs": [
				{
					"internalType": "address",
					"name": "",
					"type": "address"
				}
			],
			"stateMutability": "view",
			"type": "function"
		},
		{
			"inputs": [],
			"name": "earnedToken",
			"outputs": [
				{
					"internalType": "contract IERC20",
					"name": "",
					"type": "address"
				}
			],
			"stateMutability": "view",
			"type": "function"
		},
		{
			"inputs": [
				{
					"internalType": "uint256",
					"name": "_amount",
					"type": "uint256"
				}
			],
			"name": "emergencyRewardWithdraw",
			"outputs": [],
			"stateMutability": "nonpayable",
			"type": "function"
		},
		{
			"inputs": [],
			"name": "emergencyWithdraw",
			"outputs": [],
			"stateMutability": "nonpayable",
			"type": "function"
		},
		{
			"inputs": [],
			"name": "harvest",
			"outputs": [],
			"stateMutability": "nonpayable",
			"type": "function"
		},
		{
			"inputs": [],
			"name": "hasDividend",
			"outputs": [
				{
					"internalType": "bool",
					"name": "",
					"type": "bool"
				}
			],
			"stateMutability": "view",
			"type": "function"
		},
		{
			"inputs": [],
			"name": "hasUserLimit",
			"outputs": [
				{
					"internalType": "bool",
					"name": "",
					"type": "bool"
				}
			],
			"stateMutability": "view",
			"type": "function"
		},
		{
			"inputs": [
				{
					"internalType": "contract IERC20",
					"name": "_stakingToken",
					"type": "address"
				},
				{
					"internalType": "contract IERC20",
					"name": "_earnedToken",
					"type": "address"
				},
				{
					"internalType": "address",
					"name": "_dividendToken",
					"type": "address"
				},
				{
					"internalType": "uint256",
					"name": "_rewardPerBlock",
					"type": "uint256"
				},
				{
					"internalType": "uint256",
					"name": "_depositFee",
					"type": "uint256"
				},
				{
					"internalType": "uint256",
					"name": "_withdrawFee",
					"type": "uint256"
				},
				{
					"internalType": "address",
					"name": "_uniRouter",
					"type": "address"
				},
				{
					"internalType": "address[]",
					"name": "_earnedToStakedPath",
					"type": "address[]"
				},
				{
					"internalType": "address[]",
					"name": "_reflectionToStakedPath",
					"type": "address[]"
				},
				{
					"internalType": "bool",
					"name": "_hasDividend",
					"type": "bool"
				}
			],
			"name": "initialize",
			"outputs": [],
			"stateMutability": "nonpayable",
			"type": "function"
		},
		{
			"inputs": [],
			"name": "isInitialized",
			"outputs": [
				{
					"internalType": "bool",
					"name": "",
					"type": "bool"
				}
			],
			"stateMutability": "view",
			"type": "function"
		},
		{
			"inputs": [],
			"name": "lastRewardBlock",
			"outputs": [
				{
					"internalType": "uint256",
					"name": "",
					"type": "uint256"
				}
			],
			"stateMutability": "view",
			"type": "function"
		},
		{
			"inputs": [],
			"name": "owner",
			"outputs": [
				{
					"internalType": "address",
					"name": "",
					"type": "address"
				}
			],
			"stateMutability": "view",
			"type": "function"
		},
		{
			"inputs": [
				{
					"internalType": "address",
					"name": "_user",
					"type": "address"
				}
			],
			"name": "pendingDividends",
			"outputs": [
				{
					"internalType": "uint256",
					"name": "",
					"type": "uint256"
				}
			],
			"stateMutability": "view",
			"type": "function"
		},
		{
			"inputs": [
				{
					"internalType": "address",
					"name": "_user",
					"type": "address"
				}
			],
			"name": "pendingReward",
			"outputs": [
				{
					"internalType": "uint256",
					"name": "",
					"type": "uint256"
				}
			],
			"stateMutability": "view",
			"type": "function"
		},
		{
			"inputs": [],
			"name": "performanceFee",
			"outputs": [
				{
					"internalType": "uint256",
					"name": "",
					"type": "uint256"
				}
			],
			"stateMutability": "view",
			"type": "function"
		},
		{
			"inputs": [],
			"name": "poolLimitPerUser",
			"outputs": [
				{
					"internalType": "uint256",
					"name": "",
					"type": "uint256"
				}
			],
			"stateMutability": "view",
			"type": "function"
		},
		{
			"inputs": [
				{
					"internalType": "address",
					"name": "_tokenAddress",
					"type": "address"
				},
				{
					"internalType": "uint256",
					"name": "_tokenAmount",
					"type": "uint256"
				}
			],
			"name": "recoverWrongTokens",
			"outputs": [],
			"stateMutability": "nonpayable",
			"type": "function"
		},
		{
			"inputs": [
				{
					"internalType": "uint256",
					"name": "",
					"type": "uint256"
				}
			],
			"name": "reflectionToStakedPath",
			"outputs": [
				{
					"internalType": "address",
					"name": "",
					"type": "address"
				}
			],
			"stateMutability": "view",
			"type": "function"
		},
		{
			"inputs": [],
			"name": "renounceOwnership",
			"outputs": [],
			"stateMutability": "nonpayable",
			"type": "function"
		},
		{
			"inputs": [],
			"name": "resetAllowances",
			"outputs": [],
			"stateMutability": "nonpayable",
			"type": "function"
		},
		{
			"inputs": [],
			"name": "rewardPerBlock",
			"outputs": [
				{
					"internalType": "uint256",
					"name": "",
					"type": "uint256"
				}
			],
			"stateMutability": "view",
			"type": "function"
		},
		{
			"inputs": [
				{
					"internalType": "uint256",
					"name": "_duration",
					"type": "uint256"
				}
			],
			"name": "setDuration",
			"outputs": [],
			"stateMutability": "nonpayable",
			"type": "function"
		},
		{
			"inputs": [
				{
					"internalType": "address",
					"name": "_buyBackWallet",
					"type": "address"
				},
				{
					"internalType": "uint256",
					"name": "_fee",
					"type": "uint256"
				}
			],
			"name": "setServiceInfo",
			"outputs": [],
			"stateMutability": "nonpayable",
			"type": "function"
		},
		{
			"inputs": [
				{
					"internalType": "uint256",
					"name": "_depositFee",
					"type": "uint256"
				},
				{
					"internalType": "uint256",
					"name": "_withdrawFee",
					"type": "uint256"
				},
				{
					"internalType": "uint256",
					"name": "_walletARate",
					"type": "uint256"
				},
				{
					"internalType": "uint256",
					"name": "_slippageFactor",
					"type": "uint256"
				},
				{
					"internalType": "address",
					"name": "_uniRouter",
					"type": "address"
				},
				{
					"internalType": "address[]",
					"name": "_earnedToStakedPath",
					"type": "address[]"
				},
				{
					"internalType": "address[]",
					"name": "_reflectionToStakedPath",
					"type": "address[]"
				}
			],
			"name": "setSettings",
			"outputs": [],
			"stateMutability": "nonpayable",
			"type": "function"
		},
		{
			"inputs": [],
			"name": "slippageFactor",
			"outputs": [
				{
					"internalType": "uint256",
					"name": "",
					"type": "uint256"
				}
			],
			"stateMutability": "view",
			"type": "function"
		},
		{
			"inputs": [],
			"name": "slippageFactorUL",
			"outputs": [
				{
					"internalType": "uint256",
					"name": "",
					"type": "uint256"
				}
			],
			"stateMutability": "view",
			"type": "function"
		},
		{
			"inputs": [],
			"name": "stakingToken",
			"outputs": [
				{
					"internalType": "contract IERC20",
					"name": "",
					"type": "address"
				}
			],
			"stateMutability": "view",
			"type": "function"
		},
		{
			"inputs": [],
			"name": "startBlock",
			"outputs": [
				{
					"internalType": "uint256",
					"name": "",
					"type": "uint256"
				}
			],
			"stateMutability": "view",
			"type": "function"
		},
		{
			"inputs": [],
			"name": "startReward",
			"outputs": [],
			"stateMutability": "nonpayable",
			"type": "function"
		},
		{
			"inputs": [],
			"name": "stopReward",
			"outputs": [],
			"stateMutability": "nonpayable",
			"type": "function"
		},
		{
			"inputs": [],
			"name": "totalStaked",
			"outputs": [
				{
					"internalType": "uint256",
					"name": "",
					"type": "uint256"
				}
			],
			"stateMutability": "view",
			"type": "function"
		},
		{
			"inputs": [
				{
					"internalType": "address",
					"name": "newOwner",
					"type": "address"
				}
			],
			"name": "transferOwnership",
			"outputs": [],
			"stateMutability": "nonpayable",
			"type": "function"
		},
		{
			"inputs": [],
			"name": "uniRouterAddress",
			"outputs": [
				{
					"internalType": "address",
					"name": "",
					"type": "address"
				}
			],
			"stateMutability": "view",
			"type": "function"
		},
		{
			"inputs": [
				{
					"internalType": "address",
					"name": "_addr",
					"type": "address"
				}
			],
			"name": "updateBuybackAddr",
			"outputs": [],
			"stateMutability": "nonpayable",
			"type": "function"
		},
		{
			"inputs": [
				{
					"internalType": "bool",
					"name": "_hasUserLimit",
					"type": "bool"
				},
				{
					"internalType": "uint256",
					"name": "_poolLimitPerUser",
					"type": "uint256"
				}
			],
			"name": "updatePoolLimitPerUser",
			"outputs": [],
			"stateMutability": "nonpayable",
			"type": "function"
		},
		{
			"inputs": [
				{
					"internalType": "uint256",
					"name": "_rewardPerBlock",
					"type": "uint256"
				}
			],
			"name": "updateRewardPerBlock",
			"outputs": [],
			"stateMutability": "nonpayable",
			"type": "function"
		},
		{
			"inputs": [
				{
					"internalType": "address",
					"name": "_walletA",
					"type": "address"
				}
			],
			"name": "updateWalletA",
			"outputs": [],
			"stateMutability": "nonpayable",
			"type": "function"
		},
		{
			"inputs": [
				{
					"internalType": "address",
					"name": "",
					"type": "address"
				}
			],
			"name": "userInfo",
			"outputs": [
				{
					"internalType": "uint256",
					"name": "amount",
					"type": "uint256"
				},
				{
					"internalType": "uint256",
					"name": "rewardDebt",
					"type": "uint256"
				},
				{
					"internalType": "uint256",
					"name": "reflectionDebt",
					"type": "uint256"
				}
			],
			"stateMutability": "view",
			"type": "function"
		},
		{
			"inputs": [],
			"name": "walletA",
			"outputs": [
				{
					"internalType": "address",
					"name": "",
					"type": "address"
				}
			],
			"stateMutability": "view",
			"type": "function"
		},
		{
			"inputs": [],
			"name": "walletARate",
			"outputs": [
				{
					"internalType": "uint256",
					"name": "",
					"type": "uint256"
				}
			],
			"stateMutability": "view",
			"type": "function"
		},
		{
			"inputs": [
				{
					"internalType": "uint256",
					"name": "_amount",
					"type": "uint256"
				}
			],
			"name": "withdraw",
			"outputs": [],
			"stateMutability": "nonpayable",
			"type": "function"
		},
		{
			"inputs": [],
			"name": "withdrawFee",
			"outputs": [
				{
					"internalType": "uint256",
					"name": "",
					"type": "uint256"
				}
			],
			"stateMutability": "view",
			"type": "function"
		},
		{
			"stateMutability": "payable",
			"type": "receive"
		}
	]
}